:100000000C94A4030C94EB030C94EB030C94EB03FF
:100010000C94EB030C94EB030C94EB030C94EB03A8
:100020000C94EB030C94EB030C94402C0C94122DC9
:100030000C9459270C94EB030C94EB030C94EB03F6
:100040000C94EB030C94EB030C94EB030C94EB0378
:100050000C94A7160C94B2270C94EB030C94EB03AE
:100060000C94EB030C94EB030C94EB030C94EB0358
:100070000C94EB030C94EB030C94EB030C94EB0348
:100080000C94EB030C94EB030C94EB030C94EB0338
:100090000C94EB030C94EB030C94EB030C94EB0328
:1000A0000C94EB030C94EB030C94EB03320928093A
:1000B00035097D09810981097D098109810956096F
:1000C000810960096A0981098109810981097D091C
:1000D000810981097D0981094309810981097A0919
:1000E0007A097A097A097A097A097A097A097A09F8
:1000F0007F0981093209250981098109810981095D
:100100008109810981098109810981097F098109A1
:1001100081097D09810978097809780978097809C0
:1001200078097809780978097F0908160A160F16E0
:100130001216151618161B168C1C8C1CBE1CBE1C09
:100140000B1D291D4A1E4A1E341DC91DDA1DDA1D4C
:100150003A1E4A1E4A1E431EEA1EEA1EFC1EFC1ED2
:10016000F31EFC1EFC1EFC1EEA1EEA1EF81EFC1EF0
:10017000FC1EF81E7F2DA62D9E2EA62D9E2EF22D46
:10018000152E9E2E6C2E7B2E165C1E001F0020004E
:1001900021002200230024002500260027002D0036
:1001A0002E002A002B0014001A000800150017006A
:1001B0001C0018000C00120013002F00300031004A
:1001C000025104001600070009000A000B000D0090
:1001D0000E000F003300340000002800E100000092
:1001E0001D001B000600190005001100100036005C
:1001F00037003800E5000000E000E200E300000006
:10020000000000002C00000000000000E700E600F5
:10021000E4003900010001000100010001000100BB
:1002200001000100010001000100010001000100C6
:1002300001000100010001000100010001000100B6
:1002400001000100010001000100010001000100A6
:100250000100010001000100010001000100010096
:100260000100010000000100010000000100010088
:100270000100010001000100010001000100010076
:1002800001000000E000E300E200000000000000C8
:100290000100000000000000E600E700E0000100AF
:1002A00035003A003B003C003D003E003F0040006E
:1002B000410042004300440045004C000100A800FA
:1002C000A90001000100010001004B004E004A009E
:1002D0004D0001000100005C0100AC00AA00AB0071
:1002E000010001005000510052004F0001000100C8
:1002F0000000010001000000C35CC45CCA5CCB5C70
:10030000CC5CCD5C010010501150010001000000D8
:10031000010001000100000000000000AE0000002C
:100320000000000001000100010001001E0F050097
:10033000047F3F1F643214643214783C1E1E140A7A
:10034000052223252628292A2C2D2F303233353615
:10035000383A3B3D3E4042434547494A4C4E505156
:10036000535557595A5C5E6062646668696B6D6F7D
:1003700071737577797B7D7F81838587898A8C8E80
:1003800090929496989A9C9E9FA1A3A5A7A8AAAC88
:10039000AEAFB1B3B4B6B8B9BBBCBEBFC1C2C3C5C2
:1003A000C6C7C9CACBCCCDCED0D1D2D2D3D4D5D664
:1003B000D7D7D8D9D9DADADBDBDBDCDCDCDCDCDD97
:1003C000DDDDDDDCDCDCDCDCDBDBDBDADAD9D9D87B
:1003D000D7D7D6D5D4D3D2D2D1D0CECDCCCBCAC913
:1003E000C7C6C5C3C2C1BFBEBCBBB9B8B6B4B3B142
:1003F000AFAEACAAA8A7A5A3A19F9E9C9A989694DD
:1004000092908E8C8A89878583817F7D7B797775B1
:1004100073716F6D6B6968666462605E5C5A595790
:10042000555351504E4C4A4947454342403E3D3B4F
:100430003A3836353332302F2D2C2A2928262523D9
:1004400022FFAA7F554000000000000000000000CD
:100450000001010203040506080A0C0F1114181C00
:100460002024292E33393F464C535B626A717981CF
:100470008A929AA2AAB2B9C1C8CFD5DCE1E7EBF063
:10048000F4F7FAFCFDFEFFFEFDFCFAF7F4F0EBE7F3
:10049000E1DCD5CFC8C1B9B2AAA29A928A8179719A
:1004A0006A625B534C463F39332E2924201C1814B2
:1004B000110F0C0A080605040302010100000000E8
:1004C0000000000000000001010101010101010123
:1004D00002020202020202020203030303030303F5
:1004E00003040404040404040505050505060606C2
:1004F0000606070707070708080808090909090A7F
:100500000A0A0B0B0B0C0C0C0D0D0D0E0E0E0F0F23
:100510000F101011111112121313141415151616B1
:100520001717181819191A1A1B1B1C1D1D1E1E1F20
:100530002020212222232424252626272829292A6F
:100540002B2C2D2D2E2F3031323233343536373897
:10055000393A3B3C3D3E3F40414243444546474893
:10056000494A4C4D4E4F50515354555658595A5B69
:100570005D5E5F616264656668696B6C6D6F707209
:10058000737577787A7B7D7E8082838587888A8C75
:100590008E8F91939596989A9C9EA0A2A3A5A7A9A9
:1005A000ABADAFB1B3B5B7BABCBEC0C2C4C6C9CBA0
:1005B000CDCFD1D4D6D8DBDDDFE2E4E7E9EBEEF056
:1005C000F3F5F8FAFDFF100350006F006C006100B6
:1005D00072006900730000002603610069003000AA
:1005E00033002000440065007300690067006E005E
:1005F0002000530074007500640069006F00000063
:100600000403090409023B00020100A0FA090400E6
:10061000000103010100092111010001224000072E
:1006200005810308000A0904010001030000000914
:10063000211101000122B6000705820320000A12E1
:100640000110010000000803A102000100010200E6
:100650000105010902A10185020901A1000509198D
:100660000129081500250195087501810205010978
:100670003009311581257F950275088106093815E5
:1006800081257F950175088106050C0A38021581C0
:10069000257F950175088106C0C005010980A1016B
:1006A000850319012AB700150126B70095017510B9
:1006B0008100C0050C0901A101850419012AA002CD
:1006C000150126A002950175108100C005010906DB
:1006D000A1018505050719E029E715002501950801
:1006E000750181020507190029EF1500250195F014
:1006F0007501810205081901290595057501910209
:10070000950175039101C005010906A101050719AD
:10071000E029E7150025019508750181029501750D
:100720000881010507190029FF150026FF0095061D
:1007300075088100050819012905950575019102C3
:10074000950175039101C00011241FBECFEFDAE0BF
:10075000DEBFCDBF04B603FE27C080916E0390912B
:100760006F03A0917003B09171038730904BA74045
:10077000B04BD1F410926E0310926F03109270037D
:100780001092710314BE84B7877F84BF0FB6F894AC
:10079000A89580916000886180936000109260004D
:1007A0000FBEE0E0F8E3099511E0A0E0B1E0EEE96A
:1007B000F0E602C005900D92A83DB107D9F723E0FD
:1007C000A8EDB1E001C01D92AE36B207E1F70E947C
:1007D0007A290C944D300C94000081E0089581E05A
:1007E00008950C94EF0308950C94F3031F93CF9393
:1007F000DF9300D000D01F92CDB7DEB749835A8374
:100800006B833091600289819A81311114C0662313
:1008100059F0222349F00E942324182F682F898140
:100820009A810E94CC2303C00E94F723182F69816C
:100830007A81812F04C00E94232469817A810F90DC
:100840000F900F900F900F90DF91CF911F910C940C
:10085000C904FC01262F408151816281738184810A
:100860000C94F603CF93DF93EC0160E00E9429041F
:10087000BE01DF91CF910C94F4030E94EB060E941D
:1008800016170C9428070C94240708950E94D81E6C
:100890000E9445042FEF84E39CE02150804090406B
:1008A000E1F700C000000C94D8270F931F93CF935B
:1008B000DF938C0161E00E942904EC01B8010E94E1
:1008C000F103882309F44BC0B801CE010E94F91549
:1008D000882309F444C0B801CE010E94CA178823B6
:1008E000F1F1B801CE010E941C188823C1F1B801B2
:1008F000CE010E944719882391F1B801CE010E94D0
:100900001014882361F1F8018281882309F1CB3525
:100910008DE5D807C1F050F4C115FCE5DF0781F083
:10092000CF3DDC45A9F40E94342619C0CC35EDE555
:10093000DE0761F0CD35DD4559F40E94B62408C0CC
:100940000E9446040CC00E94BF2402C00E94C22420
:10095000C801DF91CF911F910F910C94ED0380E0BE
:10096000DF91CF911F910F91089508950C94B504D4
:1009700081E008950C94B804CF93C82F0E94B60468
:100980008C2F0E94BA04CF91089580E090E00895E2
:10099000089526E4829FC0011124FC012EE0729F7D
:1009A000E00DF11D1124E60FF11DEE0FFF1FE857BA
:1009B000FE4F859194910895880F991FFC01E45D85
:1009C000FC4F859194910895CF93DF930E94C904C1
:1009D0000E94FC05EC018115904508F041C0C1154D
:1009E00080E4D80708F0D1C0C83ED10510F5C03E5C
:1009F000D10508F0FDC0C83AD10578F4C53AD10553
:100A000008F0A2C0C130D10509F4F2C008F4EEC06C
:100A1000C430D10508F0ECC0E9C0CF3BD10508F4E3
:100A20009BC0C03CD10508F4E1C0CE01805C9109B7
:100A30009EC0C11590E2D90758F4C11521E0D20734
:100A400008F0D6C0CD3ED10508F4D0C0D065D0C0E6
:100A5000C11580E3D80708F08EC0CE019F7087C013
:100A6000C11595E5D90708F043C0C11524E5D207A3
:100A700008F0A2C0C11582E5D80708F5C11591E5B7
:100A8000D90708F085C0CE0174E0969587957A95D0
:100A9000E1F783709C2F937021E030E002C0220FB9
:100AA000331F9A95E2F73C68382BCF70C695C695F0
:100AB00080E2C89FE0011124C22BD32B99C09E0174
:100AC000237033278C2F86958695C115D34508F062
:100AD00064C0C1E0D0E002C0CC0FDD1F2A95E2F770
:100AE00020E2829FC0011124C82BD92BDC6880C072
:100AF000C11529E5D207A0F4C11588E5D80708F08B
:100B000060C0C11596E5D90708F070C08C2F0E940F
:100B100090068F71C82FD0E0DC2FCC27D06268C040
:100B2000C1152AE5D20708F451C0CE0190568115AF
:100B3000904208F05BC08D2F8F710E949006DD27D8
:100B4000D0628F71D82B54C0C55AD0E0C55ADE4F41
:100B5000C881D0E0D0644CC0C85AD0E0CC0FDD1FB3
:100B6000C35DDE4F0990D881C02DD46441C00E947E
:100B7000DC04EC013DC0CE019927D3FF03C0EC019A
:100B8000D86C36C0EC01D06C33C0DF70D06A30C096
:100B9000DC2FCC27C16FD06A2BC0C1E0D0E002C0EF
:100BA000CC0FDD1F2A95E2F720E2829FC0011124BD
:100BB000C82BD92BDA681CC0DC2FCC27C46FD06AB5
:100BC00017C0DC2FCC27C06FD06A12C08C2F8F705B
:100BD0000E94900694E0D695C7959A95E1F7CF705C
:100BE000D0E0DC2FCC27D069C82B02C0C0E0D0E019
:100BF000CE01DF91CF9108958238910569F1B0F46B
:100C00008133910509F46DC048F48932910509F4E6
:100C100063C08A32910509F469C00895853391054E
:100C200009F455C089339105B9F00895833E9105C3
:100C300069F138F4803E9105B1F0823E910509F1E9
:100C40000895863E9105A9F1873E9105B9F1843E4C
:100C5000910509F064C023C02091170320FD4FC007
:100C600021FD4DC008958091170380FD44C08091FF
:100C7000180380FF44C08091170384FD42C083EEB7
:100C80004DC08091170382FF38C0F5CF80911703C4
:100C900082FD33C08091180380FD31C0ECCF80917C
:100CA000180381FF32C08091170384FD2AC087EEAC
:100CB00035C08091170383FF26C0F5CF80911703BD
:100CC00083FD21C08091180381FD1FC0ECCF80916E
:100CD000170385FD1CC01DC08091170385FD19C039
:100CE00016C08091170386FD16C017C080911703A8
:100CF00086FD13C010C089E311C082EE0FC080EEE4
:100D00000DC080E00BC086EE09C084EE07C089E20A
:100D100005C085E303C08AE201C081E390E0089545
:100D20009091170392FF0DC0282F2871283019F4D5
:100D3000877F846006C0282F2471243011F48B7FB4
:100D4000886093FF0DC0282F2871283119F4877E01
:100D5000846106C0282F2471243111F48B7E8861B0
:100D60002091180320FF0DC0382F3871383019F446
:100D7000877F816006C0382F3171313011F48E7F4A
:100D8000886021FF0DC0282F2871283119F4877E33
:100D9000816106C0282F2171213111F48E7E886176
:100DA00094FD877E08950C9486250E9473078FE337
:100DB0009CE90197F1F700C000000E94730780E0F2
:100DC0000E940F0780FF04C00E94D3060C94D8270E
:100DD00008950C94D5060E948C25811102C00E94B2
:100DE00034260E9497258093F3020E949F259093BA
:100DF0001803809317030E94E9060E949B25682F21
:100E000070E080E090E00E94CE226091C602709176
:100E1000C7028091C8029091C9020C940623E82F62
:100E2000F0E0EE0FFF1FED5DFC4F80819181089592
:100E3000089580EA8A95F1F7089500C008950C940A
:100E4000190708950C9421070C9422070C9421078C
:100E50000C942607F894E82FE295EF70F0E031A1AA
:100E6000282F2F7081E090E001C0880F2A95EAF7C3
:100E7000982F9095932391A392A1892B82A3789484
:100E800008950F931F93CF93DF9381E30E942A0766
:100E900082E30E942A0783E30E942A0780EF0E94D0
:100EA0002A0781EF0E942A07CEE5D1E00CE611E087
:100EB00089910E942A070C171D07D1F7E9E1F3E099
:100EC000A3E2B3E0119211921D921D9283E0E332EE
:100ED000F807C1F785E00E940108DF91CF911F91CB
:100EE0000F910C943D047F928F929F92AF92BF928C
:100EF000CF92DF92EF92FF920F931F93CF93DF93E6
:100F0000CCE6D1E089E1A82E83E0B82E93E2E92E69
:100F100093E0F92E712C01E010E06E018881F894C5
:100F2000E82FE295EF70F0E021A18F70A80102C0D8
:100F3000440F551F8A95E2F7CA01922F982B91A36F
:100F400092A18095892382A378940E941D07EEE5E3
:100F5000F1E020E030E0812C912C4191A42FA2956A
:100F6000AF70B0E090968C9190E04F7002C0959574
:100F700087954A95E2F780FD08C0C801022E02C09D
:100F8000880F991F0A94E2F702C080E090E0882A57
:100F9000992A2F5F3F4F2E303105F9F62196F60141
:100FA00080810E942A070E941F07F501808191819C
:100FB0008816990621F09182808281E001C080E04C
:100FC000782AF2E0AF0EB11CEA14FB0409F0A5CFB9
:100FD000272D45E063E273E089E193E00E94020877
:100FE0000E944304872DDF91CF911F910F91FF90B5
:100FF000EF90DF90CF90BF90AF909F908F907F90B9
:1010000008950895FF920F931F93CF93DF93F82EC7
:10101000092F162FD72FC42F222349F081E0809368
:10102000DC010E948B279093DB018093DA01809191
:10103000DC018823D9F08091DA019091DB010E94D4
:10104000A327069798F0EF2DF02FA12FBD2F80E05A
:1010500090E04C2F50E08417950734F421913191A2
:101060002D933D930196F7CF1092DC01DF91CF9144
:101070001F910F91FF900895833081F128F4813002
:1010800059F08230D1F00895853009F449C0B8F1A3
:10109000863009F456C0089580910B01262F30E068
:1010A000280F311D2F3F310524F4680F60930B0189
:1010B00008958FEF80930B01089580910A01262FE8
:1010C00030E0280F311D2F3F310524F4680F609365
:1010D0000A0108958FEF80930A0108958091090114
:1010E000262F30E0280F311D2F3F310524F4680FE3
:1010F0006093090108958FEF80930901089580910D
:101100000801262F30E0280F311D2F3F310524F430
:10111000680F6093080108958FEF80930801089588
:1011200080910501262F30E0280F311D2F3F31051A
:1011300024F4680F6093050108958FEF80930501F3
:10114000089580910401262F30E0280F311D2F3F94
:10115000310524F4680F6093040108958FEF8093A4
:1011600004010895833011F128F4813049F0823070
:1011700091F00895853081F120F18630C1F1089514
:1011800080910B01681720F4861B80930B01089552
:1011900010920B01089580910A01681720F4861BB4
:1011A00080930A01089510920A010895809109011F
:1011B000681720F4861B8093090108951092090195
:1011C000089580910801681720F4861B8093080118
:1011D000089510920801089580910501681720F480
:1011E000861B809305010895109205010895809152
:1011F0000401681720F4861B80930401089510925F
:10120000040108950F931F9341E050E060E070E007
:101210008A019B0104C0000F111F221F331F8A95F2
:10122000D2F7C901B8010E94CE221F910F910C94F0
:10123000D81E482F50E0FA013597EF33F10508F03A
:1012400060C0EA5AFF4F0C94462F0E94342655C0C6
:101250008091F302817F8E7F8093F30281E08093FF
:10126000DE0108950E94460448C08091F302982F41
:101270009095917090FB80F98093F30291113DC09D
:10128000897F877F10C08091F30281FB222720F99C
:1012900091E0922790FB81F98093F302992369F101
:1012A0008091F30281608093F30227C08091F30262
:1012B00082FB222720F991E0922790FB82F9ECCF64
:1012C0008091F30283FB222720F991E0922790FB83
:1012D00083F9E2CF0E94D81E8091170387FB222753
:1012E00020F991E0922790FB87F98093170305C0BE
:1012F000895301C08D510E94020981E0089580E068
:10130000FACF80E0089580E008950C9483098E510F
:101310008A3030F4E82FF0E0EF58FE4F80810895D6
:1013200080E00895CF93C82F8091DE01813051F085
:1013300018F0823099F17DC00E94C524823209F0F4
:101340007AC004C00E94C524823261F48C2F0E94AE
:101350008509811104C08C2F0E9419091DC081E0EC
:1013600090E01AC08C2F0E948309811114C0C431EF
:1013700079F048F4CB3079F0C03109F060C082E0F8
:101380008093DE0108C0C93219F0C83321F057C07C
:101390001092DE0154C081E0817053C0C93289F1DE
:1013A00018F5C43171F1B0F4C73009F046C08EE1D0
:1013B00080930B0182E380930A018AE08093090104
:1013C00084E18093080188E08093050188E280939E
:1013D000040133C082EE8C0F863078F58C2F0E948A
:1013E00087098093DD0129C0CE34E9F020F4CB34A5
:1013F00021F56AE013C0C13579F0C235F1F461E03E
:101400000DC08091DD01882319F01092DD0115C017
:1014100081E08093DE0115C061E006C08091DD01AE
:101420000E943C080AC06AE08091DD010E94B20877
:1014300004C01092DE0180E004C081E002C080E0C0
:10144000ABCFCF9108958091E50180FF0BC06091F3
:10145000090185E0689FB001112475956795759520
:1014600067952BC081FF09C06091090185E0689FE5
:10147000B00111247595679520C082FF07C0609167
:10148000090185E0689FB001112417C09091E40123
:101490009923D1F060910801961788F720910901EE
:1014A00085E0289F90011124929FA001939F500DE9
:1014B000112470E0CA010E94102F6038710540F4B9
:1014C0006115710519F406C065E070E0862F089576
:1014D0008FE7089581E008958091E50180FF08C0BD
:1014E0006091050170E0759567957595679521C0C8
:1014F00081FF06C06091050170E07595679519C080
:1015000082FF04C06091050170E010C09091E3017A
:10151000992399F0609104019617A0F78091050135
:10152000899FC001112470E00E94102F603871055E
:1015300040F46115710519F406C061E070E0862F72
:1015400008958FE7089581E008958D3E21F40E946B
:10155000230A819504C08E3E29F40E94230A8093B9
:10156000E90108958F3E21F40E94230A819504C069
:10157000803F29F40E94230A8093E8010895893F5F
:1015800019F40E946C0A05C08A3F31F40E946C0A6B
:1015900081958093EA0108958B3F21F40E946C0AA3
:1015A000819504C08C3F29F40E946C0A8093EB0162
:1015B00008959FE0980F983078F421E030E0A90179
:1015C00002C0440F551F9A95E2F7CA019091E701B6
:1015D000892B8093E70108958D3F21F48091E501E7
:1015E00081600BC08E3F21F48091E501826005C0CF
:1015F0008F3F29F48091E50184608093E50108958F
:101600008D3E39F49091E90197FF35C01092E901C0
:1016100059C08E3E29F49091E9011916BCF32BC0F4
:101620009091E8018F3E29F497FF25C01092E801C0
:1016300049C0803F19F41916CCF31DC09091EA01FE
:10164000893F29F41916BCF41092EA013BC08A3F85
:1016500019F497FF10C0F8CF8B3F39F49091EB014C
:1016600097FF09C01092EB012DC08C3F21F490919F
:10167000EB011916BCF39FE0980F983080F421E03D
:1016800030E0A90102C0440F551F9A95E2F7CA0144
:1016900080959091E70189238093E70113C08D3FE6
:1016A00021F48091E5018E7F0BC08E3F21F4809163
:1016B000E5018D7F05C08F3F29F48091E5018B7F87
:1016C0008093E5018091E801811106C08091E901D4
:1016D000811102C01092E4018091EA01811106C0DB
:1016E0008091EB01811102C01092E30108950E94E4
:1016F0008B272091E801211104C02091E9012223C8
:1017000021F09093E2018093E1012091EA012111FF
:1017100004C02091EB01222321F09093E0018093FB
:10172000DF0186EE91E00C94A319EF92FF920F93E4
:101730001F93CF93DF9300D000D000D0CDB7DEB79A
:1017400086E0E6EEF1E0DE01119601900D928A95B9
:10175000E1F7E090E801F090E9010091EA011091D1
:10176000EB011092E8011092E9011092EA01109247
:10177000EB01E11003C0FF2009F45DC08091E1019D
:101780009091E2010E94A327AC019091E40199237A
:1017900039F020910A0130E02417350758F04BC08A
:1017A00020910B018AE0289F90011124241735070E
:1017B00018F041C09F3F19F09F5F9093E401EE2025
:1017C00061F00E94230A1E1414F09FEF01C091E003
:1017D000989F902D11249093E801FF2061F00E94C2
:1017E000230A1F1414F09FEF01C091E0989F902DE1
:1017F00011249093E9013091E8013323E1F0209125
:10180000E9012223C1F045EB3403C00111249923DF
:1018100019F09093E80103C081E08093E80135EB73
:101820002303C0011124992319F09093E90103C007
:1018300081E08093E901011103C0112309F45DC027
:101840008091DF019091E0010E94A327AC0190916B
:10185000E301992339F02091060130E02417350780
:1018600058F04BC0209107018AE0289F9001112475
:101870002417350718F041C09F3F19F09F5F9093E0
:10188000E301002361F00E946C0A101614F09FEF30
:1018900001C091E0989F902D11249093EA011123AB
:1018A00061F00E946C0A111614F09FEF01C091E0E4
:1018B000989F902D11249093EB013091EA013323EE
:1018C000E1F02091EB012223C1F045EB3403C0018C
:1018D0001124992319F09093EA0103C081E08093C9
:1018E000EA0135EB2303C0011124992319F09093E9
:1018F000EB0103C081E08093EB018091E80181114D
:101900000BC08091E901811107C08091EA0181112A
:1019100003C08091EB0181110E94770BEB82FC8266
:101920000D831E8386E0FE013196A6EEB1E00190A4
:101930000D928A95E1F726960FB6F894DEBF0FBE9A
:10194000CDBFDF91CF911F910F91FF90EF90089540
:10195000E6EEF1E086E0DF011D928A95E9F710924C
:10196000E4011092E3011092E5010895EF92FF92D5
:101970000F931F93CF93DF938B01682F11110AC030
:10198000442329F0E82FF0E0EA53FB4F6491762FCF
:10199000862F75C0212F30E0E82FF0E0442321F09E
:1019A000EA53FB4FE491F0E046E0049FC0011124AC
:1019B000CFEFD0E0BE010E94FC2E4BEA4603C001EF
:1019C000479F900D1124800F911D800F911D982F1E
:1019D000990F890FAE01421B530B4E9FD0014F9FB1
:1019E000B00D5E9FB00D11249B2F189FA0011124F4
:1019F000452F55278E01041B150B0E9FA0010F9F2D
:101A0000500D1E9F500D11247E01E81AF108E29E30
:101A10008001E39E100DF29E100D1124212F33271B
:101A2000C21BD30BCE9F9001CF9F300DDE9F300D98
:101A3000112462307105A9F048F46115710569F04F
:101A400061307105C9F48B2F752F0DC0643071059D
:101A500081F058F06630710579F47E2F8B2F932F2B
:101A60000DC0832F7B2F9E2F09C08E2F7B2F952F8C
:101A700005C08E2F732F02C07E2F852F692FDF9117
:101A8000CF911F910F91FF90EF90089541E00E9438
:101A9000B60C089508950E94460D0895CF93DF93E4
:101AA000762FE901682F842F0E944B0D798368837C
:101AB0008A83DF91CF910895493C08F048EC0C945B
:101AC0004E0D80912D03282F269530E021153105EC
:101AD00019F48170826005C02B32310524F08170C9
:101AE000846580932D0380913003893C18F088EC45
:101AF00080933003089588E090E00C94EE2FCF920D
:101B0000DF92EF92FF926B017C010E94610DB701A1
:101B1000A60188E090E0FF90EF90DF90CF900C94CA
:101B20000C30EDE2F3E083E0808311828FEF82835B
:101B300088EC8383148260817181828193810C940B
:101B40007F0D80912D0380FF02C08695089580E06F
:101B5000089590913103933018F49F5F909331036F
:101B6000882351F060912D0370912E0380912F03F3
:101B7000909130030C947F0D089581E00C94A90D91
:101B800090913103992319F0915090933103882358
:101B900051F060912D0370912E0380912F0390914D
:101BA00030030C947F0D089581E00C94C00D70E01B
:101BB0000C942C176091100180912D0380FF0AC0B6
:101BC00080910F0123E0829FC00111248E5C9C4F05
:101BD0000C94D70D8091110190911201891780F713
:101BE000E82FF0E09F01220F331FE20FF31FEE5C9E
:101BF000FC4F1182108212828F5FF0CF90912D03E3
:101C000090FF16C09091110120911201921770F46B
:101C1000E92FF0E0DF01AA0FBB1FEA0FFB1FEE5C0C
:101C2000FC4F8183608342839F5FF0CF0C94DA0D79
:101C30000895CF93DF9300D01F92CDB7DEB7909178
:101C40002D0390FF0AC09E012F5F3F4F0E945C0D45
:101C50004B8169818A810E94FE0D0F900F900F9039
:101C6000DF91CF910895CF93DF93EC01EC81F0E009
:101C7000EF5BFC4F4491EDE2F3E0628181810E94D1
:101C8000190E8C818F5F8C83DF91CF910895CF9354
:101C9000DF93EC01EDE2F3E0438162818C810E94ED
:101CA000190E8C818F5F8C83DF91CF9108950F93F4
:101CB0001F93CF93DF9300D01F92CDB7DEB78C0177
:101CC0008091EC0181110AC09E012F5F3F4F48ECCB
:101CD0006FEF0E945C0D8A818093EC01F801848192
:101CE000813051F028F0823061F44091EC010AC05B
:101CF0008091EC0140E007C06091EC0140E080E0A1
:101D000003C040E080E060E00E94FE0DF8018481A5
:101D100090E0019663E070E00E94102F84830F90A2
:101D20000F900F90DF91CF911F910F910895AF9277
:101D3000BF92CF92DF92EF92FF920F931F93CF93B8
:101D4000DF9300D01F92CDB7DEB7182FF62E042FE9
:101D5000E22E90912D0390FF6DC0E92FE695AE2FF6
:101D6000B0E0A558BE4F8C9180933E029E7F92308A
:101D700061F49E012F5F3F4F812F0E945C0D4B81CC
:101D800069818A810E94FE0D43C0823019F400915E
:101D900030033EC0863019F410912E0339C08930CB
:101DA000D9F38931A9F5E9518E2F8170D82EE695A6
:101DB000F0E0EF5BFB4FA590B490C12CBB24609189
:101DC0001301C61618F52C2D30E0A29EC001A39E6B
:101DD000900DB29E900D112470E00E94FC2E812F78
:101DE000D11002C0860F01C0861B90911101290FEE
:101DF000311DA901440F551F240F351F2E5C3C4F88
:101E0000402F6F2D0E945C0DC394D9CF0E94DA0D34
:101E100010932E03F0922F0300933003EE2051F025
:101E200060912D0370912E0380912F0390913003C8
:101E30000E947F0D0F900F900F90DF91CF911F9117
:101E40000F91FF90EF90DF90CF90BF90AF900895EB
:101E5000EDE2F3E09181282F4381628188E0890FD0
:101E60000C94970E81E00C94280FEDE2F3E0918141
:101E7000282F4381628188EF890F0C94970E81E0AF
:101E80000C94350FEDE2F3E0628128E0620F08F474
:101E90006FEF282F438181810C94970E81E00C9481
:101EA000420FEDE2F3E0628128E0621B08F460E09B
:101EB000282F438181810C94970E81E00C94510F5F
:101EC000EDE2F3E0438128E0420F08F44FEF282FC2
:101ED000628181810C94970E81E00C94600FEDE299
:101EE000F3E0438128E0421B08F440E0282F6281A0
:101EF00081810C94970E81E00C946F0F20E00C947C
:101F0000970EFF920F931F93CF93DF93EC01F12C69
:101F10000FEF10E060911301F616F0F480911101BB
:101F20002F2D30E0280F311DC901880F991F280F70
:101F3000391F2E5C3C4F70E0C8010E94102F962F75
:101F40008C814091300360912F03F99E800D112404
:101F50000E945C0DF394DECF0E94DA0D9A818C8191
:101F600090FF02C08F5F01C081508C83DF91CF91C1
:101F70001F910F91FF900895AF92BF92CF92DF9281
:101F8000EF92FF920F931F93CF93DF93FC01828117
:101F900080FF02C00FEF01C001E010E04EE0A42E70
:101FA00080911301181708F043C080911101C12ED0
:101FB000D12CE601C80FD11DCE01880F991FC80F83
:101FC000D91FCE5CDC4F198218821A8234E0E32ECE
:101FD000F12CB12C8091EE018B0D8F302CF06A2DFD
:101FE0000E94EE2E892F05C087FF03C09091130138
:101FF000890F082E000C990BC816D90691F4809110
:1020000030038E9DA0018F9D500D1124559547954D
:10201000559547959E0160912F0380912E030E9454
:102020005C0DB00EF1E0EF1AF108A1F61F5FB8CF1A
:102030000E94DA0D8091EE01013031F4811102C06D
:1020400080911301815007C090E0019660911301C7
:1020500070E00E94102F8093EE01DF91CF911F91CD
:102060000F91FF90EF90DF90CF90BF90AF900895C9
:10207000CF938091110190911201891770F4E82F8C
:10208000F0E09F01220F331FE20FF31FEE5CFC4FC5
:102090001182108212828F5FF0CFC0E06091130135
:1020A000C617C0F5EC2FF0E070E0CF010E94102FB2
:1020B00020911101820F2091ED01022E000C330BB3
:1020C00090E0E217F307CCF020910E01022E000CF5
:1020D000330B2E173F078CF09C01220F331F820F0A
:1020E000931F9C012E5C3C4F4091300360912F0365
:1020F00080912E030E945C0D0BC0FC01EE0FFF1FB0
:102100008E0F9F1FFC01EE5CFC4F11821082128229
:10211000CF5FC4CF0E94DA0D20910D018091ED01B7
:10212000820F8093ED0190910E01920F90930E011A
:1021300019165CF4082E000C990B4091130150E025
:1021400041505109841795071CF0219520930D01EA
:10215000CF9108958F929F92AF92BF92CF92DF92CC
:10216000EF92FF920F931F93CF93DF938C01FC01AB
:102170004481C42FD0E09E01DE010E94542F9B01B8
:10218000AC010E946A2F6B017C01E0E2F0E0EC1BE5
:10219000FD0BA5E5B0E09B01AC010E946A2F4B014D
:1021A0005C019F01DF010E944C2F9B01AC010E944A
:1021B000752F9B01AC012C0D3D1D4E1D5F1DC501F2
:1021C000B4010E94242FC22FD22F2A3228F4F3E028
:1021D0002F9F900111240DC025E530E02C1B310903
:1021E000C901880F991F280F391F37FF02C02F5FC1
:1021F0003F4F35952795C22FC095F12C85E5E82EE8
:10220000ED1A80911301F816C8F4F1FC02C08E2D6E
:1022100001C08D2F909111012F2D30E0290F311D1C
:10222000A901440F551F240F351F2E5C3C4F4C2F26
:1022300060912F030E945C0DF394E3CF0E94DA0DAE
:10224000F8018481811102C091E003C0803219F449
:102250009FEF90930C0190910C01890FF8018483FA
:10226000DF91CF911F910F91FF90EF90DF90CF9072
:10227000BF90AF909F908F9008950F931F93CF932F
:10228000DF93EC0100E010E080911301282F30E093
:102290000217130724F5909111019801290F311DA0
:1022A000A901440F551F240F351F2E5C3C4F869506
:1022B00090E04C81081719071CF4442331F002C048
:1022C000411103C04091300301C040E060912F03F1
:1022D00080912E030E945C0D0F5F1F4FD5CF0E948F
:1022E000DA0D8C8190E00196817099278C83DF91C3
:1022F000CF911F910F9108957F928F929F92AF92ED
:10230000BF92CF92DF92EF92FF920F931F93CF93E2
:10231000DF93FC018280748081E08483E1E4F3E058
:102320009490E0ECF3E0E491A12CF5E0BF2ECC24F6
:10233000CA94D12CE9190E2F10E080911301A81630
:1023400008F0A2C0EA2CF12C22E0281568F0BE9C0F
:10235000F001BF9CF00D1124E151FE4F80912E033E
:10236000808380912F03818371100AC0BE9CF0018D
:10237000BF9CF00D1124E151FE4F138212826AC0FE
:10238000BE9CE001BF9CD00D1124C151DE4F8B815A
:102390008823F9F081508B832FEF829FC001112495
:1023A0006C8170E00E94FC2EFB01FF27EF5BFC4F6D
:1023B0008491E82FE9192FEFE29FC0011124B801A1
:1023C0000E94FC2E80913003689FB00111247A8313
:1023D00041C00E94C92F209130032695215830E03A
:1023E000A901440F551F322F2227240F351F232FF9
:1023F00033278217930774F582E0881588F40E94CA
:10240000C92FB6010E94102F88830E94C92F2091E6
:102410002F032695622F70E00E94102F280F29832A
:10242000BE9CF001BF9CF00D1124E151FE4F1282C1
:1024300080913003843120F0893C18F088EC01C091
:1024400084E1BE9CF001BF9CF00D1124E151FE4FD0
:1024500084838383809111019701280F311DC90165
:10246000880F991F280F391F2E5C3C4FBE9CF0012E
:10247000BF9CF00D1124E151FE4F428161818081AA
:102480000E945C0DA39459CFDF91CF911F910F91C2
:10249000FF90EF90DF90CF90BF90AF909F908F9084
:1024A0007F900C94DA0DEDE2F3E080818E7F8083E3
:1024B00060817181828193810E947F0D10923F0221
:1024C0002FEF80E792E0215080409040E1F700C07C
:1024D00000000C94DA0DEDE2F3E080818E7F8083C2
:1024E00010923F022FEF80E792E021508040904011
:1024F000E1F700C000000C94DA0D10923F028091C9
:102500003C0281110AC081E080933C0280912D033E
:10251000817080933B020C946B12089560912D039F
:10252000669570E04BE050E084E191E00E94D92F85
:10253000892B19F481E080933F020E948B279093AE
:10254000360280933502089590912D0390FF35C097
:102550009170811102C0926006C08B3210F09465B8
:1025600002C0880F982B90932D03662351F0609141
:102570002D0370912E0380912F03909130030E94C0
:102580007F0D60912D03669570E04BE050E084E193
:1025900091E00E94D92F892B19F010923F0202C0BE
:1025A0000E948E1281E08093380240913003609146
:1025B0002F0380912E030C947E0F0895682F909125
:1025C0002D03969581E0890F8B3208F081E00C9401
:1025D000A41281E00C94DE12682F90912D03969541
:1025E0008FEF890F09F48AE20C94A41281E00C9415
:1025F000EC1261E00C94A412EDE2F3E080818160C2
:10260000808386950C94F91280912D0380FD0C94A3
:1026100053120C94FC1260E00C94A41280913D02C1
:1026200081112EC00E948C25811104C00E94342685
:102630000E94910D0E947B0D60932D0370932E03D9
:1026400080932F03909330036E7F61F40E94910D6D
:102650000E947B0D60932D0370932E0380932F03B4
:10266000909330030E94610D10923F0280912D03E0
:1026700080FF03C086950E940B1381E080933D028A
:102680000895EDE2F3E080818160808386950C946B
:102690000B1310923C0280913B0281110E94411366
:1026A0000C948E120F931F93CF93DF9380913F0270
:1026B000882309F495C080913E02E0912D03E695B0
:1026C000E81BE0933702823049F4F0E0E35CFC4F12
:1026D000E491CE2FD0E003E31EE059C0863049F4E8
:1026E000F0E0E65CFC4FE491CE2FD0E007E41EE082
:1026F0004EC0893051F4E695F0E0E95CFC4FE4917E
:10270000CE2FD0E001E81FE042C08F3051F4E695B3
:10271000F0E0EC5CFC4FE491CE2FD0E00CEB1FE03E
:1027200036C0853149F4F0E0EF5CFC4FE491CE2FE8
:10273000D0E008E310E12BC08831D9F0833239F4BE
:10274000EFE2F3E0C591D49107E51EE020C08432AA
:10275000A9F08532C1F48E2F63E00E94E22EE92FAA
:10276000F0E0E45DFC4FE491CE2FD0E00CE711E106
:102770000EC0C8E2D0E00AEA10E109C0C4EFD1E01F
:102780000DE311E104C0C0EDD7E00AE41DE0809143
:102790003802882361F0109238020E948B279093B0
:1027A00036028093350210923A02109239020E944A
:1027B0008B27E0913502F09136028E1B9F0B8F3FE5
:1027C0009F4770F4EC0FFD1FF0933602E093350243
:1027D00085E392E0F801DF91CF911F910F91099469
:1027E000DF91CF911F910F910895882311F0FA0185
:1027F00001C0FB010994CF93DF93C82FD62F0E940D
:10280000A10D8C1740F00E94A10D8D1720F4DF91CF
:10281000CF910C94E9128C2FDF91CF910C94F91287
:102820001F93CF93DF93FB011281112309F4C1C0E1
:10283000EC010E94C5248272CD3CFCE5DF0709F45F
:102840009BC008F043C0C73CECE5DE0709F480C03C
:10285000D8F4C43C9CE5D90709F46DC038F4C33CF6
:10286000DC4509F0A7C00E9404136BC0C53C9CE581
:10287000D90709F468C0C63CDC4509F09BC04FE3AA
:102880005FE062E37FE05BC0CA3CFCE5DF0709F480
:1028900069C070F4C83CECE5DE0709F45EC0C93CD1
:1028A000DC4509F087C04EE45FE06DE57FE047C09E
:1028B000CB3C9CE5D90709F45AC0CC3CDC4509F077
:1028C00079C044ED5DE06DEB7DE039C0C23DFCE5D3
:1028D000DF0709F45EC098F4CF3C9CE5D90709F402
:1028E00052C008F44EC0C03DFCE5DF0709F44EC0FD
:1028F000C13DDC4509F05EC06EE089E057C0C53DD2
:102900009CE5D90709F44BC058F4C33DFCE5DF074B
:1029100009F442C0C43DDC4509F04CC088E143C025
:10292000C63D9CE5D907F1F1CE35DD4509F042C041
:102930006AE285E23BC046EF52E169EE72E10E9435
:10294000F51310E037C049EE52E166EF72E1F7CFC0
:1029500042E35FE06FE37FE0F2CF4DE55FE06EE4DE
:102960007FE0EDCF4BE75FE06CE67FE0E8CF4CE641
:102970005FE06BE77FE0E3CF4DEB5DE064ED7DE092
:10298000DECF81E010C065E082E010C068E086E044
:102990000DC064E18FE00AC067E185E107C062E233
:1029A00089E104C083E20E94F912CBCF0E94FB139D
:1029B000C8CF11E0812FDF91CF911F91089586E05C
:1029C00090E00C94E62F682F86E090E00C94FA2FAC
:1029D00080915C038470896280935C030C94E3149F
:1029E00080915C03869586958695089580915C0319
:1029F00081FD07C0826080935C030E94E3140C9405
:102A00009216089580915C0381FF07C08D7F8093AB
:102A10005C030E94E3140C949E16089580915C035D
:102A200081FD0C9402150C94F61480915C0386953C
:102A30008170089580911F0108950E948C25811155
:102A400004C00E9434260E94E8140E94DF14809380
:102A50005C03282F26952695269530E026303105F3
:102A600024F08770886280935C0380915C0380FF10
:102A700004C086958695869501C080E00C94611609
:102A800020915C03822F869586958695482F50E08D
:102A90004530510554F48F5F982F990F990F990F76
:102AA000822F8770892B80935C0380915C03816007
:102AB00080935C030E94E31480915C038695869565
:102AC00086950C94611680915C03982F9695969547
:102AD0009695A1F0915E990F990F990F8770892BA8
:102AE00080935C03887F91E009F490E080915C031F
:102AF00090FB80F980935C030E94E31480915C0357
:102B00008695869586950C94611680915C0380FD70
:102B100013C0816080935C03813019F489E0809355
:102B20005C0380915C030E94E31480915C038695B2
:102B3000869586950C946116089580915C0380FFBC
:102B400008C08E7F80935C030E94E31480E00C94A5
:102B50006116089580915C0380FD0C949D150C9482
:102B6000851590915C03892F8695869586958F5F54
:102B70008F719770863038F4880F880F880F892BF3
:102B800080935C0302C090935C0380915C03887F18
:102B900091E009F490E080915C0390FB80F98093D0
:102BA0005C030E94E31480915C038695869586956C
:102BB0000C946116863008F085E090915C03977064
:102BC000282F220F220F220F922B90935C03987FC5
:102BD00021E009F420E090915C0320FB90F99093B0
:102BE0005C030C9461160E94DA1580915C030C94CE
:102BF000E314FC01DB0112968C918823F9F0EC5B65
:102C0000FC45E730F105D8F4EB56FF4F0C94462F06
:102C100085E001C080E00E94F31580E008950E94E5
:102C20006315FBCF0E944015F8CF0E94AA15F5CF7F
:102C30000E94B115F2CF0E940E15EFCF81E00895EA
:102C4000279A2F9808952F980895CF92DF92EF92A8
:102C5000FF928C3724E1920728F469E070E00E942B
:102C6000FC2E29C0A0E0B0E08A50974DAF4FBF4F77
:102C70006627782F892F9A2F25EF38E241E050E020
:102C80000E94242F69017A01CA01B9010E94D22E43
:102C90009B01AC01C701B6010E94D22EBB27A92F10
:102CA000982F872F009721E0A207B10511F0BC01F2
:102CB00002C06FEF7FEFCB01FF90EF90DF90CF90DE
:102CC0000895CF93C82F863050F4811109C08091A8
:102CD0008000877F809380000E94231606C0C5E095
:102CE000809180008860809380002C2F30E0AFEFCF
:102CF000BFEF0E94542F25E030E040E050E00E94FA
:102D0000242FB42FA32F922F8827892F9A2FAB2FF0
:102D1000BB270E94251690938D0080938C00CF9145
:102D200008950895109241021092400210924202BA
:102D3000EFE6F0E08081816080830895EFE6F0E0C7
:102D400080818E7F80830E94F0140C9461161F9204
:102D50000F920FB60F9211242F933F934F935F93CF
:102D60006F937F938F939F93AF93BF93CF93EF9383
:102D7000FF930E941A1540914002509141024F5F0B
:102D80005F4F94EF899F90011124CA01B9010E94FD
:102D9000FC2E9093410280934002B901660F672F89
:102DA000661F770B71950E94FC2E6F77809142020F
:102DB000823019F4603451F404C0813039F46F3733
:102DC00029F480916F008E7F80936F00E62FF0E0F2
:102DD000EA5BFB4FC4910E94F014282F41E051E0C0
:102DE000C49FC001C59F900D112465E070E00E9452
:102DF000FC2E269FC001279F900D11240E942516AE
:102E000090938D0080938C00FF91EF91CF91BF91B3
:102E1000AF919F918F917F916F915F914F913F9172
:102E20002F910F900FBE0F901F9018950E942016A3
:102E30008AE08093800089E1809381008FEF9FEF8B
:102E400090938700809386000E941D150E9415159F
:102E500081110C9492160895529A2BB12B7F3BB19D
:102E600034604FB7F894FC01CB01880F991F680FAD
:102E7000791F6E0F7F1FE617F70789F0819198E0A1
:102E80003BB9000000C087FF2BB9880F000000C0CD
:102E900000C000C02BB900C09A9591F7ECCF4FBF8E
:102EA0008FE594E00197F1F700C0000008950F93BB
:102EB0001F93CF93DF93C42FD22FFC0182818823ED
:102EC000C9F0409345020E948B279093440280935F
:102ED000430280E28C0F883008F057C0C77081E051
:102EE00001C0880FCA95EAF7DF91CF911F910F912A
:102EF0000C944B1C80914502481330C080914302D2
:102F0000909144020E94A327883C910538F510E275
:102F10001D0FCD17B9F080E28C0F883040F4C770D8
:102F200081E001C0880FCA95EAF70E94521C183050
:102F300028F581E09D2F977001C0880F9A95EAF7D8
:102F40000E944B1C802F0E94421C1830F0F4D77056
:102F500081E001C0880FDA95EAF70AC080E28C0FA1
:102F6000883098F4C77081E001C0880FCA95EAF7ED
:102F7000DF91CF911F910F910C94521C802FDF9104
:102F8000CF911F910F910C94421CDF91CF911F9113
:102F90000F9108950F939C01CB01243F4CE534071A
:102FA00031F188F4293DFCE53F07D9F02A3D4CE595
:102FB000340779F1283D3C45A9F506E221EE41EEC2
:102FC00068ED7CE52BC0263FFCE53F07E1F0A8F06B
:102FD000273F3C4539F507E225EE46EE67EF7CE5F5
:102FE0001DC007E225EE45EE69ED7CE517C006E25F
:102FF00021EE40EE64EF7CE511C007E225EE44EEE1
:1030000065EF7CE50BC006E221EE42EE66EF7CE563
:1030100005C008E221E045EE6AED7CE50E94571705
:1030200080E008C0FC018281882319F010924502DB
:1030300001C081E00F910895CF93DF93EC01FB0174
:103040008281882309F41FC1C230FCE5DF0708F440
:103050001BC1C6319CE5D90738F09E012B5F3C456A
:103060002930310508F010C10E949F259093180364
:1030700080931703C031ECE5DE0709F4C3C008F004
:1030800041C0C8308CE5D80709F49AC0F0F4C430C8
:10309000ECE5DE0709F487C068F4C2308CE5D80798
:1030A00009F477C0C330DC4509F0E3C08091170311
:1030B000826076C0C630ECE5DE0709F46EC008F029
:1030C0007BC08091170388606BC0CC308CE5D8073B
:1030D00009F485C068F4CA30ECE5DE0709F474C071
:1030E00008F079C00E94D81E80911703806858C0EC
:1030F000CE308CE5D80709F476C008F07FC0809107
:1031000017038BC0CC3FECE5DE0709F44FC018F580
:10311000C3318CE5D80709F47DC078F4C131ECE502
:10312000DE0709F473C0C231DC4509F0A2C00E9479
:10313000D81E809117038F7733C0C5318CE5D8072F
:1031400009F472C008F486C0CB3FDC4509F091C099
:10315000809118033EC0C115FDE5DF0709F45FC08B
:1031600058F4CE3F9CE5D90709F444C008F43FC0A9
:103170008091180382602DC0C230FDE5DF0709F49D
:1031800075C008F45DC0C330DD4509F072C080E051
:103190006EC080911703816003C080911703806126
:1031A0008093170366C08091170311C080911803A4
:1031B0008260809318035DC0809117038062F0CF16
:1031C000809117038064ECCF80911703886084603E
:1031D000E7CF8160EECF809117038E7FE1CF8091A2
:1031E00017038D7FDDCF80911703877FD9CF809123
:1031F000180318C0809118038D7FDBCF80911703CF
:103200008F7ECECF809117038F7DCACF8091170319
:103210008F7BC6CF80911703877F8B7FC1CF809133
:1032200018038D7F8E7FC5CF8091170382FB2227E5
:1032300020F991E0922790FB82F990FB83F9B0CFBF
:1032400080911803982F909591708E7F892B90FB19
:1032500081F9AFCF0E94D81E8091170387FB2227E8
:1032600020F991E0922790FB87F99ACF81E00E94A4
:10327000362680911703909118030E94B0250E9472
:10328000D81E80E001C081E0DF91CF910895CF93F7
:10329000DF9386319C4541F5EB010E94C524982FB0
:1032A0008A812091200130912101882379F09A7A36
:1032B00081E009F480E080934602911102C069E246
:1032C00001C065E3C9010E94D1260AC0809146026F
:1032D000811102C069E201C065E3C9010E94DC26D8
:1032E0000E94172580E001C081E0DF91CF91089511
:1032F00090934C0280934B020895E0914B02F09121
:103300004C02309721F00190F081E02D099480E08B
:103310000895E0914B02F0914C02309799F0209182
:103320002C01222359F02091170327FF07C0DC014D
:103330002C9111962C93119725E02C930280F38108
:10334000E02D09940895E0914B02F0914C023097E2
:1033500039F022E0DC012C930480F581E02D099402
:1033600008952091490230914A022817390771F0D7
:1033700090934A0280934902E0914B02F0914C02F3
:10338000309721F00680F781E02D0994089520916F
:103390004702309148022817390771F0909348028C
:1033A00080934702E0914B02F0914C02309721F05C
:1033B0000084F185E02D099408950E949727609379
:1033C0005C0270935D0280935E0290935F02609353
:1033D00058027093590280935A0290935B020895A9
:1033E00085B7806885BF85B7806885BF089581E00F
:1033F00008950C94F71908950C94FB190C94FB197B
:103400000C94FE190C94FB190C94021A0C94FB19E1
:103410000E94F01984E895E20E94FC270E94061A97
:103420000C94041A0E94FC190C94FB190E94822728
:103430000E9441070E941D150E940E130C94001A51
:103440006F927F928F929F92AF92BF92CF92DF92B4
:10345000EF92FF920F931F93CF93DF93CDB7DEB719
:103460002A970FB6F894DEBF0FBECDBF0E94730738
:1034700081110E94DD193EE4832E32E0932E00E09C
:1034800010E0C02E802F0E940F075C01F4016190B4
:1034900071904F016826792661147104B1F40F5FB1
:1034A0001F4F0530110569F78FEF89838A831B82CF
:1034B0000E948B278160782F9D838C8349815A815C
:1034C0006B818D810E94DA1A3AC08091F30281FDEE
:1034D0000E941807D12CEE24E394F12CC3018E2115
:1034E0009F21892B29F10E94F9198823A9F0DE82F6
:1034F000CF82AE20BF2081E0AB2809F480E088872E
:103500000E948B278160782F9A8789874E815F81FF
:1035100068858A850E94DA1A000F111FF801E25BA4
:10352000FD4F80819181E826F926F182E08207C073
:10353000D394EE0CFF1CFEE0DF12D0CFB0CF0E9480
:1035400052130E9491160E94950B0E947D19909132
:103550004D028917D1F00E947D1980934D022A9661
:103560000FB6F894DEBF0FBECDBFDF91CF911F9194
:103570000F91FF90EF90DF90CF90BF90AF909F9012
:103580008F907F906F900C94BC042A960FB6F8949D
:10359000DEBF0FBECDBFDF91CF911F910F91FF9086
:1035A000EF90DF90CF90BF90AF909F908F907F90E3
:1035B0006F900895DF92EF92FF920F931F93CF9336
:1035C000DF93CDB7DEB72B970FB6F894DEBF0FBEF3
:1035D000CDBFF42E052F162FE72ED82E61110E9495
:1035E000E524FE01319686E0DF011D928A95E9F718
:1035F0007E2D4F2D502F612F8D2D9E810E94912168
:103600002B960FB6F894DEBF0FBECDBFDF91CF91E2
:103610001F910F91FF90EF90DF900895FC01808142
:1036200091810E9465240895CF93882309F4A9C04D
:10363000C82F8238C1F40E947D1981FDA2C069E3C0
:1036400080912001909121010E94D1260E9417258E
:103650002FEF81EE94E0215080409040E1F700C0D0
:10366000000069E319C0833801F50E947D1980FDCF
:1036700088C063E580912001909121010E94D126AC
:103680000E9417252FEF81EE94E02150804090405A
:10369000E1F700C0000063E58091200190912101D5
:1036A0000E94DC26CF910C9417258438C1F40E9427
:1036B0007D1982FD66C067E480912001909121010F
:1036C0000E94D1260E9417252FEF81EE94E0215011
:1036D00080409040E1F700C0000067E4DDCF8CEF50
:1036E0008C0F813AF8F48C2F0E949209811149C005
:1036F0006C2F80912001909121010E9451268823F6
:1037000049F06C2F80912001909121010E94DC26CC
:103710000E9417256C2F80912001909121010E9419
:10372000D126C0CF80E28C0F883048F4C77081E08A
:1037300001C0880FCA95EAF70E94C824B3CFEBE511
:10374000EC0FE33040F4F0E0EC52FE4F808190E06B
:10375000CF910C94B119E8E5EC0FE73150F4F0E0AB
:10376000EE0FFF1FEA55FE4F80819181CF910C949F
:10377000C719CD3E30F08C2F0E94A50ACF910C9432
:10378000770BCF910895882309F464C0823879F4C7
:103790000E947D1981FF5EC069E3809120019091B4
:1037A00021010E94D1260E94172569E310C08338A9
:1037B000B1F40E947D1980FF4DC063E58091200126
:1037C000909121010E94D1260E94172563E58091E6
:1037D0002001909121010E94DC260C941725843849
:1037E00079F40E947D1982FF35C067E48091200141
:1037F000909121010E94D1260E94172567E4E7CF0E
:103800009CEF980F913A10F4682FE1CF90E2980F57
:10381000983050F4877091E001C0990F8A95EAF7CB
:10382000892F0E94CE24D9CF9BE5980F933020F4A6
:1038300080E090E00C94B11998E5980F973120F44E
:1038400080E090E00C94C7198D3E20F00E94000BA0
:103850000C94770B08951F93CF93DF93182FEB01F0
:103860000E94141B209741F08FE99FE00197F1F728
:1038700000C000002197F6CF812FDF91CF911F91DB
:103880000C94C31B893319F060E070E002C060E55E
:1038900070E00C942B1C882321F00E94C8240C9407
:1038A00017250895882321F00E94CE240C94172513
:1038B0000895CF92DF92EF92FF920F931F93CF93D1
:1038C000DF937C01062FC72FFC01D2811581129551
:1038D0001F700E949D24882399F0DD2389F08C2F8E
:1038E000807F803421F080E2800F883048F082E0D1
:1038F0000E9467250E949D2491E0D82ED92601C000
:10390000D12CCC2EC2948FE0C8228C2D90E0FC01EB
:10391000E456FF4F0C94462F8C2F807FCF70882366
:1039200011F0C295C07FDD2399F0CC2309F48DC13D
:1039300080E2800F883010F0011104C08C2F0E94AB
:10394000C82403C08C2F0E94D8240E9417257DC153
:10395000802F0E94C31BCC2309F49CC180E2800FFE
:10396000883010F0011104C08C2F0E94CE2403C0B7
:103970008C2F0E94DE240E9417258CC18C2F807F03
:10398000CF70803211F0C295C07F002319F0013052
:10399000C9F022C0DD2371F0112341F0113031F460
:1039A0000E94F8248C2B0E94002574C10E94F824E8
:1039B0008C2B1DC0112319F0113009F46BC10E942A
:1039C0000D2525C0DD2321F0163008F063C10EC09F
:1039D000153008F05FC11BC0DD2361F0112331F009
:1039E000F701858180FF31C18F7085838C2F0E9404
:1039F0004B1C50C1112359F0093309F037C1FFEFB7
:103A000027EE83E0F15020408040E1F72DC18C2F5C
:103A10000E94521C3FC18C2F86958695837019F0A9
:103A2000813061F037C1DD2321F0802F9C2F93700E
:103A300002C080E090E00E94B11934C1DD2321F082
:103A4000802F9C2F937002C080E090E00E94C719E5
:103A500029C1802FDD2319F00E94A50A02C00E940F
:103A6000000B0E94770B1EC18C2F837009F045C09C
:103A7000D11114C1402F429546954770440F440F11
:103A8000602F6F70862F90E0A0E0B0E0042E04C09D
:103A9000880F991FAA1FBB1F0A94D2F704FF10C0FA
:103AA0000FE010E020E030E004C0000F111F221FE3
:103AB000331F4A95D2F7009510952095309503C095
:103AC00000E010E09801C695C695C370BC01CD0119
:103AD000602B712B822B932BC23049F058F4C130EC
:103AE00019F00E94E222DAC00E94D022D7C00E94C0
:103AF000F422D4C00E94CE22D1C0DD2319F08C2F35
:103B0000817001C08695882309F4C8C0402F429572
:103B100046954770440F440F602F6F70862F90E0DA
:103B2000A0E0B0E0042E04C0880F991FAA1FBB1F9D
:103B30000A94D2F704FF10C00FE010E020E030E05C
:103B400004C0000F111F221F331F4A95D2F70095A2
:103B500010952095309503C000E010E09801C695BF
:103B6000C695C370BC01CD01602B712B822B932BAA
:103B7000C23049F058F4C13019F00E94A7238EC01A
:103B80000E9495238BC00E94B92388C00E940823FD
:103B900085C0CF70DD2339F08C2F0E942E23802F1B
:103BA0000E944B1C7BC0802F0E94521C8C2F0E94B5
:103BB0004F2374C0023F01F128F4003F41F0013F60
:103BC000A1F03FC0033FF9F0043F39F13AC0DD23D3
:103BD00041F0153008F05EC08C2F8F710E94742365
:103BE00059C0163008F056C0F7CFDD2339F08C2FBE
:103BF0008F710E942E234EC0DD23C9F38C2F8F714D
:103C00000E944F2347C0DD2329F08C2F8F710E9423
:103C1000192340C00E9414233DC0DD2349F0CF7119
:103C20008C2F0E942E2363E08C2F0E944C2532C0E3
:103C300081E00E946725123068F182E00E946725CA
:103C400029C0DD2331F0112391F2802F0E94141B33
:103C500021C0112399F2093349F49FEFE7EEF3E015
:103C60009150E040F040E1F700C00000802F0E943A
:103C7000C31B10C04C2F4F70602FC7010E94C5049A
:103C80000E943F220FC04C2F4F70602FC7010E942F
:103C9000C80408C088EF8C0D843020F40E947D1980
:103CA0000E94BC04DD20C9F00E94992480FD15C04B
:103CB000F70112820E9493240E942E23C7010E94C2
:103CC0008E1E0E949324DF91CF911F910F91FF9040
:103CD000EF90DF90CF900C944F23DF91CF911F9105
:103CE0000F91FF90EF90DF90CF9008950F931F9367
:103CF000CF93DF93EC01688179818A810E947024DF
:103D00008C010E94CB230E94BC22B801CE010E94EC
:103D1000591CDF91CF911F910F910895CF93DF939D
:103D2000EC01988189812B813C81232B31F08F3FDD
:103D300031F481E09F3F19F403C081E001C080E0CD
:103D400080FD19C0CE010E94550481110CC00E9453
:103D50009D24882381F08A81882369F082E0DF91A5
:103D6000CF910C946725CE010E94761ECE01DF9183
:103D7000CF910C943204DF91CF91089580E090E0D0
:103D80000E94B11980E090E00E94C7190E94E524CA
:103D90000E94F5240E9417250E94A80C0C94770B12
:103DA00080912001909121010E94E7260C94BE1E73
:103DB0000E94D5240C94D01EE92FE295EF704E2F6F
:103DC00050E0FA013297EE30F105B0F4E455FF4FC0
:103DD0000C94462F803F91F018F4883E68F40EC092
:103DE000843F51F40BC0883E48F0813F29F406C05F
:103DF00093FB882780F9089580E0089581E0089575
:103E00000E9465240E94DC1E0895CF93DF9300D0AA
:103E100000D01F92CDB7DEB70F900F900F900F908C
:103E20000F90DF91CF910895CF93DF9300D000D012
:103E300000D0CDB7DEB726960FB6F894DEBF0FBE22
:103E4000CDBFDF91CF9108951F93CF93DF93C091A2
:103E5000610216E080916202C81799F0D0E01C9FC1
:103E6000F0011D9FF00D1124ED59FD4F408151814E
:103E700062817381848195810E94141F2196C7708D
:103E8000E9CFDF91CF911F91089540919302509116
:103E900094026091950270919602809197029091A0
:103EA00098020C94141F0F931F93CF93DF9380916C
:103EB000980282958F7009F05DC0809195028823E9
:103EC00009F458C0809161021091620260919302DE
:103ED00070919402C0919602D091970291E06F3F49
:103EE00009F090E0292F06E0811709F443C02097DC
:103EF00021F07F3F21F030E003C031E001C0322FDC
:103F000090E030FD34C0089FF001099FF00D1124AE
:103F1000DF01AD59BD4F11963C911197371327C062
:103F20003C91361324C012963C91129731111FC058
:103F300013964D915C9114974C1B5D0B483C5105B9
:103F4000B0F4809198028F70806180939802E85954
:103F5000FD4F80818F708061808383E992E00E94B1
:103F60008E1EDF91CF911F910F910C94241F01960B
:103F70008770BACFDF91CF911F910F9108959F92D3
:103F8000AF92BF92CF92DF92EF92FF920F931F9367
:103F9000CF93DF93CDB7DEB761970FB6F894DEBF4E
:103FA0000FBECDBF8C0185E0F801DE011D960190AA
:103FB0000D928A95E1F7F80140815181E28090915C
:103FC00093026091940220919602309197022115FC
:103FD000310531F06F3F31F481E09F3F19F403C0A8
:103FE00081E001C080E0F82FF1709F2E80FD46C176
:103FF000F801A380B48083E9C82E82E0D82EF09027
:104000009502F501E21BF30BFF2009F4DFC080915C
:104010009802E83CF10508F09BC0282F207F09F0AA
:1040200052C0561313C0491311C0FE2CE1100EC02C
:104030008F708061809398020E94451FC6010E9484
:104040008E1E80919802F801858358C1AB2831F00B
:104050005F3F31F481E04F3F19F403C081E001C0BC
:1040600080E080FD03C081E08E2502C080E090E00A
:10407000F82FF170FF2E80FF1CC08091610220910B
:10408000620236E0821709F417C190E0389FF00110
:10409000399FF00D1124ED59FD4F6181561306C073
:1040A0006081461303C06281E61203C001968770E7
:1040B000E9CFFE2CEE2009F421C1809198028160A5
:1040C000809398025AC0561306C0491304C0E110E9
:1040D00002C0F8019FC04D875E878D859E850E9436
:1040E000001F882379F1EE2069F120919802822F38
:1040F00082958F7090E0029774F080919302909176
:10410000940298878F831986BB86AA862C87CE0156
:1041100007960E948E1E86E0F801A3E9B2E00190A6
:104120000D928A95E1F70E94531F0E94451F0DC012
:10413000561729F14D875E878D859E850E94001F49
:1041400081112CC0C8010E948E1EFF24F394D6C09A
:10415000282F207F69F77A2DB98AA88A6E2D898940
:104160000E94051F83E992E00E948E1E86E0F60100
:1041700011928A95E9F70E94451FF12CBFC049139F
:10418000D9CFE110D7CFF8018583C8010E948E1ED8
:1041900086E0F60111928A95E9F7B0C0EE2091F21F
:1041A00020919802822F82958F7090E002970CF4F4
:1041B000B2CF80919302909194029A8389831B825B
:1041C000BD82AC822E83CE010196A3CFE83CF105DF
:1041D00008F047C0FE2CEE2009F4B4CF561330C0CF
:1041E00049132EC02091980220FD21C0822F829574
:1041F0008F70482F50E041155105C9F0F801258313
:104200004F30510541F08F5F982F9295907F822F0C
:104210008F70892B8583C8010E948E1E86E0F8016D
:10422000A3E9B2E001900D928A95E1F742C086E0E1
:10423000F801A3E9B2E001900D928A95E1F75EC022
:104240004D875E878D859E850E94001F811163CFFB
:1042500080919802816080939802C8010E948E1E0E
:104260004DC07A2DB98AA88A6E2D89890E94051FB2
:1042700086E0F60111928A95E9F71BC0EE2009F459
:1042800061CF4D875E878D859E850E94001FF82E29
:10429000882309F457CF86E0F801A3E9B2E0019042
:1042A0000D928A95E1F783E992E00E940E1B0E942D
:1042B000531F0E94451F22C04D875E878D859E85B6
:1042C0000E946524292F22952F70223028F49F7098
:1042D00039F0811105C00BC0243028F49F7049F4D7
:1042E000805E883020F0C8010E948E1E9F2CF92C21
:1042F00005C0F8019581907F99F7F9CF8F2D6196D0
:104300000FB6F894DEBF0FBECDBFDF91CF911F91E6
:104310000F91FF90EF90DF90CF90BF90AF909F9064
:1043200008951F93CF93DF93CDB7DEB72C970FB6C9
:10433000F894DEBF0FBECDBF4F83588769877A8759
:104340008B879C87CE0107960E94BF1F8823D1F0E0
:104350009F8188852A853B85232B31F08F3F31F45F
:1043600081E09F3F19F403C081E001C080E080FD3F
:1043700047C04F81588569857A858B859C850E94C9
:10438000141F3EC086E0FE013796DE0111960190B3
:104390000D928A95E1F7FF81E8856A857B85611535
:1043A000710531F0EF3F31F481E0FF3F19F403C0B4
:1043B00081E001C080E080FD23C02091620230E0F6
:1043C000C9010196877099274091610250E08417D6
:1043D0009507F1F1F983EA837D836C8396E0929FE0
:1043E000D001939FB00D1124AD59BD4FFE01319600
:1043F00001900D929A95E1F7809362020E94241F2A
:1044000016E08091610290916202891771F1189F04
:10441000C00111248D599D4F0E94BF1F882329F18F
:10442000E09161021E9FF0011124ED59FD4F408182
:10443000518162817381848195810E94141F8091D2
:10444000610290E001968770992780936102D9CF2D
:104450000E94D81E1092620210926102E3E9F2E01B
:1044600086E0DF011D928A95E9F72C960FB6F89445
:10447000DEBF0FBECDBFDF91CF911F910895EF92A8
:10448000FF920F931F93CF93DF938C01892B09F435
:104490006CC0F12CEE24E394E8012196F80184919C
:1044A000843740F4843008F051C0813081F082308C
:1044B00019F15BC0853709F444C0A8F19CE7980F57
:1044C000903708F052C08F770E94C31B41C00E5F27
:1044D0001F4FFE01849190E2980F983050F487703E
:1044E000FE2D01C0FF0F8A95EAF78F2F0E94E82466
:1044F00014C00E94141B2DC00E5F1F4FFE0184913B
:1045000090E2980F983060F48770FE2D01C0FF0F85
:104510008A95EAF78F2F0E94EE240E94172519C072
:104520000E94C31B16C00E5F1F4FFE01C491CC2317
:1045300081F08FE99FE00197F1F700C00000C150C2
:10454000F6CF0E5F1F4FFE01F49003C00E94141BB4
:104550008E018F2D882309F49FCFEFE9FFE031977B
:10456000F1F700C000008150F5CFDF91CF911F918E
:104570000F91FF90EF900895089508950C94BD2237
:104580000C94BE220E94C0226093CA027093CB0298
:104590008093CC029093CD020C94BE1E0C94C22248
:1045A0000F931F930091CA021091CB022091CC026D
:1045B0003091CD02602B712B822B932B1F910F9189
:1045C0000C94C2220F931F930091CA021091CB0248
:1045D0002091CC023091CD0260237123822393235A
:1045E0001F910F910C94C2220F931F930091CA0246
:1045F0001091CB022091CC023091CD02602771271F
:10460000822793271F910F910C94C2220C94BD22F4
:104610000E9406236093C6027093C7028093C8026B
:104620009093C9020C94BE1E60E070E0CB010C9424
:1046300008230F931F9341E050E060E070E08A018F
:104640009B0104C0000F111F221F331F8A95D2F750
:10465000C901B8011F910F910C9408230F931F9368
:1046600041E050E060E070E004C0440F551F661F59
:10467000771F8A95D2F78091C6029091C702A091C8
:10468000C802B091C9028A019B01082B192B2A2B61
:104690003B2BC901B8011F910F910C9408230F9374
:1046A0001F9341E050E060E070E004C0440F551FEC
:1046B000661F771F8A95D2F7409550956095709543
:1046C0008091C6029091C702A091C802B091C90220
:1046D0008A019B01082319232A233B23C901B8011E
:1046E0001F910F910C9408230F931F9341E050E00A
:1046F00060E070E004C0440F551F661F771F8A9565
:10470000D2F78091C6029091C702A091C802B091E1
:10471000C9028A019B01082719272A273B27C901BB
:10472000B8011F910F910C9408230F931F930091D0
:10473000C6021091C7022091C8023091C902602BB5
:10474000712B822B932B1F910F910C9408230F93A5
:104750001F930091C6021091C7022091C8023091A8
:10476000C90260237123822393231F910F910C941C
:1047700008230F931F930091C6021091C702209146
:10478000C8023091C90260277127822793271F91A1
:104790000F910C94082308952EE0929F800D112410
:1047A000E82FE695E695E695877051E001C0550F34
:1047B0008A95EAF785E0E89FF0011124E756FD4F5E
:1047C00020E030E070E04081CB01022E02C09695DF
:1047D00087950A94E2F78170819584278523842741
:1047E00081932F5F3F4F2530310569F708952EE003
:1047F000929F800D1124682F669566956695982F77
:10480000977085E0689FB001112440E050E080E09F
:10481000FB01E40FF51FE756FD4F208130E0092E24
:1048200002C0369527950A94E2F721703327042EAB
:1048300001C0220F0A94EAF7822B4F5F5F4F453089
:10484000510531F70895BF92CF92DF92EF92FF9218
:104850000F931F93CF93DF938C01C090C602D0902B
:10486000C702E090C802F090C9028091CA029091FC
:10487000CB02A091CC02B091CD02C82AD92AEA2A53
:10488000FB2ACFE1D0E0D701C6010C2E04C0B695BB
:10489000A795979587950A94D2F780FD04C0219734
:1048A00090F7B12C07C0BC2EB8018C2F0E94E404F5
:1048B0000197A9F38B2DDF91CF911F910F91FF905D
:1048C000EF90DF90CF90BF900895CF93DF93EC01EE
:1048D0000E942324BE010E94E404DF91CF91089539
:1048E0001F93CF93DF93EB0190916002992321F006
:1048F000CB010E94652413C0882349F0CB010E949C
:104900002324182F682FCE010E94CC2304C0CB0192
:104910000E94F723182FBE01812F0E94E404DF912B
:10492000CF911F9108958091CE02859585958595AB
:1049300008958091CE02877008959091CE0297706D
:1049400081E009F480E008959091180392FB2227FA
:1049500020F9281751F080FB92F990931803809169
:104960001703909118030C94B025089580911803B3
:1049700082FB882780F991E089270C94A42481E0A8
:104980000C94A42480E00C94A4248091F202089555
:104990009091F202892B8093F20208958095909174
:1049A000F20289238093F20208951092F202089590
:1049B0009091F102892B8093F10208958095909156
:1049C000F10289238093F10208951092F102089573
:1049D0009091F002892B8093F00208958095909138
:1049E000F00289238093F00208951092F002089556
:1049F0008091CF02089508950C94FB240C94FC241C
:104A00009091180392FD08C09091CF02981721F061
:104A10008093CF020C94FE2408958091CF028823C6
:104A200029F01092CF0280E00C94FE240895E091CA
:104A30002001F09121018091F2028083E091200118
:104A4000F091210190818091F102892B8083E09186
:104A50002001F091210190818091F002892B8083C7
:104A60008091CF02882381F0E0912001F091210113
:104A70009081892B808380912001909121010E9457
:104A80003B2681110E940D258091200190912101EA
:104A90000C9489190C94FB249091180392FD10C07A
:104AA00098E0899F90011124262B2093CE020E942A
:104AB0002E238091CE028595859585950C944A2567
:104AC0000C942E231092CE0280E00C944A25209163
:104AD000CE02809582238093CE02982F977041F466
:104AE00030E0482F082E000C550B2417350721F411
:104AF0009091180392FF07C08595859585950E9432
:104B00004F230C946225089580E008956FEF7FEFA6
:104B100080E090E00C94183080E090E00E94F42F48
:104B200021E08A3E9E4F09F020E0822F089582E026
:104B300090E00C94E62F83E090E00C94E62FCF9366
:104B400084E090E00E94E62FC82F82E290E00E946D
:104B5000E62F2C2F30E0A901582BCA01CF910895E0
:104B6000CF93C92F682F84E090E00E94FA2F6C2F1A
:104B700082E290E0CF910C94FA2FAB01BC018FE060
:104B800090E00C940C30AB01BC0183E190E00C94FC
:104B90000C3060E070E0CB010C94C32560E070E065
:104BA000CB010E94BD250C94C9256AEE7EEF80E002
:104BB00090E00E94183060E082E090E00E94FA2FBE
:104BC00060E083E090E00E94FA2F1092CA021092F7
:104BD000CB021092CC021092CD0260E084E090E013
:104BE0000E94FA2F60E082E290E00E94FA2F60E0DB
:104BF00085E090E00E94FA2F60E086E090E00E945D
:104C0000FA2F6FEF87E090E00E94FA2F40E050E02B
:104C1000BA0188E090E00E940C3060E08DE090E006
:104C20000E94FA2F40E050E0BA0188E190E00E9433
:104C30000C3060E087E190E00E94FA2F40E050E005
:104C4000BA018CE190E00E940C3060E070E080E2FC
:104C500090E00E94183040E050E0BA0188E190E016
:104C60000E940C300C94CE250C94D525682F8EE034
:104C700090E00C94FA2FFC01329680912C0188234D
:104C800031F08091170387FF02C09EE101C096E0DA
:104C900080E0915028F021912223D9F38F5FF9CF42
:104CA0000895662351F120912C012223E9F02091EF
:104CB000170327FF19C0462F4695469546954E3156
:104CC000E0F4677021E030E002C0220F331F6A95E4
:104CD000E2F7FC01E40FF11D828190E028233923E3
:104CE00081E0232B69F409C0FC01329608962191DA
:104CF000621729F0E817F907D1F780E0089581E0FD
:104D000008959C01FC0132969FEF80E04191461787
:104D100089F09F3F19F4411101C0982F8F5F8630B1
:104D2000A9F79F3F39F0F901E90FF11D97FDFA95B9
:104D30006283089508959C012A5F3F4FFC014281E0
:104D4000461301C01282019682179307B9F708959E
:104D5000262F2695269526952E3168F4FC01E20F24
:104D6000F11D677021E030E001C0220F6A95EAF77B
:104D70008281282B22830895262F26952695269515
:104D80002E3170F4FC01E20FF11D677021E030E07C
:104D900001C0220F6A95EAF7209582812823228399
:104DA000089520912C01222329F02091170327FD3B
:104DB0000C94A8260C94812620912C01222329F002
:104DC0002091170327FD0C94BC260C949B26209160
:104DD0002C01FC013296222331F08091170387FFCA
:104DE00002C08EE101C086E0DF011D928A95E9F7DD
:104DF000089508950C94F9260C94F926CF930E94F7
:104E0000FC260E9473070E94FA26C0E08C2F0E94A5
:104E10000F07892B29F4CF5FC530C1F780E001C0AF
:104E200081E0CF9108950C94F9260C94132780917A
:104E30006503843009F42EC00E94152780E00E948B
:104E4000611680E00E94BC040E947D121092F40260
:104E500020E488E190E00FB6F894A8958093600074
:104E60000FBE2093600083B7817F846083BF83B7C8
:104E7000816083BF7894889583B78E7F83BF0FB698
:104E8000F894A895809160008861809360001092EA
:104E900060000FBE08950C94F9260E94D81E0E944F
:104EA0001D150E947D190E94BC040E9449130C9498
:104EB0004B271F920F920FB60F9211248F939F933F
:104EC000AF93BF938091F402811113C080915D0371
:104ED00090915E03A0915F03B09160034196A11D84
:104EE000B11D80935D0390935E03A0935F03B09325
:104EF0006003BF91AF919F918F910F900FBE0F9064
:104F00001F90189582E084BD93E095BD9AEF97BD00
:104F100080936E0008952FB7F89480915D0390916F
:104F20005E03A0915F03B09160032FBF08952FB778
:104F3000F89460915D0370915E0380915F0390919E
:104F400060032FBF08959C014FB7F89480915D03D3
:104F500090915E03A0915F03B09160034FBF821BED
:104F6000930B089578941F920F920FB60F9211240D
:104F70008F939F93AF93BF9380915D0390915E0356
:104F8000A0915F03B09160030196A11DB11D8093B4
:104F90005D0390935E03A0935F03B0936003BF91A2
:104FA000AF919F918F910F900FBE0F901F9018950A
:104FB00081E08093E00080E28093D8001092C900E5
:104FC0008FE19EE40197F1F700C0000087E090EBCD
:104FD000DC0180936E0390936F03A0937003B093F2
:104FE00071039CE088E10FB6F894A8958093600067
:104FF0000FBE90936000FFCF9093D9018093D801AA
:105000000895809115030895CF93DF9300D01F92E8
:10501000CDB7DEB790916503943019F589837B8312
:105020006A8382E08093E9008FEF9091E8008150DD
:1050300095FD06C095ED9A95F1F700008111F5CF29
:105040008091E80085FF0DC040E050E063E070E033
:10505000CE0101960E94342A8091E8008E778093D9
:10506000E8000F900F900F90DF91CF910895BC0151
:1050700084E00C940428BC0183E00C94042822E012
:105080002093E9002FEF3091E800215035FD06C054
:1050900035ED3A95F1F700002111F5CF2091E800A8
:1050A00025FF0BC040E050E066E070E00E94342A2B
:1050B0008091E8008E778093E8000895CF93DF9386
:1050C00020912C01222339F02091170327FF03C0E0
:1050D00060E222E002C068E021E02093E9002FEFC7
:1050E0003091E800215035FD06C035ED3A95F1F7D5
:1050F00000002111F5CF2091E80025FF1DC0EC0133
:1051000080912C01811105C040E050E068E070E022
:1051100003C070E040E050E0CE010E94342A80914C
:10512000E8008E778093E80080E2FE01A5EFB2E010
:1051300001900D928A95E1F7DF91CF9108958091CA
:105140006403811109C00E94C52B0E94222C80910A
:10515000E20084608093E200089510926403089551
:1051600008950895089542E061EC81E00E943E2B8D
:1051700042E261EC82E00C943E2B80916703833025
:1051800009F460C030F4813071F0823009F499C0C4
:1051900008958A3009F485C08B3009F46BC08930DA
:1051A00009F0A7C020C080916603813A09F0A1C030
:1051B0008091E800877F8093E80080916A03909156
:1051C0006B03892B21F460E285EF92E003C060E07D
:1051D00080E090E070E00E947F2A8091E8008B7769
:1051E0008093E800089580916603813209F081C0C0
:1051F00080916A0390916B03029708F07AC08091C6
:10520000E800877F8093E8008091E80082FD05C078
:10521000809165038111F8CF6CC02091F3008091DB
:10522000F20090E0922B029729F48091F1008B7F9D
:10523000813021F48091F100809315038091E80082
:105240008B7753C080916603813A09F052C08091F8
:105250006A0390916B03892B09F04BC08091E800A1
:10526000877F8093E8008091E80080FFFCCF8091E9
:105270002C0136C0809166038132D9F580916A0392
:1052800090916B03892BA9F58091E800877F80932B
:10529000E8000E94732B8091680380932C010C948A
:1052A000D81E80916603813221F58091E800877FC6
:1052B0008093E8000E94732B80916903809316030A
:1052C000089580916603813AA1F48091E800877F78
:1052D0008093E8008091E80080FFFCCF8091160366
:1052E0008093F1008091E8008E778093E8000C9421
:1052F000732B089584B7877F84BF0FB6F894A89561
:1053000080916000886180936000109260000FBE01
:1053100090E080E80FB6F89480936100909361006C
:105320000FBE0E94081A0E94C52B0E94222C809159
:10533000E20084608093E20078940E94B72E0E947D
:10534000161A82E291E00E947819809165038530F7
:10535000A9F480916503853079F40E941727809124
:1053600063038823B1F30E94FE26882391F30E94F1
:105370001E2A0E94D81EEDCF0E944D270E94201A9F
:105380000E94121AE2CF0C94C529292F332723300B
:105390003105C9F060F42130310581F0223031054A
:1053A00009F044C08BE390E024E036E043C02132B2
:1053B0003105E1F02232310549F138C082E190E057
:1053C0002FE336E037C099278130910549F028F066
:1053D000029761F5E6ECF5E005C0E0E0F6E002C01A
:1053E000E8EDF5E0849190E09F0124C0611571051E
:1053F00041F061307105D1F489E090E02FE236E0B0
:1054000019C089E090E026E136E014C0611571050D
:1054100041F06130710551F486EB90E021E536E012
:1054200009C080E490E027E037E004C080E090E02D
:1054300020E030E0FA0131832083089580E189BDC6
:1054400082E189BD09B400FEFDCF8091D8008F7D37
:105450008093D8008091E00082608093E00080918A
:10546000E00081FDFCCF0895CF92DF92EF92FF9292
:105470000F931F93CF93DF93EC018B017A010E946E
:10548000922B811133C0E114F10439F0F7018081CE
:105490009181081B190BC80FD91FC12CD12C0115E4
:1054A000110519F18091E80085FD16C08091E80092
:1054B0008E778093E800E114F10449F0F7018081D0
:1054C0009181C80ED91ED182C08285E00FC00E9492
:1054D000922B882321F30AC089918093F100015017
:1054E0001109FFEFCF1ADF0ADACF80E0DF91CF9109
:1054F0001F910F91FF90EF90DF90CF900895209132
:105500006C0330916D032617370748F0611571055C
:1055100039F42091E8002E772093E80001C0B9010A
:10552000FC0120E06115710579F180916503882304
:10553000F1F18530F1F18091E80083FD3CC080916C
:10554000E80082FD2EC08091E80080FFEBCF209123
:10555000F3008091F20090E0922B6115710551F0FB
:105560008830910538F421912093F1006150710940
:105570000196F3CF21E0089709F020E08091E80040
:105580008E778093E800CECF2111CFCF0AC08091D3
:105590006503882361F0853061F08091E80083FD28
:1055A0000AC08091E80082FFF2CF80E0089582E097
:1055B000089583E0089581E0089520916C0330916F
:1055C0006D032617370748F06115710539F42091EE
:1055D000E8002E772093E80001C0B901FC0120E02B
:1055E0006115710591F180916503882309F440C02C
:1055F000853009F43FC08091E80083FD3DC0809173
:10560000E80082FD2FC08091E80080FFE9CF209163
:10561000F3008091F20090E0922B6115710559F032
:105620008830910540F424912093F1003196615027
:1056300071090196F2CF21E0089709F020E08091EE
:10564000E8008E778093E800CBCF2111CCCF0AC041
:1056500080916503882361F0853061F08091E800D6
:1056600083FD0AC08091E80082FFF2CF80E00895B8
:1056700082E0089583E0089581E00895982F97309F
:1056800068F59093E900981739F07091EC0020913B
:10569000ED005091F00003C0242F762F50E021FD43
:1056A00002C09F5FECCF3091EB003E7F3093EB0068
:1056B0003091ED003D7F3093ED003091EB00316093
:1056C0003093EB007093EC002093ED005093F000CA
:1056D0002091EE0027FDE5CF80E008958F70809344
:1056E000E90081E008958091660387FF11C08091F1
:1056F000E80082FD05C0809165038111F8CF11C0DB
:105700008091E8008B770BC080916503882349F076
:105710008091E80080FFF8CF8091E8008E77809339
:10572000E80008952091E4003091E50095E640916D
:10573000EC00842F817040FF23C08091E80080FD41
:105740001DC080916503882399F0853099F0809180
:10575000EB0085FD11C04091E4005091E500241755
:10576000350729F3915011F09A01E1CF84E00895B3
:1057700082E0089583E0089581E0089580E008952F
:105780004091E80042FFDDCF08950E94332C0E9433
:105790003B2CE0EEF0E0808181608083E8EDF0E07A
:1057A00080818F77808319BCA7EDB0E08C918E7FCC
:1057B0008C9380818F7E80831092640308950F9371
:1057C0001F93CF93DF930E94332C0E943B2CC8ED94
:1057D000D0E088818F7788838881806888838881FA
:1057E0008F7D888319BC109265031092610310921B
:1057F00063031092620300EE10E0F80180818B7F5A
:10580000808388818160888342E060E080E00E943C
:105810003E2BE1EEF0E080818E7F8083E2EEF0E0CF
:10582000808181608083808188608083F8018081AD
:105830008E7F8083888180618883DF91CF911F91E3
:105840000F910895E8EDF0E080818F7E8083E7ED91
:10585000F0E080818160808384E082BF81E080937A
:1058600064030C94DF2BE8EDF0E080818E7F808371
:105870001092E20008951092DA001092E10008956B
:105880001F920F920FB60F9211242F933F934F93B5
:105890005F936F937F938F939F93AF93BF93EF9398
:1058A000FF938091E10082FF0BC08091E20082FFB4
:1058B00007C08091E1008B7F8093E1000E94B62EAB
:1058C0008091DA0080FF1FC08091D80080FF1BC04C
:1058D0008091DA008E7F8093DA008091D90080FF7A
:1058E0000DC080E189BD82E189BD09B400FEFDCF14
:1058F00081E0809365030E949F2805C019BC109227
:1059000065030E94AD288091E10080FF19C080915D
:10591000E20080FF15C08091E2008E7F8093E2005C
:105920008091E20080618093E2008091D8008062E3
:105930008093D80019BC85E0809365030E94B1284C
:105940008091E10084FF30C08091E20084FF2CC090
:1059500080E189BD82E189BD09B400FEFDCF80915F
:10596000D8008F7D8093D8008091E1008F7E809356
:10597000E1008091E2008F7E8093E2008091E2005E
:1059800081608093E20080916103882311F084E0BC
:1059900007C08091E30087FD02C081E001C083E081
:1059A000809365030E94B2288091E10083FF29C0A3
:1059B0008091E20083FF25C08091E100877F809382
:1059C000E10082E080936503109261038091E10021
:1059D0008E7F8093E1008091E2008E7F8093E200D1
:1059E0008091E20080618093E20042E060E080E02C
:1059F0000E943E2B8091F00088608093F0000E940E
:105A0000B028FF91EF91BF91AF919F918F917F91BE
:105A10006F915F914F913F912F910F900FBE0F901B
:105A20001F9018951F920F920FB60F9211242F936B
:105A30003F934F935F936F937F938F939F93AF9316
:105A4000BF93CF93DF93EF93FF93C091E900CF70A3
:105A50008091EC00D82FD17080FDD0E81092E90041
:105A60008091F000877F8093F00078940E94562DFB
:105A70001092E9008091F00088608093F000CD2BB7
:105A8000CF70C093E900FF91EF91DF91CF91BF916B
:105A9000AF919F918F917F916F915F914F913F91C6
:105AA0002F910F900FBE0F901F9018951F93CF93BB
:105AB000DF93CDB7DEB7AA970FB6F894DEBF0FBE5F
:105AC000CDBFE6E6F3E08091F100819323E0EE366E
:105AD000F207C9F70E94BD288091E80083FF2EC11C
