:100000000C9433030C947A030C947A030C947A03C3
:100010000C947A030C947A030C947A030C947A036C
:100020000C947A030C947A030C94E4290C94B62A69
:100030000C946B230C947A030C947A030C947A033B
:100040000C947A030C947A030C947A030C947A033C
:100050000C947A030C94C4230C947A030C947A03C2
:100060000C947A030C947A030C947A030C947A031C
:100070000C947A030C947A030C947A030C947A030C
:100080000C947A030C947A030C947A030C947A03FC
:100090000C947A030C947A030C947A030C947A03EC
:1000A0000C947A030C947A030C947A0381118411D2
:1000B0008C11911196119B11A011A511AA11AF11CC
:1000C000B411B911BB11BE11C111C411C711CA11AC
:1000D000CC11D111C118C118F318F31840195E19C9
:1000E0007F1A7F1A6919FE190F1A0F1A6F1A7F1AD1
:1000F0007F1A781A1F1B1F1B311B311B281B311B3A
:10010000311B311B1F1B1F1B2D1B311B311B2D1BBB
:10011000232B4A2B422C4A2B422C962BB92B422CB8
:10012000102C1F2C165C1E001F0020002100220036
:10013000230024002500260027002D002E000000AB
:100140002A002B00000014001A00080015001700F8
:100150001C0018000C00120013002F0030003100AA
:100160000251000004001600070009000A000B00FD
:100170000D000E000F003300340028000000E100E5
:1001800000001D001B0006001900050011001000F2
:100190003600370038000000E5000000E000E20013
:1001A0000000E300000000002C0000000000000040
:1001B000E700E6000000E400390001000100010052
:1001C0000100010001000100010001000100010027
:1001D0000100010000000100010000000100010019
:1001E0000100010001000100010001000100010007
:1001F00001000100010001000000010001000100F8
:1002000001000100010001000100010001000100E6
:1002100001000000010000000100010001000100D8
:1002200001000100010001000100010000000100C7
:1002300000000100E3000000E200000000000100F7
:10024000000000000000E600E700000001000100DF
:1002500035003A003B003C003D003E003F004000BE
:100260004100420043004400450000004C000100F2
:100270000000A800A900000000000000000000002D
:1002800000000000000000000000005C0100000011
:10029000AC00AA00AB00000000005000510052006A
:1002A0004F000000000000000000010000000000FE
:1002B000000000000000000000000000105011507D
:1002C00000000000000000000100E2000000E30068
:1002D00000000000AE00000000000000C35CCF5C26
:1002E0000000D15C145C1E0F0500047F3F1F6432C8
:1002F00014643214783C1E1E140A05222325262875
:10030000292A2C2D2F3032333536383A3B3D3E40AA
:1003100042434547494A4C4E5051535557595A5CF0
:100320005E6062646668696B6D6F71737577797B07
:100330007D7F81838587898A8C8E90929496989A06
:100340009C9E9FA1A3A5A7A8AAACAEAFB1B3B4B61B
:10035000B8B9BBBCBEBFC1C2C3C5C6C7C9CACBCC76
:10036000CDCED0D1D2D2D3D4D5D6D7D7D8D9D9DA49
:10037000DADBDBDBDCDCDCDCDCDDDDDDDDDCDCDCBE
:10038000DCDCDBDBDBDADAD9D9D8D7D7D6D5D4D3E6
:10039000D2D2D1D0CECDCCCBCAC9C7C6C5C3C2C1BB
:1003A000BFBEBCBBB9B8B6B4B3B1AFAEACAAA8A718
:1003B000A5A3A19F9E9C9A98969492908E8C8A89D0
:1003C000878583817F7D7B79777573716F6D6B69AD
:1003D00068666462605E5C5A5957555351504E4C82
:1003E0004A4947454342403E3D3B3A383635333231
:1003F000302F2D2C2A292826252322FFAA7F55407D
:1004000000010101010101010101020202020202D7
:1004100002020203030303030303030404040404AA
:100420000404050505050506060606060707070771
:100430000708080808090909090A0A0A0B0B0B0C26
:100440000C0C0D0D0D0E0E0E0F0F0F1010111111C3
:100450001212131314141515161617171818191944
:100460001A1A1B1B1C1D1D1E1E1F202021222223A9
:100470002424252626272829292A2B2C2D2D2E2FEA
:1004800030313232333435363738393A3B3C3D3E01
:100490003F404142434445464748494A4C4D4E4FF0
:1004A00050515354555658595A5B5D5E5F616264B2
:1004B000656668696B6C6D6F7072737577787A7B3F
:1004C0007D7E8082838587888A8C8E8F9193959696
:1004D000989A9C9EA0A2A3A5A7A9ABADAFB1B3B5B6
:1004E000B7BABCBEC0C2C4C6C9CBCDCFD1D4D6D892
:1004F000DBDDDFE2E4E7E9EBEEF0F3F5F8FAFDFF30
:100500000A0344005A0036003000000010034B007C
:1005100042004400460061006E00730000000403C6
:10052000090409023B00020100A0FA0904000001CD
:10053000030101000921110100012240000705818A
:100540000308000A09040100010300000009211149
:1005500001000122B6000705820320000A120110E3
:1005600001000000085A4460220100010200010558
:10057000010902A10185020901A10005091901294A
:10058000081500250195087501810205010930094A
:10059000311581257F950275088106093815812559
:1005A0007F950175088106050C0A38021581257FA3
:1005B000950175088106C0C005010980A101850368
:1005C00019012AB700150126B700950175108100A1
:1005D000C0050C0901A101850419012AA002150119
:1005E00026A002950175108100C005010906A10130
:1005F0008505050719E029E715002501950875010E
:1006000081020507190029EF1500250195F07501F4
:1006100081020508190129059505750191029501C9
:1006200075039101C005010906A101050719E0291B
:10063000E71500250195087501810295017508816E
:10064000010507190029FF150026FF00950675080A
:10065000810005081901290595057501910295018B
:1006600075039101C00011241FBECFEFDAE0DEBF99
:10067000CDBF04B603FE27C080917403909175032B
:10068000A0917603B09177038730904BA740B04B91
:10069000D1F41092740310927503109276031092A5
:1006A000770314BE84B7877F84BF0FB6F894A895EC
:1006B00080916000886180936000109260000FBE9E
:1006C000E0E0F8E3099511E0A0E0B1E0EAECFBE539
:1006D00002C005900D92AE3CB107D9F723E0AEEC15
:1006E000B1E001C01D92A437B207E1F70E941C27B8
:1006F0000C94E32D0C94000081E0089581E00895AE
:100700000C947E0308950C9482031F93CF93DF9380
:1007100000D000D01F92CDB7DEB749835A836B83D8
:1007200030915B0289819A81311114C0662359F09E
:10073000222349F00E945820182F682F89819A811E
:100740000E94012003C00E942C20182F69817A8109
:10075000812F04C00E94582069817A810F900F90E8
:100760000F900F900F90DF91CF911F910C94550433
:10077000FC01262F408151816281738184810C9418
:100780008503CF93DF93EC0160E00E94B803BE01C4
:10079000DF91CF910C9483030E948C21811102C0C0
:1007A0000E9446220E9445040E9454130C9478062D
:1007B0000C94740608950E940D1B0E94DA032FEF1B
:1007C00084E39CE0215080409040E1F700C00000AD
:1007D0000C94EA230F931F93CF93DF93EC0161E016
:1007E0000E94B8038C01BE010E9480038823A9F1F6
:1007F000BE01C8010E94B512882379F1BE01C8016B
:100800000E940214882349F1BE01C8010E945414B9
:10081000882319F1BE01C8010E947F158823E9F0E1
:10082000BE01C8010E946A118823B9F08A81882319
:1008300069F001158CE5180731F00F3D1C4531F4C6
:100840000E9446220AC00E94DB0307C0CE01DF914E
:10085000CF911F910F910C947C0380E0DF91CF9199
:100860001F910F91089508950C94330481E0089529
:10087000CF93C82F0E943604882329F0C1FD02C0FF
:100880002A9A01C02A98CF910895229A2A9A089507
:10089000CF93C82F0E9434048C2F0E943804CF912C
:1008A000089580E090E0089508952BE4829FC001B0
:1008B0001124FC012FE0729FE00DF11D1124E60FC1
:1008C000F11DEE0FFF1FEC5DFE4F85919491089591
:1008D000880F991FFC01EA51FD4F8591949108956D
:1008E000CF93DF930E9455040E948805EC01811587
:1008F000904508F041C0C11580E4D80708F0D1C088
:10090000C83ED10510F5C03ED10508F0FDC0C83A7B
:10091000D10578F4C53AD10508F0A2C0C130D1059F
:1009200009F4F2C008F4EEC0C430D10508F0ECC000
:10093000E9C0CF3BD10508F49BC0C03CD10508F409
:10094000E1C0CE01805C91099EC0C11590E2D9073B
:1009500058F4C11521E0D20708F0D6C0CD3ED1052C
:1009600008F4D0C0D065D0C0C11580E3D80708F026
:100970008EC0CE019F7087C0C11595E5D90708F0DC
:1009800043C0C11524E5D20708F0A2C0C11582E515
:10099000D80708F5C11591E5D90708F085C0CE0143
:1009A00074E0969587957A95E1F783709C2F937004
:1009B00021E030E002C0220F331F9A95E2F73C6835
:1009C000382BCF70C695C69580E2C89FE0011124F0
:1009D000C22BD32B99C09E01237033278C2F869571
:1009E0008695C115D34508F064C0C1E0D0E002C0CF
:1009F000CC0FDD1F2A95E2F720E2829FC00111246F
:100A0000C82BD92BDC6880C0C11529E5D207A0F41A
:100A1000C11588E5D80708F060C0C11596E5D9076B
:100A200008F070C08C2F0E941C068F71C82FD0E078
:100A3000DC2FCC27D06268C0C1152AE5D20708F4A4
:100A400051C0CE0190568115904208F05BC08D2FA9
:100A50008F710E941C06DD27D0628F71D82B54C085
:100A6000C55AD0E0C65ADE4FC881D0E0D0644CC031
:100A7000C85AD0E0CC0FDD1FC45DDE4F0990D8818D
:100A8000C02DD46441C00E946804EC013DC0CE0179
:100A90009927D3FF03C0EC01D86C36C0EC01D06CB1
:100AA00033C0DF70D06A30C0DC2FCC27C16FD06A72
:100AB0002BC0C1E0D0E002C0CC0FDD1F2A95E2F7C9
:100AC00020E2829FC0011124C82BD92BDA681CC0F8
:100AD000DC2FCC27C46FD06A17C0DC2FCC27C06FA7
:100AE000D06A12C08C2F8F700E941C0694E0D6959D
:100AF000C7959A95E1F7CF70D0E0DC2FCC27D0696D
:100B0000C82B02C0C0E0D0E0CE01DF91CF910895A4
:100B10008238910569F1B0F48133910509F46DC013
:100B200048F48932910509F463C08A32910509F4C9
:100B300069C008958533910509F455C0893391053D
:100B4000B9F00895833E910569F138F4803E91052E
:100B5000B1F0823E910509F10895863E9105A9F113
:100B6000873E9105B9F1843E910509F064C023C028
:100B70002091650320FD4FC021FD4DC00895809157
:100B8000650380FD44C08091660380FF44C080916E
:100B9000650384FD42C083EE4DC08091650382FFF2
:100BA00038C0F5CF8091650382FD33C08091660324
:100BB00080FD31C0ECCF8091660381FF32C080910F
:100BC000650384FD2AC087EE35C08091650383FFED
:100BD00026C0F5CF8091650383FD21C08091660317
:100BE00081FD1FC0ECCF8091650385FD1CC01DC039
:100BF0008091650385FD19C016C08091650386FD4F
:100C000016C017C08091650386FD13C010C089E32C
:100C100011C082EE0FC080EE0DC080E00BC086EEEA
:100C200009C084EE07C089E205C085E303C08AE2FB
:100C300001C081E390E008959091650392FF0DC09B
:100C4000282F2871283019F4877F846006C0282F48
:100C50002471243011F48B7F886093FF0DC0282FFE
:100C60002871283119F4877E846106C0282F2471E9
:100C7000243111F48B7E88612091660320FF0DC022
:100C8000382F3871383019F4877F816006C0382FCB
:100C90003171313011F48E7F886021FF0DC0282F13
:100CA0002871283119F4877E816106C0282F2171AF
:100CB000213111F48E7E886194FD877E0895E82F9E
:100CC000F0E0EE0FFF1FEF5DFC4F808191810895F2
:100CD000089580EA8A95F1F7089500C008950C946C
:100CE000690608950C9471060C9472060C947106B2
:100CF0000C947606F894E82FE295EF70F0E031A1BD
:100D0000282F2F7081E090E001C0880F2A95EAF724
:100D1000982F9095932391A392A1892B82A37894E5
:100D200008950F931F93CF93DF9380E90E947A0673
:100D300081E90E947A0682E90E947A0683E90E948C
:100D40007A0685E90E947A06CDE5D1E00CE611E04D
:100D500089910E947A060C171D07D1F7E7E1F3E0AD
:100D6000A1E2B3E0119211921D921D9283E0E13253
:100D7000F807C1F785E00E945607DF91CF911F91D8
:100D80000F910C94CC037F928F929F92AF92BF925F
:100D9000CF92DF92EF92FF920F931F93CF93DF9347
:100DA00007E113E08CE6E82E81E0F82EC0E0D0E009
:100DB000712CAA24A394B12C4701F7018081F894E7
:100DC000E82FE295EF70F0E021A18F70A50102C03D
:100DD000440F551F8A95E2F7CA01922F982B91A3D1
:100DE00092A18095892382A378940E946D06EDE5F7
:100DF000F1E020E030E0C12CD12C4191A42FA2954C
:100E0000AF70B0E090968C9190E04F7002C09595D5
:100E100087954A95E2F780FD08C0C501022E02C001
:100E2000880F991F0A94E2F702C080E090E0C82A78
:100E3000D92A2F5F3F4F2F303105F9F65FEFE51AC2
:100E4000F50AF40180810E947A06C430D10511F0C0
:100E50000E946F06F80180819181C816D90621F0A1
:100E6000D182C08281E001C080E0782A21960E5FA5
:100E70001F4FC530D10509F09FCF272D45E061E216
:100E800073E087E193E00E9457070E94D803872D03
:100E9000DF91CF911F910F91FF90EF90DF90CF9056
:100EA000BF90AF909F908F907F9008950895FF928C
:100EB0000F931F93CF93DF93F82E092F162FD72F61
:100EC000C42F222349F081E08093D2010E949D2308
:100ED0009093D1018093D0018091D2018823D9F0E1
:100EE0008091D0019091D1010E94B523069798F08E
:100EF000EF2DF02FA12FBD2F80E090E04C2F50E080
:100F00008417950734F4219131912D933D930196E7
:100F1000F7CF1092D201DF91CF911F910F91FF90E7
:100F200008958091D90180FF0BC06091090185E08F
:100F3000689FB001112475956795759567952BC0CD
:100F400081FF09C06091090185E0689FB00111240B
:100F50007595679520C082FF07C06091090185E003
:100F6000689FB001112417C09091D8019923D1F046
:100F700060910801961788F72091090185E0289F64
:100F800090011124929FA001939F500D112470E0B5
:100F9000CA010E94A62C6038710540F461157105E4
:100FA00019F406C065E070E0862F08958FE7089574
:100FB00081E008958091D90180FF08C0609105010A
:100FC00070E0759567957595679521C081FF06C09E
:100FD0006091050170E07595679519C082FF04C0A6
:100FE0006091050170E010C09091D701992399F0AC
:100FF000609104019617A0F780910501899FC001B7
:10100000112470E00E94A62C6038710540F461152F
:10101000710519F406C061E070E0862F08958FE72E
:10102000089581E008958D3E21F40E9491078195F5
:1010300004C08E3E29F40E9491078093DD0108953B
:101040008F3E21F40E949107819504C0803F29F4CE
:101050000E9491078093DC010895893F19F40E9452
:10106000DA0705C08A3F31F40E94DA078195809340
:10107000DE0108958B3F21F40E94DA07819504C0B8
:101080008C3F29F40E94DA078093DF0108959FE0E6
:10109000980F983078F421E030E0A90102C0440FA5
:1010A000551F9A95E2F7CA019091DB01892B809335
:1010B000DB0108958D3F21F48091D90181600BC03F
:1010C0008E3F21F48091D901826005C08F3F29F4C1
:1010D0008091D90184608093D90108958D3E39F4BF
:1010E0009091DD0197FF35C01092DD0159C08E3E11
:1010F00029F49091DD011916BCF32BC09091DC010D
:101100008F3E29F497FF25C01092DC0149C0803F33
:1011100019F41916CCF31DC09091DE01893F29F412
:101120001916BCF41092DE013BC08A3F19F497FFF8
:1011300010C0F8CF8B3F39F49091DF0197FF09C0C1
:101140001092DF012DC08C3F21F49091DF01191620
:10115000BCF39FE0980F983080F421E030E0A901C3
:1011600002C0440F551F9A95E2F7CA0180959091ED
:10117000DB0189238093DB0113C08D3F21F4809133
:10118000D9018E7F0BC08E3F21F48091D9018D7FD4
:1011900005C08F3F29F48091D9018B7F8093D901BD
:1011A0008091DC01811106C08091DD01811102C0B6
:1011B0001092D8018091DE01811106C08091DF017B
:1011C000811102C01092D70108950E949D232091A1
:1011D000DC01211104C02091DD01222321F0909334
:1011E000D6018093D5012091DE01211104C0209108
:1011F000DF01222321F09093D4018093D3018AED63
:1012000091E00C94DB15EF92FF920F931F93CF9315
:10121000DF9300D000D000D0CDB7DEB786E0EAED96
:10122000F1E0DE01119601900D928A95E1F7E090D0
:10123000DC01F090DD010091DE011091DF011092E0
:10124000DC011092DD011092DE011092DF01E1104D
:1012500003C0FF2009F45DC08091D5019091D601B3
:101260000E94B523AC019091D801992339F02091C7
:101270000A0130E02417350758F04BC020910B01CC
:101280008AE0289F900111242417350718F041C0E7
:101290009F3F19F09F5F9093D801EE2061F00E946C
:1012A00091071E1414F09FEF01C091E0989F902DBC
:1012B00011249093DC01FF2061F00E9491071F141C
:1012C00014F09FEF01C091E0989F902D112490930E
:1012D000DD013091DC013323E1F02091DD01222397
:1012E000C1F045EB3403C0011124992319F0909308
:1012F000DC0103C081E08093DC0135EB2303C001F6
:101300001124992319F09093DD0103C081E08093AB
:10131000DD01011103C0112309F45DC08091D301E7
:101320009091D4010E94B523AC019091D7019923EB
:1013300039F02091060130E02417350758F04BC0F2
:10134000209107018AE0289F900111242417350776
:1013500018F041C09F3F19F09F5F9093D701002381
:1013600061F00E94DA07101614F09FEF01C091E0BF
:10137000989F902D11249093DE01112361F00E941B
:10138000DA07111614F09FEF01C091E0989F902D9D
:1013900011249093DF013091DE013323E1F020919D
:1013A000DF012223C1F045EB3403C001112499234E
:1013B00019F09093DE0103C081E08093DE0135EBEC
:1013C0002303C0011124992319F09093DF0103C076
:1013D00081E08093DF018091DC0181110BC080915D
:1013E000DD01811107C08091DE01811103C0809170
:1013F000DF0181110E94E508EB82FC820D831E83D0
:1014000086E0FE013196AAEDB1E001900D928A9539
:10141000E1F726960FB6F894DEBF0FBECDBFDF9181
:10142000CF911F910F91FF90EF900895EAEDF1E0B9
:1014300086E0DF011D928A95E9F71092D80110929B
:10144000D7011092D9010895EF92FF920F931F9345
:10145000CF93DF938B01682F11110AC0442329F029
:10146000E82FF0E0E050FC4F6491762F862F75C096
:10147000212F30E0E82FF0E0442321F0E050FC4F32
:10148000E491F0E046E0049FC0011124CFEFD0E0EA
:10149000BE010E94922C4BEA4603C001479F900D6B
:1014A0001124800F911D800F911D982F990F890F86
:1014B000AE01421B530B4E9FD0014F9FB00D5E9F5C
:1014C000B00D11249B2F189FA0011124452F5527E3
:1014D0008E01041B150B0E9FA0010F9F500D1E9F28
:1014E000500D11247E01E81AF108E29E8001E39E6E
:1014F000100DF29E100D1124212F3327C21BD30B88
:10150000CE9F9001CF9F300DDE9F300D11246230B1
:101510007105A9F048F46115710569F06130710534
:10152000C9F48B2F752F0DC06430710581F058F010
:101530006630710579F47E2F8B2F932F0DC0832F8A
:101540007B2F9E2F09C08E2F7B2F952F05C08E2FAE
:10155000732F02C07E2F852F692FDF91CF911F91AE
:101560000F91FF90EF90089541E00E94240A0895A2
:1015700008950E94B40A0895CF93DF93762FE9016E
:10158000682F842F0E94B90A798368838A83DF9148
:10159000CF91089580912B03282F269530E02115B7
:1015A000310519F48170826005C02B32310524F0B9
:1015B0008170846580932B03089588E090E00C94FB
:1015C000842DCF92DF92EF92FF926B017C010E94FB
:1015D000CA0AB701A60188E090E0FF90EF90DF9083
:1015E000CF900C94A22DEBE2F3E083E08083118294
:1015F0008FEF8283838314826081718182819381E2
:101600000C94E10A80912B0380FF02C08695089517
:1016100080E0089590912F03933018F49F5F90938A
:101620002F03882351F060912B0370912C0380913C
:101630002D0390912E030C94E10A089581E00C94FF
:101640000A0B90912F03992319F0915090932F0337
:10165000882351F060912B0370912C0380912D030E
:1016600090912E030C94E10A089581E00C94210BD3
:1016700070E00C9464136091100180912B0380FF43
:101680000AC080910F0123E0829FC0011124805D78
:101690009C4F0C94380B8091110190911201891785
:1016A00080F7E82FF0E09F01220F331FE20FF31FB6
:1016B000E05DFC4F1182108212828F5FF0CF90911B
:1016C0002B0390FF16C090911101209112019217E7
:1016D00070F4E92FF0E0DF01AA0FBB1FEA0FFB1F38
:1016E000E05DFC4F8183608342839F5FF0CF0C9469
:1016F0003B0B0895CF93DF9300D01F92CDB7DEB799
:1017000090912B0390FF0AC09E012F5F3F4F0E94D4
:10171000BC0A4B8169818A810E945F0B0F900F90F8
:101720000F90DF91CF910895CF93DF93EC01EC817F
:10173000F0E0E550FD4F4491EBE2F3E062818181FE
:101740000E947A0B8C818F5F8C83DF91CF910895FB
:10175000CF93DF93EC01EBE2F3E0438162818C8174
:101760000E947A0B8C818F5F8C83DF91CF910895DB
:101770000F931F93CF93DF9300D01F92CDB7DEB7A7
:101780008C018091E00181110AC09E012F5F3F4FC3
:101790004FEF6FEF0E94BC0A8A818093E001F8014D
:1017A0008481813051F028F0823061F44091E00171
:1017B0000AC08091E00140E007C06091E00140E094
:1017C00080E003C040E080E060E00E945F0BF80131
:1017D000848190E0019663E070E00E94A62C8483EF
:1017E0000F900F900F90DF91CF911F910F9108955F
:1017F000AF92BF92CF92DF92EF92FF920F931F931F
:10180000CF93DF9300D01F92CDB7DEB7182FF62EFF
:10181000042FE22E90912B0390FF6DC0E92FE695E7
:10182000AE2FB0E0AF58BE4F8C9180933C029E7FAC
:10183000923061F49E012F5F3F4F812F0E94BC0ABE
:101840004B8169818A810E945F0B43C0823019F409
:1018500000912E033EC0863019F410912C0339C03C
:101860008930D9F38931A9F5E9518E2F8170D82EAD
:10187000E695F0E0E550FC4FA590B490C12CBB2458
:1018800060911301C61618F52C2D30E0A29EC00100
:10189000A39E900DB29E900D112470E00E94922C98
:1018A000812FD11002C0860F01C0861B90911101BB
:1018B000290F311DA901440F551F240F351F205D2D
:1018C0003C4F402F6F2D0E94BC0AC394D9CF0E9479
:1018D0003B0B10932C03F0922D0300932E03EE206C
:1018E00051F060912B0370912C0380912D03909106
:1018F0002E030E94E10A0F900F900F90DF91CF917D
:101900001F910F91FF90EF90DF90CF90BF90AF901D
:101910000895EBE2F3E09181282F4381628188E012
:10192000890F0C94F80B81E00C94890CEBE2F3E046
:101930009181282F4381628188EF890F0C94F80BE5
:1019400081E00C94960CEBE2F3E0628128E0620FF8
:1019500008F46FEF282F438181810C94F80B81E00C
:101960000C94A30CEBE2F3E0628128E0621B08F424
:1019700060E0282F438181810C94F80B81E00C9466
:10198000B20CEBE2F3E0438128E0420F08F44FEFA2
:10199000282F628181810C94F80B81E00C94C10C9A
:1019A000EBE2F3E0438128E0421B08F440E0282FFB
:1019B000628181810C94F80B81E00C94D00C20E0C2
:1019C0000C94F80BFF920F931F93CF93DF93EC01CE
:1019D000F12C0FEF10E060911301F616F0F48091F6
:1019E00011012F2D30E0280F311DC901880F991FDB
:1019F000280F391F205D3C4F70E0C8010E94A62CC3
:101A0000962F8C8140912E0360912D03F99E800DBD
:101A100011240E94BC0AF394DECF0E943B0B9A81F2
:101A20008C8190FF02C08F5F01C081508C83DF9159
:101A3000CF911F910F91FF900895BF92CF92DF92A7
:101A4000EF92FF920F931F93CF93DF93FC0182815C
:101A500080FF02C00FEF01C001E010E08091130190
:101A6000181708F040C080911101C12ED12CE60159
:101A7000C80FD11DCE01880F991FC80FD91FC05D97
:101A8000DC4F198218821A8234E0E32EF12CB12C3B
:101A90008091E2018B0D813114F08F7005C087FFBA
:101AA00003C090911301890F082E000C990BC816E2
:101AB000D90691F480912E038E9DA0018F9D500D2B
:101AC000112455954795559547959E0160912D0395
:101AD00080912C030E94BC0AB00EF1E0EF1AF108CD
:101AE000B9F61F5FBBCF0E943B0B8091E201013032
:101AF00031F4811102C080911301815007C090E040
:101B000001966091130170E00E94A62C8093E2017F
:101B1000DF91CF911F910F91FF90EF90DF90CF90C9
:101B2000BF900895CF938091110190911201891770
:101B300070F4E82FF0E09F01220F331FE20FF31F34
:101B4000E05DFC4F1182108212828F5FF0CFC0E007
:101B500060911301C617C0F5EC2FF0E070E0CF01E3
:101B60000E94A62C20911101820F2091E101022EEA
:101B7000000C330B90E0E217F307CCF020910E013C
:101B8000022E000C330B2E173F078CF09C01220F06
:101B9000331F820F931F9C01205D3C4F40912E0309
:101BA00060912D0380912C030E94BC0A0BC0FC01A4
:101BB000EE0FFF1F8E0F9F1FFC01E05DFC4F118297
:101BC00010821282CF5FC4CF0E943B0B20910D0187
:101BD0008091E101820F8093E10190910E01920FBB
:101BE00090930E0119165CF4082E000C990B40918D
:101BF000130150E041505109841795071CF02195BD
:101C000020930D01CF9108958F929F92AF92BF9232
:101C1000CF92DF92EF92FF920F931F93CF93DF93B8
:101C20008C01FC014481C42FD0E09E01DE010E94A2
:101C3000EA2C9B01AC010E94002D6B017C01E0E2CB
:101C4000F0E0EC1BFD0BA5E5B0E09B01AC010E94B0
:101C5000002D4B015C019F01DF010E94E22C9B01E2
:101C6000AC010E940B2D9B01AC012C0D3D1D4E1DA6
:101C70005F1DC501B4010E94BA2CC22FD22F2A3297
:101C800028F4F3E02F9F900111240DC025E530E0EA
:101C90002C1B3109C901880F991F280F391F37FFE5
:101CA00002C02F5F3F4F35952795C22FC095F12C6D
:101CB00085E5E82EED1A80911301F816C8F4F1FCC1
:101CC00002C08E2D01C08D2F909111012F2D30E07B
:101CD000290F311DA901440F551F240F351F205D09
:101CE0003C4F4C2F60912D030E94BC0AF394E3CF2C
:101CF0000E943B0BF8018481811102C091E003C076
:101D0000803219F49FEF90930C0190910C01890F90
:101D1000F8018483DF91CF911F910F91FF90EF9095
:101D2000DF90CF90BF90AF909F908F9008950F93CA
:101D30001F93CF93DF93EC0100E010E0809113013B
:101D4000282F30E00217130724F590911101980114
:101D5000290F311DA901440F551F240F351F205D88
:101D60003C4F869590E04C81081719071CF44423DA
:101D700031F002C0411103C040912E0301C040E088
:101D800060912D0380912C030E94BC0A0F5F1F4FAE
:101D9000D5CF0E943B0B8C8190E0019681709927F2
:101DA0008C83DF91CF911F910F9108957F928F9235
:101DB0009F92AF92BF92CF92DF92EF92FF920F93DA
:101DC0001F93CF93DF93FC018280748081E0848332
:101DD000EBEFF2E09490EAE7F3E0E491A12CF5E078
:101DE000BF2ECC24CA94D12CE9190E2F10E080917B
:101DF0001301A81608F0A2C0EA2CF12C22E0281545
:101E000068F0BE9CF001BF9CF00D1124ED51FE4F17
:101E100080912C03808380912D03818371100AC0EF
:101E2000BE9CF001BF9CF00D1124ED51FE4F1382BA
:101E300012826AC0BE9CE001BF9CD00D1124CD511E
:101E4000DE4F8B818823F9F081508B832FEF829FA7
:101E5000C00111246C8170E00E94922CFB01FF27CD
:101E6000E550FD4F8491E82FE9192FEFE29FC00163
:101E70001124B8010E94922C80912E03689FB0011A
:101E800011247A8341C00E945F2D20912E03269554
:101E9000215830E0A901440F551F322F2227240F6B
:101EA000351F232F33278217930774F582E0881597
:101EB00088F40E945F2DB6010E94A62C88830E94A0
:101EC0005F2D20912D032695622F70E00E94A62C95
:101ED000280F2983BE9CF001BF9CF00D1124ED5109
:101EE000FE4F128280912E03843120F0893C18F03D
:101EF00088EC01C084E1BE9CF001BF9CF00D112470
:101F0000ED51FE4F84838383809111019701280F47
:101F1000311DC901880F991F280F391F205D3C4FC3
:101F2000BE9CF001BF9CF00D1124ED51FE4F42818B
:101F3000618180810E94BC0AA39459CFDF91CF9127
:101F40001F910F91FF90EF90DF90CF90BF90AF90D7
:101F50009F908F907F900C943B0BEBE2F3E080819D
:101F60008E7F808360817181828193810E94E10AEA
:101F700010923D022FEF80E792E021508040904088
:101F8000E1F700C000000C943B0BEBE2F3E0808132
:101F90008E7F808310923D022FEF80E792E02150E8
:101FA00080409040E1F700C000000C943B0B109281
:101FB0003D0280913A0281110AC081E080933A0289
:101FC00080912B038170809339020C94C50F089582
:101FD00060912B03669570E04BE050E084E191E066
:101FE0000E946F2D892B19F481E080933D020E949D
:101FF0009D239093340280933302089590912B0394
:1020000090FF35C09170811102C0926006C08B3282
:1020100010F0946502C0880F982B90932B036623D1
:1020200051F060912B0370912C0380912D039091BE
:102030002E030E94E10A60912B03669570E04BE04D
:1020400050E084E191E00E946F2D892B19F01092ED
:102050003D0202C00E94E80F81E080933602409169
:102060002E0360912D0380912C030C94DF0C0895B6
:10207000682F90912B03969581E0890F8B3208F0A1
:1020800081E00C94FE0F81E00C943810682F909141
:102090002B0396958FEF890F09F48AE20C94FE0FBB
:1020A00081E00C94461061E00C94FE0FEBE2F3E04B
:1020B00080818160808386950C94531080912B03DE
:1020C00080FD0C94AD0F0C94561060E00C94FE0F44
:1020D00080913B0281112EC00E948C21811104C08D
:1020E0000E9446220E94F30A0E94DD0A60932B039D
:1020F00070932C0380932D0390932E036E7F61F4D5
:102100000E94F30A0E94DD0A60932B0370932C0354
:1021100080932D0390932E030E94CA0A10923D02D1
:1021200080912B0380FF03C086950E94651081E09B
:1021300080933B020895EBE2F3E08081816080832D
:1021400086950C94651010923A02809139028111A3
:102150000E949B100C94E80F0F931F93CF93DF9373
:1021600080913D02882309F495C080913C02E09162
:102170002B03E695E81BE0933502823049F4F0E04A
:10218000E950FD4FE491CE2FD0E004E91BE059C0A7
:10219000863049F4F0E0EC50FD4FE491CE2FD0E0D2
:1021A00008EA1BE04EC0893051F4E695F0E0EF50AC
:1021B000FD4FE491CE2FD0E002EE1CE042C08F3004
:1021C00051F4E695F0E0E251FD4FE491CE2FD0E0DE
:1021D0000DE11DE036C0853149F4F0E0E551FD4FD9
:1021E000E491CE2FD0E002E91DE02BC08831D9F078
:1021F000833239F4E9EEF2E0C591D49108EB1BE0AB
:1022000020C08432A9F08532C1F48E2F63E00E9491
:10221000862CE92FF0E0EA51FD4FE491CE2FD0E07B
:1022200006ED1EE00EC0C8E2D0E004E01EE009C0EA
:10223000C4EFD1E007E91EE004C0C0EDD7E008EB31
:102240001AE080913602882361F0109236020E94D3
:102250009D2390933402809333021092380210929F
:1022600037020E949D23E0913302F09134028E1BCD
:102270009F0B8F3F9F4770F4EC0FFD1FF0933402CC
:10228000E093330283E392E0F801DF91CF911F9155
:102290000F910994DF91CF911F910F910895882399
:1022A00011F0FA0101C0FB010994CF93DF93C82F0D
:1022B000D62F0E94020B8C1740F00E94020B8D1744
:1022C00020F4DF91CF910C9443108C2FDF91CF91AC
:1022D0000C9453100F931F93CF93FB01C281CC2317
:1022E00009F463C08C010E94D9208272F801E35C7A
:1022F000FC45E431F10508F059C0EA5AFF4F0C944F
:10230000DC2C0E945E1006C040E550E163E470E101
:102310000E944F11C0E04AC043E450E160E570E123
:10232000F7CF40EA5CE063E97CE0F2CF43E95CE0B0
:1023300060EA7CE0EDCF4EEB5CE06FEA7CE0E8CF5A
:102340004FEA5CE06EEB7CE0E3CF4CED5CE06DECE3
:102350007CE0DECF4DEC5CE06CED7CE0D9CF45E37A
:102360005BE06EE17BE0D4CF4EE15BE065E37BE0D8
:10237000CFCF81E017C065E082E010C068E086E062
:102380000DC06EE089E00AC064E18FE007C067E13C
:1023900085E104C088E106C062E289E10E9455112E
:1023A000B9CF83E20E945310B5CFC1E08C2FCF91FB
:1023B0001F910F9108950E948C21811102C00E94EB
:1023C00046220E94C72180936003282F26952695D8
:1023D000269530E02630310524F08770886280939E
:1023E00060038091600380FF04C086958695869582
:1023F00001C080E00C94EA1220916003822F869540
:1024000086958695482F50E04530510554F48F5FEE
:10241000982F990F990F990F822F8770892B80938E
:102420006003809160038160809360030E94CB21F0
:10243000809160038695869586950C94EA1280912A
:102440006003982F969596959695A1F0915E990FB9
:10245000990F990F8770892B80936003887F91E093
:1024600009F490E08091600390FB80F98093600311
:102470000E94CB21809160038695869586950C9469
:10248000EA128091600380FD13C081608093600335
:10249000813019F489E080936003809160030E9489
:1024A000CB21809160038695869586950C94EA12DF
:1024B00008958091600380FF08C08E7F8093600341
:1024C0000E94CB2180E00C94EA1208958091600371
:1024D00080FD0C9459120C94411290916003892F45
:1024E0008695869586958F5F8F719770863038F4C4
:1024F000880F880F880F892B8093600302C0909308
:10250000600380916003887F91E009F490E08091FE
:10251000600390FB80F9809360030E94CB2180913F
:1025200060038695869586950C94EA12863008F0AD
:1025300085E0909160039770282F220F220F220FC1
:10254000922B90936003987F21E009F420E0909112
:10255000600320FB90F9909360030C94EA120E94B0
:102560009612809160030C94CB219C01FB01828127
:10257000882349F12E3BFCE53F07C9F040F42C3B92
:10258000ECE53E0769F02D3B3C4561F00895203CA9
:102590009CE5390791F070F0213C3C4589F00895A5
:1025A00085E001C080E00E94AF1280E008950E94A3
:1025B0001F12FBCF0E94FC11F8CF0E946612F5CFCC
:1025C0000E946D12F2CF81E00895269A2E98089508
:1025D0002E980895CF92DF92EF92FF92CF93C82F5B
:1025E000863050F4811109C0809180008F7D8093E6
:1025F00080000E94E81206C0C5E0809180008062E1
:10260000809380002C2F30E0AFEFBFEF0E94EA2CC8
:1026100025E030E040E050E00E94BA2CB42FA32F18
:10262000922F8827492F5A2F6B2F7727CA014C37B3
:1026300024E1520728F469E070E00E94922C29C03E
:10264000DB01CA018A50974DAF4FBF4F6627782FE5
:10265000892F9A2F25EF38E241E050E00E94BA2CF2
:1026600069017A01CA01B9010E94762C9B01AC0173
:10267000C701B6010E94762CBB27A92F982F872F60
:10268000009721E0A207B10511F0BC0102C06FEF75
:102690007FEF70938B0060938A00CF91FF90EF9053
:1026A000DF90CF90089508950E94E51282E2809312
:1026B000800089E1809381008FEF9FEF90938700E6
:1026C000809386000C94DB116A9A2EB12B7F3EB169
:1026D00034604FB7F894FC01CB01880F991F680F45
:1026E000791F6E0F7F1FE617F70789F0819198E039
:1026F0003EB9000000C087FF2EB9880F000000C05F
:1027000000C000C02EB900C09A9591F7ECCF4FBF22
:102710008FE594E00197F1F700C0000008950F9352
:102720001F93CF93DF93C42FD22FFC018281882384
:10273000C9F0409340020E949D2390933F028093F2
:102740003E0280E28C0F883008F057C0C77081E0ED
:1027500001C0880FCA95EAF7DF91CF911F910F91C1
:102760000C94801880914002481330C080913E0242
:1027700090913F020E94B523883C910538F510E204
:102780001D0FCD17B9F080E28C0F883040F4C77070
:1027900081E001C0880FCA95EAF70E9487181830B7
:1027A00028F581E09D2F977001C0880F9A95EAF770
:1027B0000E948018802F0E9477181830F0F4D7708C
:1027C00081E001C0880FDA95EAF70AC080E28C0F39
:1027D000883098F4C77081E001C0880FCA95EAF785
:1027E000DF91CF911F910F910C948718802FDF916B
:1027F000CF911F910F910C947718DF91CF911F917A
:102800000F9108950F939C01CB01243F4CE53407B1
:1028100031F188F4293DFCE53F07D9F02A3D4CE52C
:10282000340779F1283D3C45A9F506E221EE41EE59
:1028300068ED7CE52BC0263FFCE53F07E1F0A8F002
:10284000273F3C4539F507E225EE46EE67EF7CE58C
:102850001DC007E225EE45EE69ED7CE517C006E2F6
:1028600021EE40EE64EF7CE511C007E225EE44EE78
:1028700065EF7CE50BC006E221EE42EE66EF7CE5FB
:1028800005C008E221E045EE6AED7CE50E948F1369
:1028900080E008C0FC018281882319F01092400278
:1028A00001C081E00F910895CF93DF93EC01FB010C
:1028B0008281882309F41FC1C230FCE5DF0708F4D8
:1028C0001BC1C6319CE5D90738F09E012B5F3C4502
:1028D0002930310508F010C10E94A92190936603A8
:1028E00080936503C031ECE5DE0709F4C3C008F04E
:1028F00041C0C8308CE5D80709F49AC0F0F4C43060
:10290000ECE5DE0709F487C068F4C2308CE5D8072F
:1029100009F477C0C330DC4509F0E3C0809165035A
:10292000826076C0C630ECE5DE0709F46EC008F0C0
:102930007BC08091650388606BC0CC308CE5D80784
:1029400009F485C068F4CA30ECE5DE0709F474C008
:1029500008F079C00E940D1B80916503806858C003
:10296000CE308CE5D80709F476C008F07FC080919E
:1029700065038BC0CC3FECE5DE0709F44FC018F5CA
:10298000C3318CE5D80709F47DC078F4C131ECE59A
:10299000DE0709F473C0C231DC4509F0A2C00E9411
:1029A0000D1B809165038F7733C0C5318CE5D80747
:1029B00009F472C008F486C0CB3FDC4509F091C031
:1029C000809166033EC0C115FDE5DF0709F45FC0D5
:1029D00058F4CE3F9CE5D90709F444C008F43FC041
:1029E0008091660382602DC0C230FDE5DF0709F4E7
:1029F00075C008F45DC0C330DD4509F072C080E0E9
:102A00006EC080916503816003C080916503806121
:102A10008093650366C08091650311C08091660351
:102A20008260809366035DC0809165038062F0CF11
:102A3000809165038064ECCF809165038860846039
:102A4000E7CF8160EECF809165038E7FE1CF8091EB
:102A500065038D7FDDCF80916503877FD9CF80911E
:102A6000660318C0809166038D7FDBCF809165037C
:102A70008F7ECECF809165038F7DCACF8091650315
:102A80008F7BC6CF80916503877F8B7FC1CF80917D
:102A900066038D7F8E7FC5CF8091650382FB2227E1
:102AA00020F991E0922790FB82F990FB83F9B0CF57
:102AB00080916603982F909591708E7F892B90FB63
:102AC00081F9AFCF0E940D1B8091650387FB222700
:102AD00020F991E0922790FB87F99ACF81E00E943C
:102AE000482280916503909166030E94BA210E945A
:102AF0000D1B80E001C081E0DF91CF910895CF935D
:102B0000DF9386319C4541F5EB010E94D920982F37
:102B10008A8120911F0130912001882379F09A7ACF
:102B200081E009F480E080934102911102C069E2E2
:102B300001C065E3C9010E94E3220AC080914102FD
:102B4000811102C069E201C065E3C9010E94EE2261
:102B50000E94272180E001C081E0DF91CF9108959C
:102B600090934702809346020895E0914602F091C7
:102B70004702309721F00190F081E02D099480E028
:102B80000895E0914602F0914702309799F0209124
:102B90002B01222359F02091650327FF07C0DC0198
:102BA0002C9111962C93119725E02C930280F381A0
:102BB000E02D09940895E0914602F0914702309784
:102BC00039F022E0DC012C930480F581E02D09949A
:102BD000089520914402309145022817390771F079
:102BE0009093450280934402E0914602F09147029F
:102BF000309721F00680F781E02D09940895209107
:102C00004202309143022817390771F09093430232
:102C100080934202E0914602F0914702309721F002
:102C20000084F185E02D099408950E94A923609302
:102C30005702709358028093590290935A026093FE
:102C40005302709354028093550290935602089554
:102C500085B7806885BF85B7806885BF089581E0A6
:102C600008950C942F1608950C9433160C94331673
:102C70000C9436160C9433160C943A160C943316A6
:102C80000E9428168AE891E20E940E240E943E16B5
:102C90000C943C160E9494230E9491060E945F248B
:102CA0000E94DB110E9468100C9438166F927F927C
:102CB0008F929F92AF92BF92CF92DF92EF92FF924C
:102CC0000F931F93CF93DF93CDB7DEB72A970FB63D
:102CD000F894DEBF0FBECDBF0E9434160E9433169B
:102CE0000E94C30681110E94151639E4832E32E03A
:102CF000932E00E010E0C02E802F0E945F065C0142
:102D0000F401619071904F01682679266114710475
:102D1000B1F40F5F1F4F0530110569F78FEF8983FD
:102D20008A831B820E949D238160782F9D838C83E0
:102D300049815A816B818D810E9414173AC080911C
:102D4000F30281FD0E946806D12CEE24E394F12C5D
:102D5000C3018E219F21892B29F10E9431168823DE
:102D6000A9F0DE82CF82AE20BF2081E0AB2809F43B
:102D700080E088870E949D238160782F9A878987C9
:102D80004E815F8168858A850E941417000F111F8C
:102D9000F801E75BFD4F80819181E826F926F182F9
:102DA000E08207C0D394EE0CFF1CFFE0DF12D0CF0F
:102DB000B0CF0E94AC100E9453130E9403090E94DE
:102DC000B515909148028917D1F00E94B5158093EE
:102DD00048022A960FB6F894DEBF0FBECDBFDF9132
:102DE000CF911F910F91FF90EF90DF90CF90BF9008
:102DF000AF909F908F907F906F900C9448042A968C
:102E00000FB6F894DEBF0FBECDBFDF91CF911F91FB
:102E10000F91FF90EF90DF90CF90BF90AF909F9079
:102E20008F907F906F900895DF92EF92FF920F93B3
:102E30001F93CF93DF93CDB7DEB72B970FB6F894E0
:102E4000DEBF0FBECDBFF42E052F162FE72ED82ED6
:102E500061110E94F920FE01319686E0DF011D928A
:102E60008A95E9F77E2D4F2D502F612F8D2D9E8154
:102E70000E94C61D2B960FB6F894DEBF0FBECDBFC5
:102E8000DF91CF911F910F91FF90EF90DF90089508
:102E9000FC01808191810E949A200895CF9388231C
:102EA00009F4A4C0C82F8238C1F40E94B51581FD71
:102EB0009DC069E380911F01909120010E94E3224F
:102EC0000E9427212FEF81EE94E021508040904016
:102ED000E1F700C0000069E319C0833801F50E94E2
:102EE000B51580FD83C063E580911F01909120019D
:102EF0000E94E3220E9427212FEF81EE94E02150CF
:102F000080409040E1F700C0000063E580911F0120
:102F1000909120010E94EE22CF910C9427218438B9
:102F2000C1F40E94B51582FD61C067E480911F0164
:102F3000909120010E94E3220E9427212FEF81EE31
:102F400094E0215080409040E1F700C0000067E429
:102F5000DDCF8CEF8C0F813AD0F46C2F80911F0164
:102F6000909120010E946322882349F06C2F809168
:102F70001F01909120010E94EE220E9427216C2FB8
:102F800080911F01909120010E94E322C5CF80E231
:102F90008C0F883048F4C77081E001C0880FCA9553
:102FA000EAF70E94DC20B8CFEBE5EC0FE33040F409
:102FB000F0E0E653FE4F808190E0CF910C94E9154C
:102FC000E8E5EC0FE73150F4F0E0EE0FFF1FE456B8
:102FD000FE4F80819181CF910C94FF15CD3E30F052
:102FE0008C2F0E941308CF910C94E508CF9108957F
:102FF000882309F464C0823879F40E94B51581FFF2
:103000005EC069E380911F01909120010E94E3223C
:103010000E94272169E310C08338B1F40E94B515DE
:1030200080FF4DC063E580911F01909120010E94B7
:10303000E3220E94272163E580911F0190912001E6
:103040000E94EE220C942721843879F40E94B51551
:1030500082FF35C067E480911F01909120010E949A
:10306000E3220E94272167E4E7CF9CEF980F913A73
:1030700010F4682FE1CF90E2980F983050F48770E9
:1030800091E001C0990F8A95EAF7892F0E94E2200A
:10309000D9CF9BE5980F933020F480E090E00C941A
:1030A000E91598E5980F973120F480E090E00C94B2
:1030B000FF158D3E20F00E946E080C94E5080895DF
:1030C0001F93CF93DF93182FEB010E944E17209789
:1030D00041F08FE99FE00197F1F700C000002197D0
:1030E000F6CF812FDF91CF911F910C94F817893380
:1030F00019F060E070E002C060E570E00C946018C8
:10310000882321F00E94DC200C9427210895882335
:1031100021F00E94E2200C9427210895CF92DF92A3
:10312000EF92FF920F931F93CF93DF937C01062FB3
:10313000C72FFC01D281158112951F700E94D220E9
:10314000882399F0DD2389F08C2F807F803421F053
:1031500080E2800F883048F082E00E9471210E9456
:10316000D22091E0D82ED92601C0D12CCC2EC294E9
:103170008FE0C8228C2D90E0FC01E659FF4F0C94A3
:10318000DC2C8C2F807FCF70882311F0C295C07FFC
:10319000DD2399F0CC2309F48DC180E2800F8830C3
:1031A00010F0011104C08C2F0E94DC2003C08C2F72
:1031B0000E94EC200E9427217DC1802F0E94F817D9
:1031C000CC2309F49CC180E2800F883010F00111FB
:1031D00004C08C2F0E94E22003C08C2F0E94F2209A
:1031E0000E9427218CC18C2F807FCF70803211F0FC
:1031F000C295C07F002319F00130C9F022C0DD2341
:1032000071F0112341F0113031F40E940C218C2B0C
:103210000E94142174C10E940C218C2B1DC011230B
:1032200019F0113009F46BC10E941D2125C0DD2366
:1032300021F0163008F063C10EC0153008F05FC1F0
:103240001BC0DD2361F0112331F0F701858180FF80
:1032500031C18F7085838C2F0E94801850C111233B
:1032600059F0093309F037C1FFEF27EE83E0F15041
:1032700020408040E1F72DC18C2F0E9487183FC16C
:103280008C2F86958695837019F0813061F037C157
:10329000DD2321F0802F9C2F937002C080E090E00E
:1032A0000E94E91534C1DD2321F0802F9C2F9370FB
:1032B00002C080E090E00E94FF1529C1802FDD232D
:1032C00019F00E94130802C00E946E080E94E508CF
:1032D0001EC18C2F837009F045C0D11114C1402F3D
:1032E000429546954770440F440F602F6F70862FAC
:1032F00090E0A0E0B0E0042E04C0880F991FAA1F40
:10330000BB1F0A94D2F704FF10C00FE010E020E0CA
:1033100030E004C0000F111F221F331F4A95D2F75F
:10332000009510952095309503C000E010E09801BD
:10333000C695C695C370BC01CD01602B712B822B45
:10334000932BC23049F058F4C13019F00E94171F76
:10335000DAC00E94051FD7C00E94291FD4C00E9456
:10336000031FD1C0DD2319F08C2F817001C0869519
:10337000882309F4C8C0402F429546954770440FF2
:10338000440F602F6F70862F90E0A0E0B0E0042E15
:1033900004C0880F991FAA1FBB1F0A94D2F704FF0D
:1033A00010C00FE010E020E030E004C0000F111F5B
:1033B000221F331F4A95D2F700951095209530951E
:1033C00003C000E010E09801C695C695C370BC012B
:1033D000CD01602B712B822B932BC23049F058F416
:1033E000C13019F00E94DC1F8EC00E94CA1F8BC022
:1033F0000E94EE1F88C00E943D1F85C0CF70DD2354
:1034000039F08C2F0E94631F802F0E9480187BC090
:10341000802F0E9487188C2F0E94841F74C0023F47
:1034200001F128F4003F41F0013FA1F03FC0033F0C
:10343000F9F0043F39F13AC0DD2341F0153008F0CE
:103440005EC08C2F8F710E94A91F59C0163008F0E2
:1034500056C0F7CFDD2339F08C2F8F710E94631F88
:103460004EC0DD23C9F38C2F8F710E94841F47C08B
:10347000DD2329F08C2F8F710E944E1F40C00E94C7
:10348000491F3DC0DD2349F0CF718C2F0E94631F7F
:1034900063E08C2F0E945C2132C081E00E94712188
:1034A000123068F182E00E94712129C0DD2331F0E1
:1034B000112391F2802F0E944E1721C0112399F2FF
:1034C000093349F49FEFE7EEF3E09150E040F0401C
:1034D000E1F700C00000802F0E94F81710C04C2FA9
:1034E0004F70602FC7010E9451040E94741E0FC0CC
:1034F0004C2F4F70602FC7010E94540408C088EF02
:103500008C0D843020F40E94B5150E944804DD2003
:10351000C9F00E94CE2080FD15C0F70112820E94E2
:10352000C8200E94631FC7010E94C31A0E94C820BE
:10353000DF91CF911F910F91FF90EF90DF90CF908F
:103540000C94841FDF91CF911F910F91FF90EF900A
:10355000DF90CF9008950F931F93CF93DF93EC01EB
:10356000688179818A810E94A5208C010E940020B7
:103570000E94F11EB801CE010E948E18DF91CF91FA
:103580001F910F910895CF93DF93EC01988189816A
:103590002B813C81232B31F08F3F31F481E09F3F21
:1035A00019F403C081E001C080E080FD19C0CE01A4
:1035B0000E94EA0381110CC00E94D220882381F06E
:1035C0008A81882369F082E0DF91CF910C94712188
:1035D000CE010E94AB1ACE01DF91CF910C94C103B2
:1035E000DF91CF91089580E090E00E94E91580E09E
:1035F00090E00E94FF150E94F9200E9409210E947C
:1036000027210E94160A0C94E50880911F019091D1
:1036100020010E94F9220C94F31A0E94E9200C94D4
:10362000051BE92FE295EF704E2F50E0FA0132971B
:10363000EE30F105B0F4E658FF4F0C94DC2C803FDF
:1036400091F018F4883E68F40EC0843F51F40BC02A
:10365000883E48F0813F29F406C093FB882780F913
:10366000089580E0089581E008950E949A200E94C4
:10367000111B0895CF93DF9300D000D01F92CDB7D8
:10368000DEB70F900F900F900F900F90DF91CF91BA
:103690000895CF93DF9300D000D000D0CDB7DEB730
:1036A00026960FB6F894DEBF0FBECDBFDF91CF9147
:1036B00008951F93CF93DF93C0915C0216E0809131
:1036C0005D02C81799F0D0E01C9FF0011D9FF00D1E
:1036D0001124E25AFD4F40815181628173818481BE
:1036E00095810E94491B2196C770E9CFDF91CF9148
:1036F0001F91089540918E0250918F026091900227
:103700007091910280919202909193020C94491BC6
:103710000F931F93CF93DF938091930282958F70C5
:1037200009F05DC080919002882309F458C080910F
:103730005C0210915D0260918E0270918F02C091C7
:103740009102D091920291E06F3F09F090E0292F11
:1037500006E0811709F443C0209721F07F3F21F054
:1037600030E003C031E001C0322F90E030FD34C0C2
:10377000089FF001099FF00D1124DF01A25ABD4FEF
:1037800011963C911197371327C03C91361324C0F2
:1037900012963C91129731111FC013964D915C9176
:1037A00014974C1B5D0B483C5105B0F4809193027B
:1037B0008F70806180939302ED59FD4F80818F70EF
:1037C000806180838EE892E00E94C31ADF91CF91DE
:1037D0001F910F910C94591B01968770BACFDF91FE
:1037E000CF911F910F9108959F92AF92BF92CF9268
:1037F000DF92EF92FF920F931F93CF93DF93CDB79A
:10380000DEB761970FB6F894DEBF0FBECDBF8C0157
:1038100085E0F801DE011D9601900D928A95E1F791
:10382000F80140815181E28090918E0260918F0277
:1038300020919102309192022115310531F06F3FB4
:1038400031F481E09F3F19F403C081E001C080E0C2
:10385000F82FF1709F2E80FD46C1F801A380B4803F
:103860008EE8C82E82E0D82EF0909002F501E21B7F
:10387000F30BFF2009F4DFC080919302E83CF105CF
:1038800008F09BC0282F207F09F052C0561313C0A8
:10389000491311C0FE2CE1100EC08F70806180931F
:1038A00093020E947A1BC6010E94C31A8091930260
:1038B000F801858358C1AB2831F05F3F31F481E0D6
:1038C0004F3F19F403C081E001C080E080FD03C0D8
:1038D00081E08E2502C080E090E0F82FF170FF2E8D
:1038E00080FF1CC080915C0220915D0236E082174F
:1038F00009F417C190E0389FF001399FF00D1124B1
:10390000E25AFD4F6181561306C06081461303C021
:103910006281E61203C001968770E9CFFE2CEE208B
:1039200009F421C1809193028160809393025AC06F
:10393000561306C0491304C0E11002C0F8019FC02D
:103940004D875E878D859E850E94351B882379F182
:10395000EE2069F120919302822F82958F7090E082
:10396000029774F080918E0290918F0298878F83D6
:103970001986BB86AA862C87CE0107960E94C31A99
:1039800086E0F801AEE8B2E001900D928A95E1F789
:103990000E94881B0E947A1B0DC0561729F14D8783
:1039A0005E878D859E850E94351B81112CC0C801C4
:1039B0000E94C31AFF24F394D6C0282F207F69F7F2
:1039C0007A2DB98AA88A6E2D89890E943A1B8EE8C1
:1039D00092E00E94C31A86E0F60111928A95E9F7F7
:1039E0000E947A1BF12CBFC04913D9CFE110D7CF69
:1039F000F8018583C8010E94C31A86E0F60111927E
:103A00008A95E9F7B0C0EE2091F220919302822FBF
:103A100082958F7090E002970CF4B2CF80918E0265
:103A200090918F029A8389831B82BD82AC822E8300
:103A3000CE010196A3CFE83CF10508F047C0FE2C6B
:103A4000EE2009F4B4CF561330C049132EC0209194
:103A5000930220FD21C0822F82958F70482F50E065
:103A600041155105C9F0F80125834F30510541F04A
:103A70008F5F982F9295907F822F8F70892B8583EF
:103A8000C8010E94C31A86E0F801AEE8B2E00190D6
:103A90000D928A95E1F742C086E0F801AEE8B2E007
:103AA00001900D928A95E1F75EC04D875E878D8506
:103AB0009E850E94351B811163CF809193028160A6
:103AC00080939302C8010E94C31A4DC07A2DB98A0F
:103AD000A88A6E2D89890E943A1B86E0F601119210
:103AE0008A95E9F71BC0EE2009F461CF4D875E8708
:103AF0008D859E850E94351BF82E882309F457CFAB
:103B000086E0F801AEE8B2E001900D928A95E1F707
:103B10008EE892E00E9448170E94881B0E947A1B40
:103B200022C04D875E878D859E850E949A20292F11
:103B300022952F70223028F49F7039F0811105C032
:103B40000BC0243028F49F7049F4805E883020F048
:103B5000C8010E94C31A9F2CF92C05C0F801958159
:103B6000907F99F7F9CF8F2D61960FB6F894DEBF4D
:103B70000FBECDBFDF91CF911F910F91FF90EF90BE
:103B8000DF90CF90BF90AF909F9008951F93CF93F9
:103B9000DF93CDB7DEB72C970FB6F894DEBF0FBE1C
:103BA000CDBF4F83588769877A878B879C87CE01E3
:103BB00007960E94F41B8823D1F09F8188852A856F
:103BC0003B85232B31F08F3F31F481E09F3F19F487
:103BD00003C081E001C080E080FD47C04F8158856F
:103BE00069857A858B859C850E94491B3EC086E04D
:103BF000FE013796DE01119601900D928A95E1F74C
:103C0000FF81E8856A857B856115710531F0EF3F9D
:103C100031F481E0FF3F19F403C081E001C080E08E
:103C200080FD23C020915D0230E0C90101968770BC
:103C3000992740915C0250E084179507F1F1F983D0
:103C4000EA837D836C8396E0929FD001939FB00DB1
:103C50001124A25ABD4FFE01319601900D929A9502
:103C6000E1F780935D020E94591B16E080915C028F
:103C700090915D02891771F1189FC0011124825A39
:103C80009D4F0E94F41B882329F1E0915C021E9F46
:103C9000F0011124E25AFD4F40815181628173810C
:103CA000848195810E94491B80915C0290E001967D
:103CB0008770992780935C02D9CF0E940D1B1092C8
:103CC0005D0210925C02EEE8F2E086E0DF011D92F8
:103CD0008A95E9F72C960FB6F894DEBF0FBECDBFDC
:103CE000DF91CF911F910895EF92FF920F931F9351
:103CF000CF93DF938C01892B09F46CC0F12CEE2457
:103D0000E394E8012196F8018491843740F48430EB
:103D100008F051C0813081F0823019F15BC08537E5
:103D200009F444C0A8F19CE7980F903708F052C0FE
:103D30008F770E94F81741C00E5F1F4FFE018491DC
:103D400090E2980F983050F48770FE2D01C0FF0F5D
:103D50008A95EAF78F2F0E94FC2014C00E944E170C
:103D60002DC00E5F1F4FFE01849190E2980F983096
:103D700060F48770FE2D01C0FF0F8A95EAF78F2F40
:103D80000E9402210E94272119C00E94F81716C024
:103D90000E5F1F4FFE01C491CC2381F08FE99FE09D
:103DA0000197F1F700C00000C150F6CF0E5F1F4F22
:103DB000FE01F49003C00E944E178E018F2D8823C0
:103DC00009F49FCFEFE9FFE03197F1F700C0000061
:103DD0008150F5CFDF91CF911F910F91FF90EF9020
:103DE0000895089508950C94F21E0C94F31E0E94F9
:103DF000F51E6093CA027093CB028093CC0290931D
:103E0000CD020C94F31A0C94F71E0F931F9300919C
:103E1000CA021091CB022091CC023091CD02602BCE
:103E2000712B822B932B1F910F910C94F71E0F93E4
:103E30001F930091CA021091CB022091CC023091C5
:103E4000CD0260237123822393231F910F910C9441
:103E5000F71E0F931F930091CA021091CB0220917D
:103E6000CC023091CD0260277127822793271F91C2
:103E70000F910C94F71E0C94F21E0E943B1F60934E
:103E8000C6027093C7028093C8029093C9020C9433
:103E9000F31A60E070E0CB010C943D1F0F931F9369
:103EA00041E050E060E070E08A019B0104C0000F37
:103EB000111F221F331F8A95D2F7C901B8011F9124
:103EC0000F910C943D1F0F931F9341E050E060E071
:103ED00070E004C0440F551F661F771F8A95D2F704
:103EE0008091C6029091C702A091C802B091C90208
:103EF0008A019B01082B192B2A2B3B2BC901B801E6
:103F00001F910F910C943D1F0F931F9341E050E0C0
:103F100060E070E004C0440F551F661F771F8A954C
:103F2000D2F740955095609570958091C60290911A
:103F3000C702A091C802B091C9028A019B0108235F
:103F400019232A233B23C901B8011F910F910C9417
:103F50003D1F0F931F9341E050E060E070E004C00C
:103F6000440F551F661F771F8A95D2F78091C602AE
:103F70009091C702A091C802B091C9028A019B0129
:103F8000082719272A273B27C901B8011F910F913C
:103F90000C943D1F0F931F930091C6021091C7020E
:103FA0002091C8023091C902602B712B822B932B78
:103FB0001F910F910C943D1F0F931F930091C60208
:103FC0001091C7022091C8023091C9026023712369
:103FD000822393231F910F910C943D1F0F931F93E6
:103FE0000091C6021091C7022091C8023091C90207
:103FF00060277127822793271F910F910C943D1FF3
:1040000008952FE0929F800D1124E82FE695E69504
:10401000E695877051E001C0550F8A95EAF785E073
:10402000E89FF0011124EC56FD4F20E030E070E0F5
:104030004081CB01022E02C0969587950A94E2F743
:104040008170819584278523842781932F5F3F4F3B
:104050002530310569F708952FE0929F800D1124D6
:10406000682F669566956695982F977085E0689F8E
:10407000B001112440E050E080E0FB01E40FF51FA7
:10408000EC56FD4F208130E0092E02C03695279571
:104090000A94E2F721703327042E01C0220F0A94FC
:1040A000EAF7822B4F5F5F4F4530510531F7089596
:1040B000BF92CF92DF92EF92FF920F931F93CF9315
:1040C000DF938C01C090C602D090C702E090C80276
:1040D000F090C9028091CA029091CB02A091CC02CB
:1040E000B091CD02C82AD92AEA2AFB2ACFE1D0E032
:1040F000D701C6010C2E04C0B695A7959795879554
:104100000A94D2F780FD04C0219790F7B12C07C024
:10411000BC2EB8018C2F0E9470040197A9F38B2D3F
:10412000DF91CF911F910F91FF90EF90DF90CF9093
:10413000BF900895CF93DF93EC010E945820BE01F9
:104140000E947004DF91CF9108951F93CF93DF9366
:10415000EB0190915B02992321F0CB010E949A2000
:1041600013C0882349F0CB010E945820182F682FD4
:10417000CE010E94012004C0CB010E942C20182FE8
:10418000BE01812F0E947004DF91CF911F9108958D
:104190008091CE0285958595859508958091CE0272
:1041A000877008959091CE02977081E009F480E0C5
:1041B00008958091F20208959091F202892B8093E4
:1041C000F202089580959091F20289238093F20281
:1041D00008951092F20208959091F102892B809334
:1041E000F102089580959091F10289238093F10264
:1041F00008951092F10208959091F002892B809316
:10420000F002089580959091F00289238093F00246
:1042100008951092F00208958091CF0208950895B4
:104220000C940F210C9410219091CF02981721F03B
:104230008093CF020C94122108958091CF0288239D
:1042400029F01092CF0280E00C9412210895E091A1
:104250001F01F09120018091F2028083E0911F0103
:10426000F091200190818091F102892B8083E0916F
:104270001F01F091200190818091F002892B8083B1
:104280008091CF02882381F0E0911F01F0912001FD
:104290009081892B808380911F01909120010E9441
:1042A0004D2281110E941D2180911F0190912001BA
:1042B0000C94C1150C940F2198E0899F9001112452
:1042C000262B2093CE020E94631F8091CE028595FB
:1042D000859585950C945A211092CE0280E00C941D
:1042E0005A212091CE02809582238093CE02982F6E
:1042F000977079F430E0482F082E000C550B2417E6
:10430000350739F08595859585950E94841F0C9415
:104310006C21089580E0089580E090E00E948A2D4D
:1043200021E08B3E9E4F09F020E0822F089582E02D
:1043300090E00C947C2D682F82E090E00C94902DFE
:1043400083E090E00C947C2D682F83E090E00C9447
:10435000902DCF9384E090E00E947C2DC82F81E2C5
:1043600090E00E947C2D2C2F30E0A901582BCA012F
:10437000CF910895CF93C92F682F84E090E00E94D9
:10438000902D6C2F81E290E0CF910C94902D86E0DF
:1043900090E00C947C2D682F86E090E00C94902D9A
:1043A000AB01BC018FE090E00C94A22DAB01BC01ED
:1043B00083E190E00C94A22D60E070E0CB010C94BE
:1043C000D62160E070E0CB010E94D0210C94DC216A
:1043D0006BEE7EEF80E090E00E94AE2D60E082E028
:1043E00090E00E94902D60E083E090E00E94902D8C
:1043F0001092CA021092CB021092CC021092CD02FF
:1044000060E084E090E00E94902D60E081E290E026
:104410000E94902D60E085E090E00E94902D60E089
:1044200086E090E00E94902D6FEF87E090E00E9480
:10443000902D40E050E0BA0188E090E00E94A22D6B
:1044400060E08DE090E00E94902D40E050E0BA01E5
:1044500088E190E00E94A22D60E087E190E00E9458
:10446000902D40E050E0BA018CE190E00E94A22D36
:1044700060E080E290E00E94902D40E050E0BA01C0
:1044800088E190E00E94A22D0C94E1210C94E82197
:10449000682F8EE090E00C94902DFC013296809174
:1044A0002B01882331F08091650387FF02C09EE1D4
:1044B00001C096E080E0915028F021912223D9F3A9
:1044C0008F5FF9CF0895662351F120912B012223AC
:1044D000E9F02091650327FF19C0462F46954695C0
:1044E00046954E31E0F4677021E030E002C0220FC3
:1044F000331F6A95E2F7FC01E40FF11D828190E021
:104500002823392381E0232B69F409C0FC0132966A
:1045100008962191621729F0E817F907D1F780E092
:10452000089581E008959C01FC0132969FEF80E0A0
:104530004191461789F09F3F19F4411101C0982F0E
:104540008F5F8630A9F79F3F39F0F901E90FF11D20
:1045500097FDFA956283089508959C012A5F3F4F65
:10456000FC014281461301C0128201968217930713
:10457000B9F70895262F2695269526952E3168F4AD
:10458000FC01E20FF11D677021E030E001C0220F55
:104590006A95EAF78281282B22830895262F269593
:1045A000269526952E3170F4FC01E20FF11D6770FF
:1045B00021E030E001C0220F6A95EAF72095828160
:1045C00028232283089520912B01222329F0209172
:1045D000650327FD0C94BA220C94932220912B01A1
:1045E000222329F02091650327FD0C94CE220C9400
:1045F000AD2220912B01FC013296222331F08091D3
:10460000650387FF02C08EE101C086E0DF011D92D5
:104610008A95E9F7089508950C940B230C940B23C5
:10462000CF930E940E230E94C3060E940C23C0E079
:104630008C2F0E945F06892B29F4CF5FC530C1F70C
:1046400080E001C081E0CF9108950C940B230C947D
:10465000252380916B03843009F42EC00E94272308
:1046600080E00E94EA1280E00E9448040E94D70F76
:104670001092F40220E488E190E00FB6F894A89537
:10468000809360000FBE2093600083B7817F8460B9
:1046900083BF83B7816083BF7894889583B78E7F0B
:1046A00083BF0FB6F894A8958091600088618093CD
:1046B0006000109260000FBE08950C940B230E94BE
:1046C0000D1B0E94DB110E94B5150E9448040E9438
:1046D000A3100C945D231F920F920FB60F9211241A
:1046E0008F939F93AF93BF938091F402811113C076
:1046F0008091610390916203A0916303B091640380
:104700004196A11DB11D8093610390936203A09314
:104710006303B0936403BF91AF919F918F910F900A
:104720000FBE0F901F90189582E084BD93E095BD59
:104730009AEF97BD80936E0008952FB7F8948091FB
:10474000610390916203A0916303B09164032FBF52
:1047500008952FB7F894609161037091620380917E
:104760006303909164032FBF08959C014FB7F894A1
:104770008091610390916203A0916303B0916403FF
:104780004FBF821B930B089578941F920F920FB620
:104790000F9211248F939F93AF93BF9380916103E6
:1047A00090916203A0916303B09164030196A11DEF
:1047B000B11D8093610390936203A0936303B09350
:1047C0006403BF91AF919F918F910F900FBE0F9097
:1047D0001F90189581E08093E00080E28093D800DC
:1047E0001092C9008FE19EE40197F1F700C000002C
:1047F00087E090EBDC018093740390937503A093A2
:104800007603B09377039CE088E10FB6F894A895FF
:10481000809360000FBE90936000FFCF9093CF0114
:104820008093CE010895AF92BF92CF92DF92EF9224
:10483000FF920F931F93CF93C0E0CC24C394D12C4D
:10484000E82EF12C8C2F0E945F065C0100E010E046
:10485000C601002E02C0880F991F0A94E2F78A2130
:104860009B21892B31F40F5F1F4F0F30110581F70A
:104870000AC0602F7C2F80E00E945504E816F906DC
:1048800091F781E004C0CF5FC530E1F680E0CF91C1
:104890001F910F91FF90EF90DF90CF90BF90AF905E
:1048A0000895CF93C82F8CE20E941324882321F00F
:1048B0008C2FCF910C94132480E0CF910895CF9347
:1048C0000E948C21811102C00E944622C5E6C1507F
:1048D00049F00E94C3068FE39CE90197F1F700C0FD
:1048E0000000F5CF89E20E94512481112AC18AE299
:1048F0000E94512481110E94462285E00E94512489
:1049000081110E94EA230E9497218093F30287E09D
:104910000E9451248823A9F18BE10E94512488230D
:1049200051F08091F30281FB222720F991E0922738
:1049300090FB81F90EC08EE00E945124882361F023
:104940008091F30282FB222720F991E0922790FBCD
:1049500082F98093F30215C080E10E945124909166
:10496000F302882341F093FB222720F981E082277C
:1049700080FB93F904C0892F809580FB90F9909378
:10498000F3028091F3020E949B210E94A92190933F
:1049900066038093650380EE0E945124882341F0D2
:1049A00080916503982F909590FB80F98093650323
:1049B00089E30E945124882359F08091650381FB8B
:1049C000222720F991E0922790FB81F980936503DB
:1049D00082EE0E945124882359F08091650382FB66
:1049E000222720F991E0922790FB82F980936503BA
:1049F00086EE0E945124882359F08091650383FB41
:104A0000222720F991E0922790FB83F98093650398
:104A100083EE0E945124882359F08091650384FB22
:104A2000222720F991E0922790FB84F98093650377
:104A300085E30E945124882359F08091650385FB0A
:104A4000222720F991E0922790FB85F98093650356
:104A500081E30E945124882359F08091650386FBED
:104A6000222720F991E0922790FB86F98093650335
:104A700081E10E945124882359F08091650387FBCE
:104A8000222720F991E0922790FB87F98093650314
:104A900080916503909166030E94BA2187E20E948B
:104AA0005124C82F8EE10E9451248111C2608FE1F0
:104AB0000E9451248111C46080E20E94512481111E
:104AC000C86081E20E9451248111C06182E20E948B
:104AD00051248111C06283E20E9451248111C0647B
:104AE00084E20E945124882311F0C06802C0CC23C4
:104AF00029F08C2F0E94A4216C2F03C00E94A021BA
:104B0000682F70E080E090E00E94031F6091C60271
:104B10007091C7028091C8029091C9020E943B1F08
:104B20008FE00E945124882319F081E00E944822DE
:104B300085E10E945124882321F080E0CF910C94DC
:104B40004822CF910895809115030895CF93DF9364
:104B500000D01F92CDB7DEB790916B03943019F55A
:104B600089837B836A8382E08093E9008FEF909151
:104B7000E800815095FD06C095ED9A95F1F700008B
:104B80008111F5CF8091E80085FF0DC040E050E035
:104B900063E070E0CE0101960E94D8278091E80082
:104BA0008E778093E8000F900F900F90DF91CF9158
:104BB0000895BC0184E00C94A625BC0183E00C940C
:104BC000A62522E02093E9002FEF3091E800215044
:104BD00035FD06C035ED3A95F1F700002111F5CF0E
:104BE0002091E80025FF0BC040E050E066E070E057
:104BF0000E94D8278091E8008E778093E80008957E
:104C0000CF93DF9320912B01222339F0209165036C
:104C100027FF03C060E222E002C068E021E02093A9
:104C2000E9002FEF3091E800215035FD06C035ED49
:104C30003A95F1F700002111F5CF2091E80025FF0A
:104C40001DC0EC0180912B01811105C040E050E0B6
:104C500068E070E003C070E040E050E0CE010E94E8
:104C6000D8278091E8008E778093E80080E2FE01EB
:104C7000A5EFB2E001900D928A95E1F7DF91CF9117
:104C8000089580916A03811109C00E9469290E94D8
:104C9000C6298091E20084608093E200089510921A
:104CA0006A03089508950895089542E061EC81E053
:104CB0000E94E22842E261EC82E00C94E2288091BA
:104CC0006D03833009F460C030F4813071F08230BC
:104CD00009F499C008958A3009F485C08B3009F42D
:104CE0006BC0893009F0A7C020C080916C03813A65
:104CF00009F0A1C08091E800877F8093E80080914F
:104D0000700390917103892B21F460E285EF92E0AA
:104D100003C060E080E090E070E00E942328809172
:104D2000E8008B778093E800089580916C038132CE
:104D300009F081C08091700390917103029708F08F
:104D40007AC08091E800877F8093E8008091E80036
:104D500082FD05C080916B038111F8CF6CC020915A
:104D6000F3008091F20090E0922B029729F4809159
:104D7000F1008B7F813021F48091F1008093150345
:104D80008091E8008B7753C080916C03813A09F0E1
:104D900052C08091700390917103892B09F04BC030
:104DA0008091E800877F8093E8008091E80080FF91
:104DB000FCCF80912B0136C080916C038132D9F5F4
:104DC0008091700390917103892BA9F58091E8007F
:104DD000877F8093E8000E94172980916E0380935B
:104DE0002B010C940D1B80916C03813221F5809175
:104DF000E800877F8093E8000E94172980916F0365
:104E000080931603089580916C03813AA1F48091F8
:104E1000E800877F8093E8008091E80080FFFCCF66
:104E2000809116038093F1008091E8008E77809343
:104E3000E8000C941729089584B7877F84BF0FB6C4
:104E4000F894A8958091600088618093600010922A
:104E500060000FBE90E080E80FB6F8948093610088
:104E6000909361000FBE0E9440160E9469290E9423
:104E7000C6298091E20084608093E20078940E94C9
:104E80005B2C0E944A1681E291E00E94B01580914D
:104E90006B038530A9F480916B03853079F40E940F
:104EA0002923809169038823B1F30E94102388236A
:104EB00091F30E94C2270E940D1BEDCF0E945F2339
:104EC0000E9456160E9434160E943316E0CF0C94AE
:104ED0006927292F332723303105C9F060F42130A9
:104EE000310581F02230310509F044C08BE390E0B8
:104EF00022E235E043C021323105E1F022323105B2
:104F000049F138C082E190E02DE535E037C09927BE
:104F10008130910549F028F0029761F5E0E0F5E075
:104F200005C0EEE1F5E002C0ECE0F5E0849190E030
:104F30009F0124C06115710541F061307105D1F404
:104F400089E090E02DE435E019C089E090E024E3A9
:104F500035E014C06115710541F06130710551F4FF
:104F600086EB90E02FE635E009C080E490E025E292
:104F700036E004C080E090E020E030E0FA013183C8
:104F80002083089580E189BD82E189BD09B400FED6
:104F9000FDCF8091D8008F7D8093D8008091E00074
:104FA00082608093E0008091E00081FDFCCF089555
:104FB000CF92DF92EF92FF920F931F93CF93DF93E5
:104FC000EC018B017A010E943629811133C0E11472
:104FD000F10439F0F70180819181081B190BC80F8A
:104FE000D91FC12CD12C0115110519F18091E800B0
:104FF00085FD16C08091E8008E778093E800E1146B
:10500000F10449F0F70180819181C80ED91ED18247
:10501000C08285E00FC00E943629882321F30AC090
:1050200089918093F10001501109FFEFCF1ADF0A37
:10503000DACF80E0DF91CF911F910F91FF90EF9039
:10504000DF90CF900895209172033091730326175B
:10505000370748F06115710539F42091E8002E7783
:105060002093E80001C0B901FC0120E06115710541
:1050700079F180916B038823F1F18530F1F1809112
:10508000E80083FD3CC08091E80082FD2EC0809145
:10509000E80080FFEBCF2091F3008091F20090E0D8
:1050A000922B6115710551F08830910538F42191EA
:1050B0002093F100615071090196F3CF21E0089728
:1050C00009F020E08091E8008E778093E800CECF51
:1050D0002111CFCF0AC080916B03882361F0853006
:1050E00061F08091E80083FD0AC08091E80082FFB2
:1050F000F2CF80E0089582E0089583E0089581E092
:10510000089520917203309173032617370748F0F2
:105110006115710539F42091E8002E772093E8009D
:1051200001C0B901FC0120E06115710591F1809188
:105130006B03882309F440C0853009F43FC0809197
:10514000E80083FD3DC08091E80082FD2FC0809182
:10515000E80080FFE9CF2091F3008091F20090E019
:10516000922B6115710559F08830910540F4249116
:105170002093F1003196615071090196F2CF21E040
:10518000089709F020E08091E8008E778093E8008E
:10519000CBCF2111CCCF0AC080916B03882361F063
:1051A000853061F08091E80083FD0AC08091E800BD
:1051B00082FFF2CF80E0089582E0089583E00895B1
:1051C00081E00895982F973068F59093E90098173B
:1051D00039F07091EC002091ED005091F00003C087
:1051E000242F762F50E021FD02C09F5FECCF30913D
:1051F000EB003E7F3093EB003091ED003D7F30932C
:10520000ED003091EB0031603093EB007093EC00D7
:105210002093ED005093F0002091EE0027FDE5CFA4
:1052200080E008958F708093E90081E00895809177
:105230006C0387FF11C08091E80082FD05C080915A
:105240006B038111F8CF11C08091E8008B770BC000
:1052500080916B03882349F08091E80080FFF8CFAC
:105260008091E8008E778093E80008952091E40013
:105270003091E50095E64091EC00842F817040FF6D
:1052800023C08091E80080FD1DC080916B038823BE
:1052900099F0853099F08091EB0085FD11C0409127
:1052A000E4005091E5002417350729F3915011F0DF
:1052B0009A01E1CF84E0089582E0089583E00895A3
:1052C00081E0089580E008954091E80042FFDDCF3D
:1052D00008950E94D7290E94DF29E0EEF0E0808146
:1052E00081608083E8EDF0E080818F77808319BC56
:1052F000A7EDB0E08C918E7F8C9380818F7E808330
:1053000010926A0308950F931F93CF93DF930E9427
:10531000D7290E94DF29C8EDD0E088818F77888364
:1053200088818068888388818F7D888319BC1092EA
:105330006B0310926703109269031092680300EEEA
:1053400010E0F80180818B7F808388818160888371
:1053500042E060E080E00E94E228E1EEF0E080813F
:105360008E7F8083E2EEF0E08081816080838081A7
:1053700088608083F80180818E7F8083888180614E
:105380008883DF91CF911F910F910895E8EDF0E0B0
:1053900080818F7E8083E7EDF0E080818160808373
:1053A00084E082BF81E080936A030C948329E8ED56
:1053B000F0E080818E7F80831092E2000895109249
:1053C000DA001092E10008951F920F920FB60F922B
:1053D00011242F933F934F935F936F937F938F93FA
:1053E0009F93AF93BF93EF93FF938091E10082FF70
:1053F0000BC08091E20082FF07C08091E1008B7FAB
:105400008093E1000E945A2C8091DA0080FF1FC037
:105410008091D80080FF1BC08091DA008E7F80933E
:10542000DA008091D90080FF0DC080E189BD82E162
:1054300089BD09B400FEFDCF81E080936B030E941B
:10544000412605C019BC10926B030E944F26809123
:10545000E10080FF19C08091E20080FF15C08091BB
:10546000E2008E7F8093E2008091E2008061809371
:10547000E2008091D80080628093D80019BC85E05A
:1054800080936B030E9453268091E10084FF30C01B
:105490008091E20084FF2CC080E189BD82E189BD5A
:1054A00009B400FEFDCF8091D8008F7D8093D80095
:1054B0008091E1008F7E8093E1008091E2008F7EF9
:1054C0008093E2008091E20081608093E20080910D
:1054D0006703882311F084E007C08091E30087FD13
:1054E00002C081E001C083E080936B030E945426D8
:1054F0008091E10083FF29C08091E20083FF25C0F5
:105500008091E100877F8093E10082E080936B03CC
:10551000109267038091E1008E7F8093E10080917B
:10552000E2008E7F8093E2008091E20080618093B0
:10553000E20042E060E080E00E94E2288091F0001A
:1055400088608093F0000E945226FF91EF91BF91F6
:10555000AF919F918F917F916F915F914F913F910B
:105560002F910F900FBE0F901F9018951F920F92C2
:105570000FB60F9211242F933F934F935F936F9326
:105580007F938F939F93AF93BF93CF93DF93EF93CB
:10559000FF93C091E900CF708091EC00D82FD170BB
:1055A00080FDD0E81092E9008091F000877F809321
:1055B000F00078940E94FA2A1092E9008091F0009D
:1055C00088608093F000CD2BCF70C093E900FF91ED
:1055D000EF91DF91CF91BF91AF919F918F917F918B
:1055E0006F915F914F913F912F910F900FBE0F9050
:1055F0001F9018951F93CF93DF93CDB7DEB7AA976F
:105600000FB6F894DEBF0FBECDBFECE6F3E080919D
:10561000F100819323E0E437F207C9F70E945F2687
:105620008091E80083FF2EC180916C0390916D03FF
:10563000492F50E04A30510508F024C1FA01E857DB
:10564000FF4F0C94DC2C803821F0823809F01AC10D
:1056500008C08091680390916903992389F0826062
:105660000FC0809170038F70873008F00BC180935A
:10567000E9008091EB0085FB882780F91092E90012
:105680009091E800977F9093E8008093F10010924A
:10569000F100D1C0282F2D7F09F0F4C0882319F024
:1056A000823061F0EFC080916E03813009F0EAC072
:1056B000933009F080E0809369032EC080916E03DF
:1056C00081112AC0809170038F702FEF280F263030
:1056D00008F0D8C08093E9002091EB0020FF1CC0A7
:1056E000933021F48091EB00806214C09091EB0024
:1056F00090619093EB0021E030E0A90102C0440FDB
:10570000551F8A95E2F74093EA001092EA008091D3
:10571000EB0088608093EB001092E9008091E80034
:10572000877F8093E8000E941729ACC08111AAC02E
:1057300010916E031F778091E3008078812B809316
:10574000E3008091E800877F8093E8000E9417299A
:105750008091E80080FFFCCF8091E3008068809317
:10576000E300111102C082E001C083E080936B036B
:1057700089C08058823008F085C080916E03909176
:105780006F038C3D53E0950779F583E08A838AE2C5
:1057900089834FB7F894DE01139620E03EE051E292
:1057A000E32FF0E050935700E49120FF03C0E2950F
:1057B000EF703F5FEF708E2F90E0EA3010F0C796E9
:1057C00001C0C0968D939D932F5F243149F74FBF41
:1057D0008091E800877F8093E8006AE270E0CE0164
:1057E00001960E94232816C0609170037091710386
:1057F000AE014F5F5F4F0E946727BC01892B09F400
:1058000041C09091E800977F9093E80089819A8148
:105810000E9481288091E8008B778093E80032C055
:10582000803881F58091E800877F8093E80080913F
:1058300067038093F1008091E8008E7772CF811129
:1058400021C080916E0390916F0399270297D4F441
:105850008091E800877F8093E80080916E038093B9
:1058600067030E94172980916703811106C0809108
:10587000E30087FD02C081E001C084E080936B03F8
:105880000E9455268091E80083FF0AC08091E800BD
:10589000877F8093E8008091EB0080628093EB002B
:1058A000AA960FB6F894DEBF0FBECDBFDF91CF91A1
:1058B0001F9108950895CF9380916B038823A1F0E1
:1058C000C091E900CF709091EC00892F817090FD1C
:1058D00080E8C82B1092E9008091E80083FD0E94C7
:1058E000FA2ACF70C093E900CF910895DB018F931E
:1058F0009F930E94002DBF91AF91A29F800D911D9B
:10590000A39F900DB29F900D11240895991B79E0EB
:1059100004C0991F961708F0961B881F7A95C9F73F
:1059200080950895AA1BBB1B51E107C0AA1FBB1F8E
:10593000A617B70710F0A61BB70B881F991F5A951B
:10594000A9F780959095BC01CD01089597FB072E8E
:1059500016F4009407D077FD09D00E94922C07FC22
:1059600005D03EF4909581959F4F0895709561956F
:105970007F4F0895A1E21A2EAA1BBB1BFD010DC08B
:10598000AA1FBB1FEE1FFF1FA217B307E407F507EF
:1059900020F0A21BB30BE40BF50B661F771F881FCB
:1059A000991F1A9469F760957095809590959B0161
:1059B000AC01BD01CF010895EE0FFF1F0590F491DA
:1059C000E02D09940E94EA2C332312F48A1B9B0BCE
:1059D0000C94FB2CA29FB001B39FC001A39F700D3C
:1059E000811D1124911DB29F700D811D1124911DE7
:1059F00008950E94EA2CB7FF0895821B930B089527
:105A00000E94EA2CA59F900DB49F900DA49F800D3D
:105A1000911D11240895B7FF0C94002D0E94002DB4
:105A2000821B930B08958F929F92AF92BF92CF9259
:105A3000DF92EF92FF92CF93DF93EC01688179813F
:105A40008A819B81611571058105910521F464E2CC
:105A500079ED8BE597E02DE133EF41E050E00E94D6
:105A6000C42D49015A019B01AC01A7EAB1E40E948F
:105A7000002D6B017C01ACEEB4EFA50194010E94F6
:105A80000E2DDC01CB018C0D9D1DAE1DBF1DB7FF82
:105A900003C00197A109B04888839983AA83BB8377
:105AA0009F77DF91CF91FF90EF90DF90CF90BF90E5
:105AB000AF909F908F9008950E94132D089580E0DD
:105AC00091E00E94132D0895A0E0B0E080930001C2
:105AD00090930101A0930201B09303010895FC018A
