:100000000C94A2020C94DA020C94DA020C94DA0238
:100010000C94DA020C94DA020C94DA020C94DA02F0
:100020000C94DA020C94DA020C940D220C94E02267
:100030000C94141C0C94DA020C94DA020C94DA027C
:100040000C94DA020C94DA020C94DA020C94DA02C0
:100050000C94DA020C94AC1C0C94DA020C94DA02C4
:100060000C94DA020C94DA020C94DA020C94DA02A0
:100070000C94DA020C94DA020C94DA020C94DA0290
:100080000C94DA020C94DA020C94DA020C94DA0280
:100090000C94DA020C94DA020C94DA020C94DA0270
:1000A0000C94DA020C94DA020C94DA02165C1E004C
:1000B0001F0020002100220023002400250026002C
:1000C00027002D002E002A00A8002B0014001A0083
:1000D0000800150017001C0018000C001200130087
:1000E0002F00300031004C000251040016000700C0
:1000F00009000A000B000D000E000F003300340051
:10010000280000004B00E10000001D001B0006005D
:100110001900050011001000360037003800E50016
:1001200052004D00E000E200E3000000000000008B
:100130002C00000000000000E600E4005000510028
:100140004F00010001000100010001000100010059
:100150000100010001000100010001000100010097
:100160000100010001000100010001000100010087
:100170000100010001000100010001000100010077
:100180000100010001000100010001000100010067
:100190000100010001000100000001000100000059
:1001A0000100010001000100010001000100010047
:1001B00001000100010001000100E000E300E20095
:1001C0000000000000000100000000000000E60048
:1001D000E40001000100010035003A003B003C0052
:1001E0003D003E003F00400041004200430044000B
:1001F00045004C00AE000100A800A900010001006C
:10020000010001004B004E004A004D0001000100BA
:10021000005C49000100AC00AA00AB000100010035
:100220005000510052004F00010001000100000089
:100230004E0001000000010001000100010001006A
:1002400001000100105011500100390001004A0066
:10025000010001000100000000000000AE000000ED
:100260000000000001000100010001000100444500
:100270004255473A2064697361626C65642E0A00D6
:1002800044454255473A20656E61626C65642E0AAA
:10029000000A0025303258006C65645F7461736B2E
:1002A0003A20004F6E6573686F743A206163746919
:1002B00076653A2025640A000A002530313662004E
:1002C0003A200025303258000A722F632030313234
:1002D000333435363738394142434445460A0029DC
:1002E0000A002575002F002575005D280025640093
:1002F0002000256400200025640020002564007C87
:100300000025303258006D6F7573656B6579205B21
:1003100062746E7C782079207620685D2872657022
:100320002F61636C293A205B000A00253032582087
:10033000006B6579626F6172645F7265706F727471
:100340003A200064656C5F6B65795F6269743A207E
:1003500063616E27742064656C3A20253032580A38
:10036000006164645F6B65795F6269743A20636100
:100370006E2774206164643A20253032580A005B8D
:10038000735D005B575D005B535D005B525D005B1E
:10039000445D005B435D000E037A006F006F006DEB
:1003A0000036003500000012036D0065006C00652A
:1003B0000074007200690078000000040309040959
:1003C000025B00030100A0FA09040000010301011F
:1003D00000092111010001224000070581030800E6
:1003E00001090401000103000000092111010001BD
:1003F00022B600070582032000010904020002035F
:1004000000000009211101000122220007058303D9
:100410002000010705030320000112010002000073
:1004200000086B8004000100010200010631FF0991
:1004300074A1010975150026FF0095207508810239
:100440000976150026FF00952075089102C0050168
:100450000902A10185020901A10005091901290864
:100460001500250195087501810205010930093142
:100470001581257F95027508810609381581257F2C
:10048000950175088106050C0A38021581257F95AE
:100490000175088106C0C005010980A10185031905
:1004A000012AB700150126B700950175108100C01B
:1004B000050C0901A101850419012AA002150126D4
:1004C000A002950175108100C005010906A10185F2
:1004D00006050719E029E715002501950875018132
:1004E000020507190029EF1500250195F075018116
:1004F00002050819012905950575019102950175F7
:10050000039101C005010906A101050719E029E7CA
:100510001500250195087501810295017508810175
:100520000507190029FF150026FF009506750881AB
:1005300000050819012905950575019102950175B8
:10054000039101C011241FBECFEFDAE0DEBFCDBFA3
:1005500004B603FE18C08091E6029091E702A091D4
:10056000E802B091E9028730904BA740B04B59F4B4
:100570001092E6021092E7021092E8021092E9024D
:10058000E0E0F8E3099511E0A0E0B1E0E2EFFAE481
:1005900002C005900D92A63AB107D9F722E0A6EA6B
:1005A000B1E001C01D92A63EB207E1F70E94C4145B
:1005B0000C9446250C940000FF93EF93E091A60164
:1005C000F091A701309709F00995EF91FF910895F7
:1005D000FC018591803011F0EFDFFBCF0895FF27FC
:1005E000E0E230E247FF0CC0419597FF09C0EDE221
:1005F0006095709580959095611D711D811D911D6F
:1006000027FF02C0219530E350E2AA27660F771F2B
:10061000881F991FAA1FA41710F0A41B63955A9551
:10062000A9F7AA3008F0A95FA05DAF93F395611513
:1006300071058105910541F7ED3211F4EF93F395C2
:10064000F21718F43F93F395FBCF8F91B5DFFA952E
:10065000E1F70895E991F9918591803021F0853293
:1006600019F0AADFF9CF089520E0E89455915532AA
:10067000C1F3503311F4689455915A3348F45053F0
:1006800090F3220F022E220F220F200D250FF4CF00
:100690000EF4219589919991533619F3533729F125
:1006A000533559F1BC0188279927E8945C3621F429
:1006B0008991999168945591543639F446EF7EF0BA
:1006C00077FF0DC08FEF9FEF0AC055374AE039F032
:1006D000583540E121F0523642E009F00895FF9389
:1006E000EF937DDFEF91FF91B7CFFF93EF93FC0185
:1006F00081918030B9F360DFFBCFFF93EF9368DF28
:10070000F1CFDF93CF93CDB7DEB72596A3DFCF919F
:10071000DF910895A6E0B0E0E0E9F3E00C94BA249C
:100720008E836D834091DC015091DD016091DE018B
:100730007091DF018091E0019091E101A091E201CF
:10074000B091E3018A019B01082B192B2A2B3B2B2B
:10075000C901B8010E94C1041E81811110C011118C
:1007600009C00D816AE070E089EA011101C08AEADE
:100770000E943D0680E02696E4E00C94D6241111F8
:10078000F9CF0D816AE070E08BEA0111F1CF8CEABC
:10079000EFCFCF93DF93D62F0E948A03C82F8823F1
:1007A00039F08AEAD11189EA6AE070E00E943D06D8
:1007B0008C2FDF91CF91089581E0089581E0089515
:1007C0000E94DE03089508950E94E3030895A5E0C2
:1007D000B0E0EDEEF3E00C94BB2449835A833091F2
:1007E000A90189819A81311119C0662399F02223C8
:1007F00089F00E944B0B182F682F89819A810E94E3
:10080000270B69817A81812F0E94EE112596E3E002
:100810000C94D7240E94390B182FF3CF0E944B0B56
:1008200069817A81F1CFFC01262F4081518162815B
:10083000738184810E94E703089581E00895CF9336
:10084000DF93D82FC92F60E00E9413046D2F7C2FF7
:100850000E94E403DF91CF9108950E94351308951B
:100860000E943913089508950E9402090E943304DA
:100870002FEF84E39CE0215080409040E1F700C0DE
:10088000000008950E9434040E94D01C08950E9424
:1008900034040E94F41C08950F931F93CF93DF93A9
:1008A0008C0161E00E941304EC01B8010E94E00396
:1008B000811106C080E0DF91CF911F910F910895C3
:1008C000B801CE010E94E2198823A1F3B801CE013C
:1008D0000E94D517882371F3B801CE010E945419E4
:1008E000882341F3F8018281882381F0CB35FDE52F
:1008F000DF07D1F178F4C130ECE5DE07D9F0CF3D68
:10090000FCE5DF0749F1C115DC4589F0C8010E940B
:10091000DC03D1CFCD35DC0721F1C83AFDE5DF0797
:10092000E9F0CC35DD4591F70E94620FEFCF0E94D0
:100930004204C0CF90917602892F8E7F90FF816014
:100940008093760280FF05C080E892E00E94E80272
:10095000B1CF8EE692E0FACF0E941A100E944704AF
:10096000A9CF0E94540FD2CF0E945E0FCFCF0E941A
:10097000F01B0E944C0508950E9450050E94F51B33
:1009800008950F931F93462F572FBC01CB01AA2721
:10099000BB270097A105B105E9F1AC01BD0180E1DC
:1009A000052F162F272F3327011511052105310596
:1009B00019F0885FB901A8018A019B01F4E036951E
:1009C000279517950795FA95D1F70115110521057A
:1009D000310519F08C5FB901A8018A019B01E2E0A1
:1009E0003695279517950795EA95D1F701151105C5
:1009F0002105310519F08E5FB901A801769567953B
:100A000057954795452B462B472B09F08F5F1F9134
:100A10000F91089580E0C4CF829594E0899F900162
:100A200011242C7C869586958373282B30E0C90190
:100A3000880F991F8A7A359527952575822B0895F9
:100A4000CF93DF93D92F0E940C05C82F8D2F0E94C2
:100A50000C059C2FDF91CF91089508950E942D05DC
:100A6000089581E00895CF93C82F0E94310588230F
:100A700019F0C1FD03C08F9ACF9108958F98FCCFD4
:100A8000879A8F9A0895CF93C82F0E942E058C2F96
:100A90000E943305CF91089580E00E944305089598
:100AA0000E94411A0E9443050895CF930E94411A63
:100AB000C82F8091A8018C1739F1C093A8018091AB
:100AC000760282FF1EC080FF1CC088E992E00E946F
:100AD000E8028091760280FF14C01F92CF9383E9D1
:100AE00092E09F938F930E948103809176020F90F2
:100AF0000F900F900F9080FF04C081E992E00E9458
:100B0000E8028C2F0E944305CF910895ABE0B0E03E
:100B1000ECE8F5E00C94BC244F83588769877A870A
:100B20008B8761110E948C0E1E8285E0FE01379634
:100B3000DE01119601900D928A95E1F78C819D81DD
:100B4000892B61F449815A816B817C818D819E81E1
:100B50000E94AD0D2B96E2E00C94D82489819A81F5
:100B600089238F3F79F3CE0101960E941D048111E4
:100B7000E9CFF0CFFC01808191810E94850B08951F
:100B8000CF93C82F8823B9F08CEF8C0F813AA8F44B
:100B90006C2F80910001909101010E94F01A88232E
:100BA00029F08C2F0E944A0E0E94AD0E8C2F0E94BD
:100BB000420E0E94AD0ECF91089580E28C0F8830D6
:100BC00048F4C77081E001C0880FCA95EAF70E9417
:100BD0006D0EEFCF8BE58C0F833038F42C2F245221
:100BE000330BC9010E94B01AE6CFE8E5EC0FE731FC
:100BF00050F4F0E0EE0FFF1FE95EFE4F808191811F
:100C00000E94C61AD8CFCD3EB0F28C2F0E94481554
:100C10000E941B16D0CF882379F19CEF980F913A50
:100C200028F40E944A0E0E94AD0E089590E2980F9B
:100C3000983050F4877091E001C0990F8A95EAF7D7
:100C4000892F0E94730EEFCF9BE5980F933028F405
:100C500090E080E00E94B01A089598E5980F9731CF
:100C600028F490E080E00E94C61A08958D3E20F09E
:100C70000E94A2150E941B1608951F93CF93DF9325
:100C8000182FEB010E94C005209739F4812F0E9494
:100C90000B06DF91CF911F9108958FE99FE0019797
:100CA000F1F700C000002197EFCF70E060E08933DA
:100CB00011F460E570E00E943D060895882321F05C
:100CC0000E946D0E0E94AD0E0895882321F00E94AF
:100CD000730E0E94AD0E0895A5E0B0E0E2E7F6E0E5
:100CE0000C94B4246C016D837983FC011281F5802E
:100CF000F2948FE0F8220E94630EE82E8823B9F068
:100D0000E12E1123A1F08981807F803421F08D8133
:100D1000805E8830C8F08091C00282FF15C082E0FA
:100D20000E94100F0E94630E91E0E82EE92689814F
:100D300082958F70A82EB12C8C3008F06CC0F50114
:100D4000E85BFA4D0C94A624E12CF1CF09810F70D9
:100D5000F981F07F11F00295007F1123A1F00023AB
:100D600061F08D81805E883018F01D81111107C0FF
:100D7000802F0E946D0E0E94AD0E8D8144C0802F89
:100D80000E947E0EF8CF8D810E940B06002309F48D
:100D900042C08D81805E883018F01D81111104C021
:100DA000802F0E94730E03C0802F0E94840E0E9429
:100DB000AD0E31C009810F702981207F203211F0E2
:100DC0000295007F3D81332381F0313009F465C005
:100DD000112309F46FC0FF2009F465C0F601858175
:100DE00080FFCBCF8F7085835EC08091C00282FD73
:100DF00034C0112359F0002329F0802F0E946D0E7A
:100E00000E94AD0E80E00E94C00505C080E00E94F7
:100E10000B060111C5CF88E0A81AB10894E0A91605
:100E2000B10420F40E94411A0E944305EE2089F08B
:100E30000E945F0E80FD0DC0F60112820E94590EC5
:100E40000E94F009C6010E94C2080E94590E0E9429
:100E5000170A2596EAE00C94D024112389F0F110AA
:100E600006C00E948F0E802B0E945E06D4CF81E0C8
:100E7000F812F7CF0E948F0E802B0E94960ECBCFD8
:100E8000F11006C00E94A30E802F0E946506C3CFFA
:100E900091E0F91609F4BFCFF5CF112331F0E5E069
:100EA000EF1508F4B8CF802FDFCFF4E0FF1508F47A
:100EB000B2CFEACFFF2041F30D81093349F41FEF90
:100EC00027EE33E0115020403040E1F700C0000031
:100ED0008D810E940B069FCF8981869586958370B0
:100EE00069F0813009F097CF8D819981937011114C
:100EF00002C090E080E00E94C61A8DCF8D8199815A
:100F00009370111102C090E080E00E94B01A83CF6C
:100F10008D81112329F00E9448150E941B167BCF5A
:100F20000E94A215FACF8981837009F050C0111177
:100F300072CF2D81229526952770220F220F8D8149
:100F40008F7090E0B0E0A0E0022E04C0880F991FDF
:100F5000AA1FBB1F0A94D2F70D8140E050E0BA01EE
:100F600004FF0FC04FE050E060E070E004C0440FA9
:100F7000551F661F771F2A95D2F7409550956095AB
:100F8000709519811695169513701D838A019B0122
:100F9000082B192B2A2B3B2B09831A832B833C8389
:100FA0001D8169817A818B819C81123051F01330CF
:100FB00059F0113019F00E9478092DCF0E9456097E
:100FC0002ACF0E949A0927CF0E94530924CF8695E1
:100FD000112311F089818170882309F41CCF2D81A0
:100FE000229526952770220F220F8D818F7090E019
:100FF000B0E0A0E0022E04C0880F991FAA1FBB1FFB
:101000000A94D2F70D8140E050E0BA0104FF0FC00E
:101010004FE050E060E070E004C0440F551F661FD1
:10102000771F2A95D2F74095509560957095198154
:101030001695169513701D838A019B01082B192B99
:101040002A2B3B2B09831A832B833C831D816981C7
:101050007A818B819C81123051F0133059F011301C
:1010600019F00E948B0AD7CE0E94690AD4CE0E9442
:10107000AD0AD1CE0E94C209CECE09810F7009837C
:10108000112329F0802F0E94F0098D81EDCE8D81F2
:101090000E94650689810E94170ABDCE0D81023F1C
:1010A00059F160F4003FC1F0013F89F0112309F4C8
:1010B0004CC0F11062CE89818F7122C00D81033F37
:1010C00011F1043F99F78091C00282FD26C0898109
:1010D0008F71112301F314C0112349F014E01F157F
:1010E00008F499CE89818F710E94420A94CE25E03E
:1010F0002F1508F490CEF6CF89818F711111CBCFC7
:101100000E94F00988CE112329F089818F710E94F5
:10111000D50981CE0E94CF097ECE112359F00981D5
:101120000F710983802F0E94F00963E089810E947A
:10113000F20E71CE81E00E94100F11E01F1508F031
:101140006ACE82E00E94100F66CEF110B5CE898182
:101150008F71A1CF0F931F93CF93DF93EC01688121
:1011600079818A810E94920B8C010E94CF0A0E9491
:101170005209B801CE010E946C06DF91CF911F91F8
:101180000F910895CF93DF93EC018B819C81892B84
:1011900029F08881998189238F3F51F4DF91CF9184
:1011A0000895CE010E94AA08CE010E941F04F6CF26
:1011B000CE010E944C048111F4CF0E94630E88235B
:1011C00069F38A81882351F38091C00282FFE6CFC0
:1011D00082E00E94100FE2CF90E080E00E94B01AFF
:1011E00090E080E00E94C61A0E948C0E0E94AD0E14
:1011F0000E94B8160E941B1608950E94520E0E946B
:10120000EC0808950E947B0E0E94FD080895282F87
:1012100092959F70963091F060F4925F9F7092303B
:1012200030F481E0203F81F030F4283E30F080E05F
:1012300008959A5FF3CF243FD1F7089581E0283EC7
:10124000E0F3213FA1F7F9CF0895FC01808191815E
:101250000E94850B0E9407090895A5E0B0E0E3E332
:10126000F9E00C94BC242596E2E00C94D824A6E086
:10127000B0E0EDE3F9E00C94BC242696E2E00C9497
:10128000D82408950E94410908950E94420960935C
:10129000E0017093E1018093E2019093E3010E94E9
:1012A000EC08089508950E9445090895A4E0B0E06F
:1012B000ECE5F9E00C94BC2469837A838B839C83EE
:1012C0008091E0019091E101A091E201B091E301F0
:1012D00029813A814B815C81282B392B4A2B5B2B4E
:1012E000CA01B9010E9445092496E2E00C94D82471
:1012F000A4E0B0E0EEE7F9E00C94BC2469837A83C3
:101300008B839C838091E0019091E101A091E201A7
:10131000B091E30129813A814B815C8128233923F3
:101320004A235B23CA01B9010E9445092496E2E0E1
:101330000C94D824A4E0B0E0E0EAF9E00C94BC24DA
:1013400069837A838B839C838091E0019091E10192
:10135000A091E201B091E30129813A814B815C8146
:10136000282739274A275B27CA01B9010E94450966
:101370002496E2E00C94D8240E94410908950E942A
:10138000BC0908950E94BF096093DC017093DD01E0
:101390008093DE019093DF010E94EC08089560E0E5
:1013A00070E0CB010E94C2090895A4E0B0E0EBED2B
:1013B000F9E00C94BA2441E050E060E070E08A016A
:1013C0009B0104C0000F111F221F331F8A95D2F703
:1013D000C901B8010E94C2092496E4E00C94D62405
:1013E000A4E0B0E0E6EFF9E00C94BA2441E050E06C
:1013F00060E070E004C0440F551F661F771F8A9598
:10140000D2F78091DC019091DD01A091DE01B091D5
:10141000DF018A019B01082B192B2A2B3B2BC901C9
:10142000B8010E94C2092496E4E00C94D624A4E0FA
:10143000B0E0EDE1FAE00C94BA2441E050E060E065
:1014400070E004C0440F551F661F771F8A95D2F7BE
:1014500040955095609570958091DC019091DD01EB
:10146000A091DE01B091DF018A019B0108231923BD
:101470002A233B23C901B8010E94C2092496E4E053
:101480000C94D624A4E0B0E0E8E4FAE00C94BA248A
:1014900041E050E060E070E004C0440F551F661F5B
:1014A000771F8A95D2F78091DC019091DD01A091A0
:1014B000DE01B091DF018A019B01082719272A2745
:1014C0003B27C901B8010E94C2092496E4E00C94AC
:1014D000D624A4E0B0E0EFE6FAE00C94BC246983E3
:1014E0007A838B839C838091DC019091DD01A091B4
:1014F000DE01B091DF0129813A814B815C81282B8B
:10150000392B4A2B5B2BCA01B9010E94C2092496D0
:10151000E2E00C94D824A4E0B0E0E1E9FAE00C9415
:10152000BC2469837A838B839C838091DC019091B6
:10153000DD01A091DE01B091DF0129813A814B816B
:101540005C81282339234A235B23CA01B9010E9405
:10155000C2092496E2E00C94D824A4E0B0E0E3EBC6
:10156000FAE00C94BC2469837A838B839C838091FA
:10157000DC019091DD01A091DE01B091DF012981B4
:101580003A814B815C81282739274A275B27CA018A
:10159000B9010E94C2092496E2E00C94D82408956F
:1015A0009B01677091E001C0990F6A95EAF763E0CB
:1015B000369527956A95E1F765E0629FF001639F94
:1015C000F00D1124E40FF51F50E040E0682F70E0AB
:1015D0008191DF0111979B01042E02C0369527955A
:1015E0000A94E2F7217021952827292328272C9394
:1015F0004F5F5F4F4530510559F708959C01982F73
:10160000977083E0369527958A95E1F785E0829F6C
:10161000F001839FF00D1124E60FF71F50E040E02A
:1016200080E0219130E0092E02C0369527950A947A
:10163000E2F721703327042E01C0220F0A94EAF743
:10164000822B4F5F5F4F4530510559F70895282F82
:10165000862F953068F42F3058F4622F70E02FE019
:10166000929F600D711D11244AEA51E00E94D00A38
:101670000895292F953068F48F3058F490E06AEA85
:1016800071E03FE0239F800D911D11240E94FE0A0E
:10169000089580E00895B0E0A0E0E1E5FBE00C945F
:1016A000B5248C01C090DC01D090DD01E090DE011A
:1016B000F090DF018091E0019091E101A091E201C1
:1016C000B091E301C82AD92AEA2AFB2ACFE1D0E067
:1016D000BC2ED701C6010C2E04C0B695A7959795D0
:1016E00087950A94D2F780FD09C0219788F7B12C1D
:1016F0008B2DCDB7DEB7E9E00C94D124B8018C2F47
:101700000E940812019789F3F3CFCF93DF93D82F6C
:10171000C92F0E944B0B6D2F7C2F0E940812DF9166
:10172000CF9108951F93CF93DF93162FD72F9091CA
:10173000A901992341F0862F972F0E94850BDF91F5
:10174000CF911F910895882381F0862F972F0E94B3
:101750004B0BC82F682F812F9D2F0E94270B612FC5
:101760007D2F8C2F0E940812EACF862F972F0E9480
:10177000390BC82FF4CF1F93CF93DF93E091E4018F
:1017800016E08091E5018E1304C0DF91CF911F9187
:101790000895CE2FD0E01E9FF0011124EA51FE4F94
:1017A0004081518162817381848195810E943709D2
:1017B000FE013196E770E5CF409116025091170275
:1017C000609118027091190280911A0290911B0287
:1017D0000E94370908951F93CF93DF9380911B02D6
:1017E000807F09F049C080911802882309F444C021
:1017F0008091E401C091E501609116027091170299
:10180000A0911902B0911A02D62FD72316E0C8175B
:1018100099F190E0109711F0DF3F19F4019687706D
:10182000F6CF189F9001199F300D1124F901EA514C
:10183000FE4F41814713F2CF40814613EFCF4281E3
:101840004111ECCF438154814A1B5B0B483C51054D
:1018500028F780911B028F70806180931B02F90131
:10186000E551FE4F80818F708061808386E192E038
:101870000E94C2080E94BB0BDF91CF911F91089577
:10188000ABE0B0E0E6E4FCE00C94B4248C0185E02D
:10189000F801DE01179601900D928A95E1F7F801A3
:1018A000E28086E1C82E82E0D82E60911902709104
:1018B0001A026115710509F434C190911602209144
:1018C0001702822F89238F3F09F42BC14081518158
:1018D000A380B480F0901802F501E61BF70BFF20FF
:1018E00009F4D1C080911B02382F307FE83CF1050C
:1018F00008F0A3C031116DC0FE2C521316C0941312
:1019000014C0E11012C08F70806180931B020E948E
:10191000DC0BC6010E94C20880911B02F80185837E
:101920008F2D2B96EAE00C94D024A114B10429F059
:10193000852F84238F3F09F00DC180E0F82FF170CF
:10194000DF2EE091E4012091E50136E080FD1CC02E
:10195000EE2031F380911B02816080931B02F12CF9
:10196000DFCF8E2F90E03E9FF0011124EA51FE4F11
:101970006181561306C06081641303C06281E61260
:10198000E7CFFC013196E770E213EBCF4F83588726
:101990008F8198850E94850B292F22952F70903278
:1019A00060F0225F2F70223078F49F7051F0F801C0
:1019B0009581907F31F4D12C0AC09F7011F088235B
:1019C000D1F3805E8830B8F3C8010E94C208FD2CB4
:1019D000A7CF521306C0941304C0F801EE2009F4F7
:1019E0006DC0C8010E942509882319F1EE2009F174
:1019F00080911B02803270F0209116023091170204
:101A00003A8329831B82BD82AC828E83CE010196EC
:101A10000E94C20886E0F801A6E1B2E001900D92B2
:101A20008A95E1F70E94EB0B0E94DC0BFF24F394F4
:101A300077CFC8010E94C208F9CF311113C07A2DA7
:101A4000BB86AA866E2D8B850E942D0986E192E0C9
:101A50000E94C20886E0F60111928A95E9F70E9479
:101A6000DC0B7DCF5213BDCF9413BBCFE110B9CFA8
:101A7000F8018583C8010E94C20886E0F601119230
:101A80008A95E9F74DCFE83CF10508F03DC0FE2C02
:101A9000EE2079F252132AC0941328C080911B02C1
:101AA00080FD1BC0982F907FC1F0F8018583903F87
:101AB00031F0982F907F905F8F70892B8583C801BC
:101AC0000E94C20886E0F801A6E1B2E001900D9202
:101AD0008A95E1F70E94DC0B23CF86E0F801A6E1AE
:101AE000B2E001900D928A95E1F71ACFC8010E94E9
:101AF000250981118FCF80911B02816080931B0289
:101B0000C8010E94C2080CCF7A2DBB86AA866E2D12
:101B10008B850E942D0986E0F60111928A95E9F7DE
:101B2000D9CFEE2009F485CFC8010E942509F82EEF
:101B3000882309F47ECF86E0F801A6E1B2E00190A7
:101B40000D928A95E1F786E192E00E94BA050E9423
:101B5000EB0BC0CF81E08E25F1CEACE0B0E0E3EB43
:101B6000FDE00C94BB244F83588769877A878B8765
:101B70009C87CE0107960E94400C882369F08A85D5
:101B80009B85892B39F04F815885842F85238F3F82
:101B900009F071C016E065C086E0FE013796DE01EF
:101BA000119601900D928A95E1F76A857B85611502
:101BB000710581F35F814885842F85238F3F51F321
:101BC0002091E50130E0C901019687709927E091E5
:101BD000E401E817190671F40E9402091092E50168
:101BE0001092E40186E0E6E1F2E0DF011D928A95C1
:101BF000E9F7D0CF59834A837D836C8396E0929F27
:101C0000D001939FB00D1124AA51BE4FFE01319611
:101C100001900D929A95E1F78093E5010E94BB0B2C
:101C2000B9CF819FC00111248A519E4F0E94400C60
:101C30008823E9F0E091E4011E9FF0011124EA51AC
:101C4000FE4F4081518162817381848195810E9420
:101C500037098091E40190E001968770992780937D
:101C6000E4018091E4019091E5018913DACF2C968B
:101C7000E3E00C94D72469857A858B859C850E9446
:101C8000370988CF682F80910001909101010E944F
:101C9000961B0895682F80910001909101010E9488
:101CA000A41B089580910001909101010E94B21B34
:101CB000089580913C02859585958595089580913C
:101CC0003C028770089590913C02977081E009F47E
:101CD00080E0089580915F02089590915F02982BB3
:101CE00090935F020895982F909580915F028923C9
:101CF00080935F02089510925F02089590915E02B2
:101D0000982B90935E020895982F909580915E0293
:101D1000892380935E02089510925E020895809157
:101D20003D02089508950E94920E08959091C00278
:101D300092FF08C090913D02981721F080933D02D8
:101D40000E94930E089580913D02882329F01092FD
:101D50003D0280E00E94930E0895CF93DF93E091BF
:101D60000001F091010180915F028083E091000108
:101D7000F0910101808190915E02892B8083909186
:101D80003D02992381F0E0910001F09101018081F1
:101D9000892B808380910001909101010E94DC1ABF
:101DA00081110E94A30EC0910001D091010140E277
:101DB00050E06CE172E0CE010E94F724892B59F0CB
:101DC00080E2FE01ACE1B2E001900D928A95E1F76C
:101DD000CE010E944E1ADF91CF91089508950E947E
:101DE000EE0E08959091C00292FF11C098E0899F75
:101DF00090011124622B60933C020E94F0098091B3
:101E00003C028595859585950E94EF0E08950E9468
:101E1000F009089510923C0280E00E94EF0E0895B0
:101E200090913C028095892380933C02282F277053
:101E300091F4282F082E000C330B9217130659F03B
:101E40009091C00292FF07C08595859585950E9467
:101E5000170A0E940A0F0895CF93C82F8091C002DD
:101E600082FB992790F99C17E9F0C0FB82F98093D7
:101E7000C0028091BF029091C0020E94900F82E048
:101E80000E94100F8091760280FF0CC01F92CF93AA
:101E900083EA92E09F938F930E9481030F900F90AB
:101EA0000F900F90CF9108958091C00282FB8827F8
:101EB00080F991E089270E942C0F089581E00E940B
:101EC0002C0F089580E00E942C0F08956FEF7FEF94
:101ED00090E080E00E943025089590E080E00E942C
:101EE0000C259C0181E0283E3E4F09F080E00895DA
:101EF00082E090E00E940425089583E090E00E9433
:101F000004250895CF9384E090E00E940425C82F13
:101F100082E290E00E940425982F8C2FCF910895A3
:101F2000CF93682FC92F84E090E00E9412256C2F78
:101F300082E290E00E941225CF910895AB01BC018E
:101F40008FE090E00E9424250895AB01BC0183E15D
:101F500090E00E942425089560E070E0CB010E948B
:101F6000A50F089560E070E0CB010E949E0F0E94D3
:101F7000AC0F089568EE7EEF90E080E00E9430257F
:101F800060E082E090E00E94122560E083E090E053
:101F90000E9412251092E0011092E1011092E201DC
:101FA0001092E30160E084E090E00E94122564E07A
:101FB00082E290E00E94122560E085E090E00E94BD
:101FC000122560E086E090E00E9412256FEF87E026
:101FD00090E00E94122540E050E0BA0188E090E0D5
:101FE0000E94242560E08DE090E00E94122540E0F0
:101FF00050E0BA0188E190E00E94242560E087E18A
:1020000090E00E94122540E050E0BA018CE190E09F
:102010000E94242570E060E080E290E00E9430257C
:1020200040E050E0BA0188E190E00E9424250E943F
:10203000B20F08950E94BA0F0895682F8EE090E0C5
:102040000E94122508950E94801C60937202709372
:102050007302809374029093750260936E02709382
:102060006F02809370029093710208950E94801C09
:10207000609372027093730280937402909375025E
:1020800060936A0270936B0280936C0290936D026E
:102090000895089508950E944A10089508950E9491
:1020A0004E1008958AEE9EE10E94371A0E94491050
:1020B0000E944B10089581E008950E945B100895DE
:1020C000089508950E9460100E94611008950E9472
:1020D00002130E94400508950E946B1C0E942A145E
:1020E0000E9467100E94D8180E944F100895A5E022
:1020F000B0E0EDE7F0E10C94B1240E944014B82E5A
:1021000081110E94231050E6852E52E0952E10E09A
:1021100000E0702E802F0E943C137C01F401C190DE
:10212000D1904F01C816D90609F444C080917602B7
:1021300081FD0E944513C6018E259F25A12CCC242C
:10214000C394D12C9C012C213D21232B69F10E94A9
:102150005D108823B1F0A9827A82EC20FD2081E015
:10216000E114F10409F480E08B830E94741C816007
:10217000782F9D838C8349815A816B818D810E9448
:102180008605000F111FF801E05AFD4F80819181F3
:10219000C826D926D182C08281E0B11001C080E07A
:1021A0002596EDE00C94CD24A394CC0CDD1CFFE02F
:1021B000AF12C8CF0F5F1F4F0530110509F0A9CF2F
:1021C0008FEF89838A831B820E94741C8160782F21
:1021D0009D838C8349815A816B818D810E94860504
:1021E000DBCF0E9477100E94F61881110E943610F2
:1021F0000E94D9160E9455050895CF93DF930E943F
:102200000D12EC01811522E5920708F062C08115DC
:1022100031E5930708F0B5C0883E910518F5803E7A
:102220009105B8F5883A910570F4853A910508F062
:10223000A2C08130910569F10497813A910548F176
:10224000D0E0C0E026C0885A91094797C8F7C85A1D
:10225000D0E0CC0FDD1FCB5BDE4F0990D881C02DC5
:10226000D46417C0811540E59407B8F4C11580E423
:10227000D80708F083C0CF3FD10509F028F4CD3E40
:10228000D105F0F2D06505C0CE019A9581159F4128
:10229000B8F6CE01DF91CF910895F4E09695879539
:1022A000FA95E1F783702C2F26952695237040E24E
:1022B000249F90011124382B8C2F8370C1E0D0E033
:1022C00002C0CC0FDD1F8A95E2F7C22BD32BDC684E
:1022D000E0CFC11586E5D80730F5C11595E5D907DA
:1022E00008F063C0C11524E5D207C0F49C2F969571
:1022F00096959E0123703327C115D34508F046C03B
:10230000C1E0D0E002C0CC0FDD1F2A95E2F720E249
:10231000929FC0011124C82BD92BD9CFDC2FCC27F9
:10232000C46FD06AB6CFC1153AE5D30788F4C1159A
:1023300049E5D40708F044C0CE0198558F3F910578
:1023400011F008F07DCFDC2FCC27C06FD06AA1CF71
:10235000CE0190568115904208F072CF8D2F8F716B
:102360000E94A51290E0982F882788279F719C01D2
:102370002C2BE90123C0A497D0648BCFDF70D06AE7
:1023800088CFD82FCC27C16FD06A83CFC1E0D0E0EF
:1023900002C0CC0FDD1F2A95E2F730E2939FC00107
:1023A0001124C82BD92BDA6874CF8C2F0E94A51268
:1023B000C82FD0E0DC2FCC27CC27DF71D06269CFCB
:1023C0008C2F8F700E94A51234E0D695C7953A9550
:1023D000E1F7CF70DC2FC82FD0695BCF7530A8F440
:1023E0006F3098F4E62FF0E09FE0799FE00DF11D4B
:1023F00011249BE4899FE00DF11D1124EE0FFF1FB6
:10240000E455FF4F85919491089580E090E0089500
:102410000E94EE110E94FD100895803E910599F1F1
:10242000C8F48133910509F476C048F489329105E6
:1024300009F46AC08A32910509F474C00895893399
:102440009105D1F082389105B9F08533910509F4F1
:1024500054C00895843E910599F138F4823E910567
:10246000F9F0833E910509F10895863E910599F1B1
:10247000873E9105B9F108952091BF022370A1F024
:1024800080EE90E008952091BF0220FD52C030916F
:10249000C00230FF09C024FF4FC090E080E004C0BC
:1024A0002091BF0222FDF7CF08952091BF0222FDA7
:1024B00046C03091C00230FDE3CF24FFF5CFEDCF11
:1024C0002091C00221FFF0CF8091BF0284FDE5CFB3
:1024D00087EE90E008952091BF0223FFE5CF24FD11
:1024E000DCCFF6CF2091BF0223FD2CC03091C0027B
:1024F00031FFE3CF84EE90E008952091BF0225FFE5
:10250000D3CF89E290E008952091BF0225FFCCCF80
:1025100085E390E008952091BF0226FFC5CF8AE2AF
:1025200090E008952091BF0226FFBECF81E390E0A6
:10253000089589E390E0089583EE90E0089582EE97
:1025400090E0089586EE90E008959091BF0292FF8A
:1025500006C0282F28712830F9F4877F846093FF04
:1025600006C0282F28712831F1F4877E84612091DC
:10257000C00220FF06C0382F38713830D9F4877F69
:10258000816021FF06C0282F28712831D1F4877E71
:10259000816194FD877E0895282F24712430F9F6F7
:1025A0008B7F8860DCCF282F2471243101F78B7E4C
:1025B0008861DDCF382F3171313019F78E7F886017
:1025C000E0CF282F2171213121F78E7E8861E1CF64
:1025D0000E94660F08950E9440148FE39CE90197C2
:1025E000F1F700C000000E94401480E00E943C13FC
:1025F00080FF04C00E94E8120E94D01C08950E942F
:10260000EB120895A4E0B0E0E8E0F3E10C94BC2400
:102610000E946D0F811102C00E941A100E94780F53
:10262000809376020E94820F9093C0028093BF0233
:102630000E94FF120E947D0F282F30E050E040E002
:10264000CA01B9010E9453098091DC019091DD011A
:10265000A091DE01B091DF01BC01CD010E94BF0954
:102660002496E2E00C94D82408950E94341308952F
:1026700008950E9438130895E82FF0E0EE0FFF1F31
:10268000E553FD4F808191810895B0E0A0E0EBE437
:10269000F3E10C94B62488EC92E00E94E8028BEC03
:1026A000E82E82E0F82ED0E0C0E093ECC92E92E054
:1026B000D92E0AEB12E0DF93CF93DF92CF920E94E4
:1026C000810380EC92E00E94E802F70181919191F0
:1026D0007F010E9420059F938F931F930F930E9469
:1026E000810388EB92E00E94E80221968DB79EB7A5
:1026F00008960FB6F8949EBF0FBE8DBFC530D105AA
:10270000D1F6CDB7DEB7E8E00C94D22480EA8A9502
:10271000F1F7089500C008950E9486130895F89473
:10272000E82FE295EF70F0E041A18F7021E030E0FA
:10273000B90102C0660F771F8A95E2F7CB01962F89
:102740009095942391A392A1892B82A378940895C4
:10275000CF93DF93C2E8D1E089918F3F11F00E94BF
:102760008F1381E0C738D807B9F7C3E7D1E0899163
:102770008F3F11F00E948F1381E0C238D807B9F75C
:10278000DF91CF910895B0E0A0E0E9ECF3E10C9483
:10279000B524EC01B62E062F10E0C8018E579E4FCF
:1027A0007C01FC0120812F3F09F44CC0F894E22FFA
:1027B000E295EF70F0E031A12F7081E090E001C070
:1027C000880F2A95EAF7932F982B91A392A18095D1
:1027D000892382A378940E948A13E3E7F1E041E021
:1027E00050E0D12CC12C21912F3F89F1A22FA2952D
:1027F000AF70B0E090968C9190E02F7002C09595EC
:1028000087952A95E2F780FD22C0CA01C82AD92AF5
:10281000440F551F81E0E238F80729F7F70180815E
:102820008F3F11F00E948F1361E0C114D10409F4AD
:1028300060E08B2D0E948C13000F111FC00FD11F61
:10284000D982C882CDB7DEB7E9E00C94D12490E0FC
:1028500080E0DCCF0E94A8138AE0EBECF2E0DF011D
:10286000982F1D929A95E9F7E1ECF2E0DF011D92B5
:102870008A95E9F785E00E947D140E942D04089551
:10288000AAE0B0E0E6E4F4E10C94B9248E010F5F15
:102890001F4F8AE0F80111928A95E9F7F12C6F2D0C
:1028A000C8010E94C313F394F5E0FF12F8CF4AE089
:1028B00050E0B80181EC92E00E94F7249C01FF24D3
:1028C000F394892B09F4F12C232B41F08AE0F801D1
:1028D000A1ECB2E001900D928A95E1F72F2D45E031
:1028E0006BEC72E081EC92E00E947E140E94300456
:1028F0008F2D2A96E5E00C94D5240895FF920F932E
:102900001F93CF93DF93F82E092F162FD72FC42FA5
:10291000222349F081E0809379020E94741C9093F5
:10292000780280937702809179028823A1F08091C8
:102930007702909178020E949D1C059760F0EF2D20
:10294000F02FA12FBD2F90E080E0D0E08C179D07E5
:102950003CF010927902CDB7DEB7E5E00C94D524B7
:10296000219131912D933D930196F0CF0E94661FE6
:102970000E946C100E94731F08950E94781F0E948D
:10298000F1100E94961F08950E940D1C0E944C1F7A
:102990000E9452100E94B6140E94BD140E94621040
:1029A000FBCF8091800280FF0DC06091070170E035
:1029B000660F771F6038710570F56115710569F153
:1029C000862F089581FF07C06091070184E0689F0A
:1029D000B0011124EFCF6091070182FD0AC0809100
:1029E0007F028823A9F020910601609107018217D8
:1029F00010F088E0ECCF869FC001112433E0880FEF
:102A0000991F3A95E1F7622F70E00E949224D2CF8D
:102A100068E070E0D5CF8FE7089581E00895809158
:102A2000800280FF0CC06091030170E0759567958E
:102A3000759567956115710549F1862F089581FF98
:102A400006C06091030170E075956795F3CF6091C2
:102A5000030182FD0BC090917E029923A1F0609149
:102A6000020180910301961738F0682F70E06038FA
:102A7000710500F38FE70895899FC001112470E06C
:102A80000E949224F4CF61E070E0D7CF81E00895F6
:102A90008D3E31F40E94D114819580938402089573
:102AA0008E3E19F40E94D114F8CF8F3E31F40E946B
:102AB000D1148195809383020895803F19F40E9478
:102AC000D114F8CF893F29F40E940F158093850215
:102AD00008958A3F21F40E940F158195F7CF8B3F0F
:102AE00031F40E940F1581958093860208958C3FE2
:102AF00019F40E940F15F8CF9FE0980F983070F4EA
:102B0000815F990B21E030E001C0220F8A95EAF73E
:102B100080918202822B8093820208958D3F31F44E
:102B20008091800281608093800208958E3F21F41D
:102B3000809180028260F7CF8F3FB9F78091800249
:102B40008460F1CF409183028D3E59F480918402DC
:102B500087FF0DC01092840241110BC010927F02BA
:102B600008C08E3E81F48091840218169CF34423A1
:102B700081F08091850290918602892B09F05AC0DC
:102B800010927E0208958F3E49F447FFF0CF1092D5
:102B90008302809184028111ECCFE0CF803F19F451
:102BA0001416ACF3E4CF90918502893F29F41916ED
:102BB000F4F610928502DBCF8A3F19F497FFD7CF46
:102BC000F8CF909186028B3F29F497FFD0CF1092D7
:102BD0008602CDCF8C3F19F41916CCF3C8CF9FE0F5
:102BE000980F983090F4815F990B21E030E0B901A3
:102BF00002C0660F771F8A95E2F7CB01809590910E
:102C00008202892380938202B2CF8D3F31F480917A
:102C100080028E7F80938002AACF8E3F21F4809124
:102C200080028D7FF7CF8F3F09F0A1CF8091800286
:102C30008B7FF0CF08958091760283FF7EC086E07F
:102C400093E00E94E802809182021F928F9381E0BC
:102C500093E09F938F930E9481038FEF92E00E94F5
:102C6000E80280918302282F082E000C330B3F933B
:102C70008F938CEF92E09F938F930E9481038AEF52
:102C800092E00E94E80280918402282F082E000C16
:102C9000330B3F938F9387EF92E09F938F930E9424
:102CA000810385EF92E00E94E80280918502282F3F
:102CB000082E000C330B3F938F9382EF92E09F938B
:102CC0008F930E94810380EF92E00E94E80280913E
:102CD0008602282F082E000C330B3F938F938DEE26
:102CE00092E09F938F930E9481038AEE92E00E946C
:102CF000E80280917F021F928F9387EE92E09F936C
:102D00008F930E94810385EE92E00E94E8028091F9
:102D100080021F928F9382EE92E09F938F930E9486
:102D200081038FED92E00E94E8028DB79EB74C962A
:102D30000FB6F8949EBF0FBE8DBF0E94741C2091E9
:102D4000830230918402232B21F080937C029093A4
:102D50007D022091850230918602232B21F0809301
:102D60007A0290937B0281E892E00E94A11A089572
:102D700086E0E1E8F2E0DF011D928A95E9F7109222
:102D80007F0210927E02109280020895FC018281DF
:102D900081110DC0838181110AC08481811107C016
:102DA00081E09581911101C080E08170089581E0FA
:102DB000FCCFA6E0B0E0EFEDF6E10C94BB2486E09A
:102DC000E1E8F2E0DE01119601900D928A95E1F7BB
:102DD0001092830210928402109285021092860251
:102DE0008B819C81892B89F080917C0290917D025E
:102DF0000E949D1C9C0180917F028823C9F19091C3
:102E000008019217130608F440C08D819E81892B1A
:102E100091F080917A0290917B020E949D1C9C010E
:102E200080917E02882309F471C090910401921769
:102E3000130608F479C0BE016F5F7F4F81E892E00E
:102E40000E94C41B811105C081E892E00E94C61651
:102E500081110E941B1686E0FE013196A1E8B2E0C6
:102E600001900D928A95E1F72696E3E00C94D72421
:102E7000409109019AE0499FA0011124421753078C
:102E800020F68F5F80937F0202C08F3FD1F71B81B6
:102E9000112359F00E94D1149FEF11160CF491E008
:102EA000899F802D1124809383021C81112359F066
:102EB0000E94D1149FEF11160CF491E0899F802D90
:102EC00011248093840230918302332309F49DCF2F
:102ED00020918402222309F498CF45EB3403C001EA
:102EE0001124992359F09093830245EB2403900118
:102EF0001124332339F03093840287CF81E080930B
:102F00008302F3CF81E0809384027FCF409105015B
:102F10009AE0499FA00111244217530708F08BCF74
:102F20008F5F80937E0202C08F3FD1F71D811123F6
:102F300059F00E940F159FEF11160CF491E0899F34
:102F4000802D1124809385021E81112359F00E9447
:102F50000F159FEF11160CF491E0899F802D11241D
:102F60008093860230918502332309F464CF209147
:102F70008602222309F45FCF45EB3403C0011124FC
:102F8000992359F09093850245EB24039001112475
:102F9000332339F0309386024ECF81E0809385024F
:102FA000F3CF81E08093860246CFCF93DF93EC018D
:102FB000FB018281882309F4F2C0C236FDE5DF07F8
:102FC00049F048F5C631ECE5DE07E0F4C230FCE537
:102FD000DF07F0F00E94820F9093C0028093BF023F
:102FE000C631ECE5DE0748F5C230FCE5DF07C0F48A
:102FF0008091BF029091C0020E94900F0E9402092E
:1030000080E006C09E012B5F3C452930310510F35E
:10301000DF91CF910895C63A9DE5D907C9F7DACF78
:10302000FE01E350FC458091BF028160E331F10570
:1030300028F5EC5AFA4D0C94A624C4308DE5D80737
:1030400070F4CB3F9CE5D90798F2FE01EC5FFC459C
:10305000E830F10510F5E959FA4D0C94A624C23672
:10306000EDE5DE0709F494C09091BF02892F8E7FB1
:1030700090FF8160C63ADD4509F0BACF8093BF0268
:10308000B7CF8091BF028260F9CF8091BF02846088
:10309000F5CF8091BF028860F1CF8091C00281603E
:1030A0008093C002A5CF8091C0028260F9CF809149
:1030B000BF028061E3CF8091BF028062DFCF809149
:1030C000BF028064DBCF0E9402098091BF0280684A
:1030D000D5CF8091BF028C60D1CF8091C002836038
:1030E000DFCF8091BF028E7FC9CF8091BF028D7FDD
:1030F000C5CF8091BF028B7FC1CF8091BF02877FF8
:10310000BDCF8091C0028E7FCBCF8091C0028D7FDA
:10311000C7CF8091BF028F7EB1CF8091BF028F7DDC
:10312000ADCF8091BF028F7BA9CF0E940209809111
:10313000BF028F77A3CF8091BF02837F9FCF809103
:10314000C0028C7FADCF8091BF0282FB992790F99E
:1031500021E0922790FB82F990FB83F98FCF809139
:10316000C002982F909591708E7F892B90FB81F9EA
:1031700097CF0E9402099091BF02892F97FB87F990
:1031800080587CCF81E00E941D1032CF80E0FBCFC1
:103190009091BF02892F8F7E94FF80616FCF81E075
:1031A00037CF8FE891E00197F1F700C00000089554
:1031B00081E0809388022198299A2098289A0E9479
:1031C000D118209188024AE852E0FA018E2F841B20
:1031D000821708F0089583B186958170189904C00C
:1031E00090E0892B8193F2CF92E0FBCFB0E0A0E09A
:1031F000ECEFF8E10C94B624F12CE12C82E0C82E1F
:10320000D12C80918802F81630F08E2DCDB7DEB724
:10321000E8E00C94D2240F2D10E0E3B1E695E170C4
:10322000189940C080E08E2BD801A657BD4FEC9175
:103230009E2F93709817A1F1EE0FEE0FE82BEC93F1
:10324000EF70F0E0E957FE4FE801C757DD4F80818E
:103250009881890F888320E082305CF0F801E9577B
:10326000FD4F80818F5F808361E08F2D0E94C903B5
:1032700021E088818F3F5CF4F801E957FD4F8081A0
:103280008150808360E08F2D0E94C90321E08881F6
:10329000082E000C990BB6010E9492248883E22A22
:1032A000F394AFCF82E0BFCFCF93DF93EB018631B2
:1032B0009C4511F50E946A0E9A81992399F08A7AA9
:1032C00091E009F490E090938B02811109C089E2AA
:1032D0000E94420E0E94AD0E80E0DF91CF910895D2
:1032E00085E3F6CF80918B02811104C089E20E94B0
:1032F0004A0EF0CF85E3FBCF81E0EFCF0F931F9312
:10330000CF93DF93C42FD22FFC0182818823C9F091
:1033100040938E020E94741C90938D0280938C02C5
:1033200080E28C0F883040F4C77081E001C0880FC4
:10333000CA95EAF70E945E06DF91CF911F910F9127
:10334000089510918E02141332C080918C029091D6
:103350008D020E949D1C883C910548F5C0E2CD0F6E
:103360001D17B9F080E2810F883040F4177081E0BA
:1033700001C0880F1A95EAF70E946506C83048F424
:1033800081E09D2F977001C0880F9A95EAF70E94FF
:103390005E06802F0E945506C83070F6D77081E017
:1033A00001C0880FDA95EAF70E946506C5CF80E272
:1033B0008C0F883008F6C77081E001C0880FCA956D
:1033C000EAF7F2CF0F939C01CB01243F4CE5340781
:1033D000A1F190F4293DFCE53F0749F12A3D4CE578
:1033E0003407E9F1283D3C45C1F0FC018281882386
:1033F000E1F110928E0219C0263FFCE53F0719F15A
:10340000273F4CE5340729F1253F3C4571F707E29A
:1034100025EE44EE65EF7CE505C006E221EE41EEC7
:1034200068ED7CE50E947E1980E00F91089507E227
:1034300025EE45EE69ED7CE5F5CF06E221EE40EEA6
:1034400064EF7CE5EFCF06E221EE42EE66EF7CE52D
:10345000E9CF07E225EE46EE67EF7CE5E3CF08E231
:1034600021E045EE6AED7CE5DDCF81E0DECF909393
:10347000A7018093A60108959093940280939302EC
:103480000895E0919302F0919402309729F0019011
:10349000F081E02D0995089580E00895EF92FF9264
:1034A0000F931F93CF93DF93EC01E0919302F09180
:1034B0009402309709F440C080911601882341F0AE
:1034C0008091BF0287FF04C08881898386E088835A
:1034D0000280F381E02DCE0109958091760282FF72
:1034E0002BC080FF04C081E393E00E94E80210E05B
:1034F00000E08BE2E82E83E0F82E8091760280FFD8
:103500000EC0FE01E00FF11F80811F928F93FF928A
:10351000EF920E9481030F900F900F900F900F5F1A
:103520001F4F0830110549F78091760280FF04C0D3
:1035300089E293E00E94E802CDB7DEB7E6E00C94A2
:10354000D424DC01E0919302F0919402309739F099
:1035500082E08C930480F581E02DCD0109950895DA
:1035600020919102309192022817390771F09093BF
:10357000920280939102E0919302F091940230972D
:1035800021F00680F781E02D0995089520918F02A2
:10359000309190022817390771F090939002809330
:1035A0008F02E0919302F0919402309721F0008411
:1035B000F185E02D09950895FC0132968091160160
:1035C000882321F08091BF029EE187FF96E080E092
:1035D000915008F4089521912223D1F38F5FF8CF01
:1035E0009C01662301F1809116018823F1F08091FE
:1035F000BF0287FF1AC0462F469546954695603F05
:1036000090F4677081E090E002C0880F991F6A957E
:10361000E2F7240F311DF901228130E028233923FC
:1036200081E0232B71F480E00895F9013296285F40
:103630003F4F8191861721F0E217F307D1F7F3CFBF
:1036400081E008959C01FC0132968FEF90E041915A
:10365000461751F08F3F19F4411101C0892F9F5F28
:103660009630A9F78F3F09F40895280F311D87FD83
:103670003A95F901628308959C01FC013296285F16
:103680003F4F8191861303C0DF0111971C92E2170F
:10369000F307B9F70895E62FE695E695E695603FBE
:1036A00070F4E80FF92FF11D677021E030E001C0E0
:1036B000220F6A95EAF78281822B82830895809196
:1036C000760280FF0CC01F926F9381E693E09F9378
:1036D0008F930E9481030F900F900F900F90089589
:1036E000E62FE695E695E695603F78F4E80FF92F2A
:1036F000F11D677081E090E001C0880F6A95EAF7DC
:10370000809592818923828308958091760280FF3B
:103710000CC01F926F9383E493E09F938F930E945A
:1037200081030F900F900F900F9008952091160134
:10373000222339F02091BF0227FF03C00E944B1BB8
:1037400008950E94221B089520911601222339F02A
:103750002091BF0227FF03C00E94701B08950E94A2
:103760003C1B0895FC01329680911601882351F08C
:103770008091BF0287FF06C08EE1DF011D928A950E
:10378000E9F7089586E0F9CF46E050E00E94F7247B
:103790009C0181E0232B09F480E0089508950E94A4
:1037A000CE1B0895811106C081E0809395020E948E
:1037B000CF1B089582E0F9CF83E0809395020E94A9
:1037C000CF1B08950E94D21B089581E0809395023B
:1037D0000E94CF1B08950E94E51B08950895089547
:1037E0000E94EF1B0895089508950E94EE1B08950E
:1037F000CF930E94F31B0E9440140E94F41BC0E070
:103800008C2F0E943C13892B31F4CF5FC530C1F758
:1038100080E0CF91089581E0FCCF85B7806885BFB7
:1038200085B7806885BF08951F921FB61F92112427
:103830008F939F93AF93BF9380919602811113C092
:103840008091D5029091D602A091D702B091D80272
:103850004196A11DB11D8093D5029093D602A093ED
:10386000D702B093D802BF91AF919F918F911F90D3
:103870001FBE1F9018958091DD02843031F10E94A7
:10388000B7041092960288E190E020E40FB6F89415
:10389000A895809360000FBE2093600083B7817F5E
:1038A000846083BF83B7816083BF7894889583B732
:1038B0008E7F83BF0FB6F894A895809160008861D1
:1038C00080936000109260000FBE08950E9402096C
:1038D0000E94BC04089582E084BD93E095BD9AEFF8
:1038E00097BD80936E0008952FB7F8948091D5020C
:1038F0009091D602A091D702B091D8022FBF08951F
:10390000A4E0B0E0E6E8FCE10C94BC248FB7F894A6
:103910002091D5023091D6024091D7025091D80221
:1039200029833A834B835C838FBF69817A818B8142
:103930009C812496E2E00C94D8249C014FB7F89423
:103940008091D5029091D602A091D702B091D80271
:103950004FBF821B930B089578941F921FB61F923E
:1039600011248F939F93AF93BF938091D502909131
:10397000D602A091D702B091D8020196A11DB11D27
:103980008093D5029093D602A093D702B093D80229
:10399000BF91AF919F918F911F901FBE1F9018955F
:1039A00081E08093E00080E28093D8001092C9000B
:1039B0008FE19EE40197F1F700C0000087E090EBF3
:1039C000DC018093E6029093E702A093E802B093B3
:1039D000E90288E19CE00FB6F894A8958093600016
:1039E0000FBE90936000FFCF88E19CE00FB6F89483
:1039F000A895809360000FBE90936000FFCF8091E8
:103A0000BD020895089522E02093E9002FEF309140
:103A1000E800215035FD06C035ED3A95F1F700007C
:103A20002111F5CF2091E80025FF0BC050E040E0C8
:103A300066E070E00E9409208091E8008E77809314
:103A4000E8000895CF93DF93D82FC92F80911601F6
:103A50008823C1F18091BF0287FF34C060E282E019
:103A60008093E9008FEF9091E800815095FD06C0AA
:103A700095ED9A95F1F700008111F5CF8091E8005E
:103A800085FF1DC08091160170E050E040E081117B
:103A900004C050E040E068E070E08D2F9C2F0E9451
:103AA00009208091E8008E778093E80080E2ED2F76
:103AB000FC2FADE9B2E001900D928A95E1F7DF911C
:103AC000CF91089568E081E0CBCF80939902709305
:103AD0009B0260939A028091DD02843001F582E0BE
:103AE0008093E9008FEF9091E800815095FD06C02A
:103AF00095ED9A95F1F700008111F5CF8091E800DE
:103B000085FF0DC050E040E063E070E089E992E09D
:103B10000E9409208091E8008E778093E800089544
:103B2000BC0184E00E94651D0895BC0183E00E94F1
:103B3000651D089583E993E00E94E8028091DC020C
:103B4000811109C00E9491210E94EE218091E20022
:103B500084608093E20008958FE893E00E94E80279
:103B60001092DC0208958BE893E00E94E8020E9424
:103B7000E51B089587E893E00E94E8026091D9026E
:103B800081E0611101C080E00E94DC1B089583E8A0
:103B900093E00E94E8029091DD0281E0943009F008
:103BA00080E06091D9020E94E21B08952091980262
:103BB0002F5F822F62E30E948624992319F02093BD
:103BC000980208951092980280919C028823F1F047
:103BD0008091DD028430C1F49091E9009F702091C2
:103BE000EC00822F817020FD80E8892B93E0909378
:103BF000E9009091EB0090FF04C09091EE0097FDDA
:103C000008C08F708093E90010929C020895109272
:103C1000F1009091E80095FDFACF9091E80090FFB7
:103C2000F0CF9091E8009E779093E800EACF42E0D1
:103C300061EC81E00E940D2142E261EC82E00E9491
:103C40000D2142E261EC83E00E940D219091DD02A2
:103C500081E0943009F080E06091D9020E94D21B8B
:103C600008958091DF02893089F148F4823009F4A7
:103C7000A0C0833009F45AC0813041F008958A30E1
:103C800009F487C08B3009F46CC008958091DE027E
:103C9000813A09F04AC08091E800877F8093E8006C
:103CA0008091E2029091E302892B61F460E28DE958
:103CB00092E070E00E9458208091E8008B7780931A
:103CC000E800089560E090E080E0F3CF8091DE02AC
:103CD000813259F58091E2029091E302029728F532
:103CE0008091E800877F8093E8008091E80082FF60
:103CF00018C09091F3008091F200029731F4809106
:103D0000F100813011F0863021F48091F100809330
:103D1000BD028091E8008B778093E8000E944121EA
:103D200004C08091DD028111E0CF08958091DE0210
:103D3000813AD9F78091E2029091E302892BA9F7A9
:103D40008091E800877F8093E8008091E80080FF01
:103D5000FCCF809116018093F1008091E8008E776E
:103D6000DBCF8091DE02813201F78091E2029091F7
:103D7000E302892BD1F68091E800877F8093E800E9
:103D80000E9441218091E002809316010E94020965
:103D900008958091DE02813241F68091E800877FAC
:103DA0008093E8000E9441218091E1028093BE024D
:103DB00008958091DE02813A09F0B7CF8091E80042
:103DC000877F8093E8008091E80080FFFCCF80919E
:103DD000BE02C1CF9FB7F89410929C029FBF9091F2
:103DE000DD02943009F048C02091E9002F70309135
:103DF000EC00932F917030FD90E8922B23E02093FC
:103E0000E9002091EB0020FF34C02091EE0027FF55
:103E100030C020919702222321F02091E80025FF55
:103E200028C01092970226E03091E80035FF14C0B8
:103E30008093F1008091E80085FD27C08091E80023
:103E400080FFFCCF8091E8008E778093E8009F7020
:103E50009093E90080E008953091DD02343049F418
:103E60003091EB0035FD05C0215041F481E0809395
:103E700097029F709093E9008FEF0895EFE9FFE0BC
:103E80003197F1F700C00000CFCF8FB7F89421E051
:103E900020939C028FBFDBCF84B7877F84BF0FB690
:103EA000F894A895809160008861809360001092DA
:103EB00060000FBE80E890E00FB6F8948093610038
:103EC000909361000FBE0E94EB1B08950E94912108
:103ED0000E94EE21E2EEF0E080818460808378949D
:103EE0000E946B2408958AE091E00E943C1A089594
:103EF0008091DD02853051F48FE793E00E94E80263
:103F00008091DD02853019F00E94661C08950E94A0
:103F10003B1C8091DB02882399F30E94F81B8823C5
:103F200079F30E94F31F0E940209EACF08950E94CC
:103F30009A1F0895FC01CB01DA012F2F332723307C
:103F40003105D1F070F42130310509F447C0223039
:103F5000310569F48BE590E02FEB33E02D933C9332
:103F6000089521323105E9F02232310539F190E02E
:103F700080E030E020E0F2CFCF019927E13059F026
:103F80008230910559F0EBEBF3E0892B81F78491B6
:103F900090E09F01E3CFE7EAF3E0F9CFE7E9F3E050
:103FA000F6CF6330710518F7880F991FFC01E056B2
:103FB000FE4F2081318189E090E0D0CF63307105E0
:103FC000B0F6FB01EE0FFF1FE656FE4F2081318158
:103FD00089569E4FFC01808190E0C0CF82E190E045
:103FE0002AE134E0BBCF80E189BD82E189BD09B41B
:103FF00000FEFDCF8091D8008F7D8093D800809106
:10400000E00082608093E0008091E00081FDFCCFC1
:104010000895AF92BF92CF92DF92FF920F931F93BA
:10402000CF93DF936C01EB018A010E946021F82E8F
:10403000811123C00115110539F0F80180819181AA
:10404000C81BD90BC80ED91EB12CA12C2097A9F0E2
:104050008091E80085FD22C08091E8008E778093F2
:10406000E80001151105A1F0F80180819181A80EE9
:10407000B91EB182A08285E0F82E8F2DDF91CF91FD
:104080001F910F91FF90DF90CF90BF90AF90089558
:104090000E9460218823D1F2F82EEFCFF6018191A2
:1040A0006F018093F1002197FFEFAF1ABF0ACECFC7
:1040B000FC01CB012091E4023091E502261737077D
:1040C00090F0009729F42091E8002E772093E800E3
:1040D00040E0009751F4411108C08091E80082FF50
:1040E00031C080E00895C901F3CF2091DD02222381
:1040F000A9F12530A9F12091E80023FD2DC02091E0
:10410000E80022FDEACF2091E80020FFE2CF3091C5
:10411000F3002091F200009719F02830310558F093
:1041200041E02830310509F040E02091E8002E7789
:104130002093E800CECF41914093F10001972F5F8B
:104140003F4FE9CF8091DD02882341F0853041F077
:104150008091E80083FFC1CF81E0089582E0089557
:1041600083E00895FC01CB012091E4023091E50247
:104170002617370790F0009729F42091E8002E7752
:104180002093E80040E0009751F4411108C080916D
:10419000E80082FF32C080E00895C901F3CF20918A
:1041A000DD022223B1F12530B1F12091E80023FD99
:1041B0002EC02091E80022FDEACF2091E80020FFE8
:1041C000E2CF3091F3002091F200009719F02830EF
:1041D000310558F041E02830310509F040E02091E8
:1041E000E8002E772093E800CECF44914093F10071
:1041F000319601972F5F3F4FE8CF8091DD028823F2
:1042000041F0853041F08091E80083FFC0CF81E02C
:10421000089582E0089583E00895982F973028F05C
:104220008F708093E90081E008959093E900242F36
:10423000762F50E0981731F07091EC002091ED004E
:104240005091F00021FD02C09F5FE8CF3091EB005C
:104250003E7F3093EB003091ED003D7F3093ED00D9
:104260003091EB0031603093EB007093EC002093C1
:10427000ED005093F0002091EE0027FDE5CF80E0A7
:1042800008958091DE0287FF13C08091E80082FFCD
:1042900006C08091E8008B778093E80004C080918D
:1042A000DD028111F2CF08958091DD028823D9F3D8
:1042B0008091E80080FFF8CF8091E8008E77ECCF06
:1042C0002091E4003091E50095E6A9012091EC00F1
:1042D000822F817020FF06C08091E80080FF06C019
:1042E00080E008952091E80022FD1AC08091DD024F
:1042F000882389F0853089F08091EB0085FD0FC01F
:104300002091E4003091E50042175307F9F29150F3
:10431000E1F684E0089582E0089583E0089581E065
:1043200008950E9400220E940822E0EEF0E08081C1
:1043300081608083E8EDF0E080818F77808319BC15
:10434000A7EDB0E08C918E7F8C9380818F7E8083EF
:104350001092DC0208950F931F93CF93DF930E9476
:1043600000220E940822C8EDD0E088818F778883E0
:1043700088818068888388818F7D888319BC1092AA
:10438000DD021092D9021092DB021092DA0200EEE6
:1043900010E0F80180818B7F808388818160888331
:1043A00042E060E080E00E940D21E1EEF0E08081DB
:1043B0008E7F8083E2EEF0E0808181608083808167
:1043C00088608083F80180818E7F8083888180610E
:1043D0008883DF91CF911F910F910895E8EDF0E070
:1043E00080818F7E8083E7EDF0E080818160808333
:1043F00084E082BF81E08093DC020E94AB210895BB
:10440000E8EDF0E080818E7F80831092E2000895D5
:104410001092DA001092E10008951F920F920FB6E9
:104420000F9211242F933F934F935F936F937F933A
:104430008F939F93AF93BF93EF93FF938091E1008E
:1044400082FF0BC08091E20082FF07C08091E100F3
:104450008B7F8093E1000E94D61D8091DA0080FF5F
:1044600019C08091D80080FF15C08091DA008E7F3E
:104470008093DA008091D90080FF94C080E189BDEB
:1044800082E189BD09B400FEFDCF81E08093DD02A9
:104490000E949A1D8091E10080FF19C08091E20086
:1044A00080FF15C08091E2008E7F8093E2008091B2
:1044B000E20080618093E2008091D8008062809366
:1044C000D80019BC85E08093DD020E94BA1D80915E
:1044D000E10084FF29C08091E20084FF25C080E1D3
:1044E00089BD82E189BD09B400FEFDCF8091D8006D
:1044F0008F7D8093D8008091E1008F7E8093E100D2
:104500008091E2008F7E8093E2008091E2008160E2
:104510008093E2008091D902882309F449C084E0A5
:104520008093DD020E94C71D8091E10083FF29C0B6
:104530008091E20083FF25C08091E100877F809316
:10454000E10082E08093DD021092D9028091E100C7
:104550008E7F8093E1008091E2008E7F8093E20065
:104560008091E20080618093E20042E060E080E0C0
:104570000E940D218091F00088608093F0000E94DD
:10458000B31DFF91EF91BF91AF919F918F917F915B
:104590006F915F914F913F912F910F900FBE0F90B0
:1045A0001F90189519BC1092DD020E94AC1D72CFAD
:1045B0008091E30087FD02C081E0B2CF83E0B0CFFD
:1045C0001F920F920FB60F9211242F933F934F9388
:1045D0005F936F937F938F939F93AF93BF93CF938B
:1045E000DF93EF93FF93D091E900DF708091EC00AF
:1045F000C82FC17080FDC0E81092E9008091F000E2
:10460000877F8093F00078940E9424231092E90021
:104610008091F00088608093F000CD2BCF70C09324
:10462000E900FF91EF91DF91CF91BF91AF919F9101
:104630008F917F916F915F914F913F912F910F904B
:104640000FBE0F901F901895AAE2B0E0EAE2F3E2E5
:104650000C94BB248EED92E0FC0101962091F100B8
:10466000208322E0863E9207B9F70E94311E809196
:10467000E80083FF1EC18091DE029091DF029A3034
:1046800008F017C1E92FF0E0E159FA4D0C94A62487
:10469000803899F0823809F00CC18091E2028F7065
:1046A000873008F006C18093E9008091EB0085FB1C
:1046B000882780F91092E90006C08091DA02909173
:1046C000DB02911182609091E800977F9093E8005F
:1046D0008093F1001092F1008091E8008E77E5C0A0
:1046E000882309F4D3C0823009F0E3C08091E0024E
:1046F0008111D6C08091E2028F702FEF280F2630F3
:1047000008F0D7C08093E9002091EB0020FFC8C0DB
:10471000933031F48091EB0080628093EB00C0C055
:104720009091EB0090619093EB0021E030E001C0AC
:10473000220F8A95EAF72093EA001092EA0080910E
:10474000EB008860EACF8111B4C01091E0021F77BE
:104750008091E3008078812B8093E3008091E800D2
:10476000877F8093E8000E9441218091E80080FFCC
:10477000FCCF8091E30080688093E30082E0111118
:1047800083E08093DD0295C08058823008F091C0AC
:104790008091E0029091E1028C3D23E09207A1F527
:1047A00083E08A838AE289834FB7F894DE01139607
:1047B00020E03EE051E2E32FF0E050935700E49117
:1047C00020FF03C0E295EF703F5FEF708E2F90E007
:1047D000EA30C0F0C7968D939D932F5F243159F72F
:1047E0004FBF8091E800877F8093E8006AE270E025
:1047F000CE0101960E9458208091E8008B7780932B
:10480000E80057C0C096E7CF6091E2027091E302E2
:10481000AE014F5F5F4F0E94971FBC01892B09F4C7
:1048200048C08091E800877F8093E80089819A8161
:104830000E94B220E1CF8038E1F58091E800877FC7
:104840008093E8008091D9028093F10045CF8111D7
:1048500030C09091E002923060F58091E800877F4F
:104860008093E8009093D9020E9441218091D9025F
:10487000882311F084E005C08091E30087FDFACF22
:1048800081E08093DD020E94171E13C08091E00238
:10489000813079F481E0933009F080E08093DB028D
:1048A0001092E9008091E800877F8093E8000E94E1
:1048B00041218091E80083FF0AC08091E800877F52
:1048C0008093E8008091EB0080628093EB00AA96D1
:1048D000E3E00C94D724CF938091DD028823A1F0EC
:1048E000C091E900CF709091EC00892F817090FD0C
:1048F00080E8C82B1092E9008091E80083FD0E94B7
:104900002423CF70C093E900CF910895991B79E0DB
:1049100004C0991F961708F0961B881F7A95C9F74F
:104920008095089597FB072E16F4009407D077FD25
:1049300009D00E94E32407FC05D03EF490958195B0
:104940009F4F0895709561957F4F0895EE0FFF1F5B
:104950000590F491E02D09942F923F924F925F922F
:104960006F927F928F929F92AF92BF92CF92DF927F
:10497000EF92FF920F931F93CF93DF93CDB7DEB7E4
:10498000CA1BDB0B0FB6F894DEBF0FBECDBF099478
:104990002A88398848885F846E847D848C849B84CF
:1049A000AA84B984C884DF80EE80FD800C811B81DD
:1049B000AA81B981CE0FD11D0FB6F894DEBF0FBE0C
:1049C000CDBFED010895AA1BBB1B51E107C0AA1F73
:1049D000BB1FA617B70710F0A61BB70B881F991FA0
:1049E0005A95A9F780959095BC01CD010895FB01DA
:1049F000DC0104C08D910190801921F44150504098
:104A0000C8F7881B990B0895F999FECF92BD81BD17
:104A1000F89A992780B50895A8E1B0E042E050E007
:104A20000C943825262FF999FECF92BD81BDF89AB6
:104A3000019700B4021639F01FBA20BD0FB6F894E2
:104A4000FA9AF99A0FBE08950396272F0E9413250C
:104A50000E941225252F0E941325242F0C94132524
:104A60000196272F0E9413250C941225DC01CB01FF
:104A7000FC01F999FECF06C0F2BDE1BDF89A31966E
:104A800000B40D9241505040B8F70895F894FFCF0C
:104A9000A606A606DA06DA066C0788070B070B07D8
:104AA00093073D084E084E084118451849185718F5
:104AB0005B185F18631869187118751879187D18D4
:104AC00089188D18911895189B18B918A3185318A0
:104AD000811885186D189F18AF18C218C61848237A
:104AE0007023592470235924A323C42359241B243D
:024AF000272479
:104AF2003E02280850011E0A1401FF1C221D031D3C
:104B0200951D901D021D01E200E900EA00B500B604
:104B120000B700CD008301CC008A019201940121EB
:104B220002230224022502260227022A02B300B42B
:104B3200006F007000E200E900EA00B500B600B7BD
:104B420000CD008301CC008A01920194012102234D
:104B52000224022502260227022A02B300B4006FB1
:104B620000700067939291903733326636353497EE
:104B72009694F0C695F1F400FF0100010000FFFFDA
:104B82000000010001FF0040B62204054E042C047F
:064B9200D103EA03030455
:00000001FF
