:100000000C94A2020C94DA020C94DA020C94DA0238
:100010000C94DA020C94DA020C94DA020C94DA02F0
:100020000C94DA020C94DA020C9425210C94F92138
:100030000C94371B0C94DA020C94DA020C94DA025A
:100040000C94DA020C94DA020C94DA020C94DA02C0
:100050000C94DA020C94BE1B0C94DA020C94DA02B3
:100060000C94DA020C94DA020C94DA020C94DA02A0
:100070000C94DA020C94DA020C94DA020C94DA0290
:100080000C94DA020C94DA020C94DA020C94DA0280
:100090000C94DA020C94DA020C94DA020C94DA0270
:1000A0000C94DA020C94DA020C94DA02165C1E004C
:1000B0001F0020002100220023002400250026002C
:1000C00027002D002E002A00A8002B0014001A0083
:1000D0000800150017001C0018000C001200130087
:1000E0002F00300031004C000251040016000700C0
:1000F00009000A000B000D000E000F003300340051
:10010000280000004B00E10000001D001B0006005D
:100110001900050011001000360037003800E50016
:1001200052004D00E000E200E3000000000000008B
:100130002C00000000000000E600E4005000510028
:100140004F00010001000100010001000100010059
:100150000100010001000100010001000100010097
:100160000100010001000100010001000100010087
:100170000100010001000100010001000100010077
:100180000100010001000100010001000100010067
:100190000100010001000100000001000100000059
:1001A0000100010001000100010001000100010047
:1001B00001000100010001000100E000E300E20095
:1001C0000000000000000100000000000000E60048
:1001D000E40001000100010035003A003B003C0052
:1001E0003D003E003F00400041004200430044000B
:1001F00045004C00AE000100A800A900010001006C
:10020000010001004B004E004A004D0001000100BA
:10021000005C49000100AC00AA00AB000100010035
:100220005000510052004F00010001000100000089
:100230004E0001000000010001000100010001006A
:1002400001000100105011500100390001004A0066
:10025000010001000100000000000000AE000000ED
:100260000000000001000100010001000100444500
:100270004255473A2064697361626C65642E0A00D6
:1002800044454255473A20656E61626C65642E0AAA
:10029000000A0025303258006C65645F7461736B2E
:1002A0003A20004F6E6573686F743A206163746919
:1002B00076653A2025640A000A002530313662004E
:1002C0003A200025303258000A722F632030313234
:1002D000333435363738394142434445460A0029DC
:1002E0000A002575002F002575005D280025640093
:1002F0002000256400200025640020002564007C87
:100300000025303258006D6F7573656B6579205B21
:1003100062746E7C782079207620685D2872657022
:100320002F61636C293A205B000A00253032582087
:10033000006B6579626F6172645F7265706F727471
:100340003A200064656C5F6B65795F6269743A207E
:1003500063616E27742064656C3A20253032580A38
:10036000006164645F6B65795F6269743A20636100
:100370006E2774206164643A20253032580A005B8D
:10038000735D005B575D005B535D005B525D005B1E
:10039000445D005B435D000E037A006F006F006DEB
:1003A0000036003500000012036D0065006C00652A
:1003B0000074007200690078000000040309040959
:1003C000025B00030100A0FA09040000010301011F
:1003D00000092111010001224000070581030800E6
:1003E00001090401000103000000092111010001BD
:1003F00022B600070582032000010904020002035F
:1004000000000009211101000122220007058303D9
:100410002000010705030320000112010002000073
:1004200000086B8004000100010200010631FF0991
:1004300074A1010975150026FF0095207508810239
:100440000976150026FF00952075089102C0050168
:100450000902A10185020901A10005091901290864
:100460001500250195087501810205010930093142
:100470001581257F95027508810609381581257F2C
:10048000950175088106050C0A38021581257F95AE
:100490000175088106C0C005010980A10185031905
:1004A000012AB700150126B700950175108100C01B
:1004B000050C0901A101850419012AA002150126D4
:1004C000A002950175108100C005010906A10185F2
:1004D00006050719E029E715002501950875018132
:1004E000020507190029EF1500250195F075018116
:1004F00002050819012905950575019102950175F7
:10050000039101C005010906A101050719E029E7CA
:100510001500250195087501810295017508810175
:100520000507190029FF150026FF009506750881AB
:1005300000050819012905950575019102950175B8
:10054000039101C011241FBECFEFDAE0DEBFCDBFA3
:1005500004B603FE18C08091EC029091ED02A091C8
:10056000EE02B091EF028730904BA740B04B59F4A8
:100570001092EC021092ED021092EE021092EF0235
:10058000E0E0F8E3099511E0A0E0B1E0EEEEF8E478
:1005900002C005900D92AC3AB107D9F722E0ACEA5F
:1005A000B1E001C01D92AC3EB207E1F70E94AA1370
:1005B0000C945F240C940000FF93EF93E091AC0146
:1005C000F091AD01309709F00995EF91FF910895F1
:1005D000FC018591803011F0EFDFFBCF0895FF27FC
:1005E000E0E230E247FF0CC0419597FF09C0EDE221
:1005F0006095709580959095611D711D811D911D6F
:1006000027FF02C0219530E350E2AA27660F771F2B
:10061000881F991FAA1FA41710F0A41B63955A9551
:10062000A9F7AA3008F0A95FA05DAF93F395611513
:1006300071058105910541F7ED3211F4EF93F395C2
:10064000F21718F43F93F395FBCF8F91B5DFFA952E
:10065000E1F70895E991F9918591803021F0853293
:1006600019F0AADFF9CF089520E0E89455915532AA
:10067000C1F3503311F4689455915A3348F45053F0
:1006800090F3220F022E220F220F200D250FF4CF00
:100690000EF4219589919991533619F3533729F125
:1006A000533559F1BC0188279927E8945C3621F429
:1006B0008991999168945591543639F446EF7EF0BA
:1006C00077FF0DC08FEF9FEF0AC055374AE039F032
:1006D000583540E121F0523642E009F00895FF9389
:1006E000EF937DDFEF91FF91B7CFFF93EF93FC0185
:1006F00081918030B9F360DFFBCFFF93EF9368DF28
:10070000F1CFDF93CF93CDB7DEB72596A3DFCF919F
:10071000DF910895CF93DF93D62F0E940118C82F41
:10072000882339F08AEAD11189EA6AE070E00E94F0
:10073000B5058C2FDF91CF91089581E0089581E078
:1007400008950E949F03089508950E94A4030895A8
:10075000A5E0B0E0EEEAF3E00C94D42349835A8399
:100760003091AF0189819A81311119C0662399F0C6
:10077000222389F00E94240A182F682F89819A81E8
:100780000E94000A69817A81812F0E94D7102596E4
:10079000E3E00C94F0230E94120A182FF3CF0E947A
:1007A000240A69817A81F1CFFC01262F4081518191
:1007B0006281738184810E94A803089581E0089575
:1007C000CF93DF93EC0160E00E94D403BE010E944E
:1007D000A503DF91CF9108950E94111208950E9400
:1007E0001512089508950E944F080E94F2032FEFFA
:1007F00084E39CE0215080409040E1F700C000007D
:1008000008950E94F3030E94E21B08950E94F303DF
:100810000E94061C08950F931F93CF93DF938C01C2
:1008200061E00E94D403EC01B8010E94A103811190
:1008300006C080E0DF91CF911F910F910895B8011C
:10084000CE010E940D198823A1F3B801CE010E94A8
:10085000BD16882371F3B801CE010E947F1888234A
:1008600041F3F80182818823D9F0CB35FDE5DF071C
:10087000A9F170F4C130ECE5DE07B1F0CF3DFCE545
:10088000DF0721F1C115DC4559F40E940104D1CFE5
:10089000CD35EDE5DE07F9F020F1C83ADD45C1F0D0
:1008A000C8010E949D03C6CF90917C02892F8E7F44
:1008B00090FF816080937C0280FF05C080E892E019
:1008C0000E94E802B6CF8EE692E0FACF0E94FD0EBB
:1008D0000E940604AECF0E94370EE2CF0E94410E66
:1008E000DFCF0E94450EDCCF0E94131B0E94C20482
:1008F00008950E94C6040E94181B0895829590E0F6
:100900009C01220F331F220F331F2C7C9595879556
:10091000959587958373282B30E0C901880F991F1F
:100920008A7A359527952575822B0895CF93DF9385
:10093000D92F0E947E04C82F8D2F0E947E049C2FE9
:10094000DF91CF91089508950E94A304089581E056
:100950000895CF93C82F0E94A704882319F0C1FDE2
:1009600003C08F9ACF9108958F98FCCF879A8F9A62
:100970000895CF93C82F0E94A4048C2F0E94A9042D
:10098000CF91089580E00E94B90408950E946919EA
:100990000E94B9040895CF930E946919C82F8091CD
:1009A000AE018C1739F1C093AE0180917C0282FFB9
:1009B0001EC080FF1CC088E992E00E94E80280917E
:1009C0007C0280FF14C01F92CF9383E992E09F9333
:1009D0008F930E94810380917C020F900F900F9063
:1009E0000F9080FF04C081E992E00E94E8028C2F02
:1009F0000E94B904CF910895ABE0B0E0E2E0F5E0E9
:100A00000C94D5234F83588769877A878B87611128
:100A10000E946F0D1E821D8285E0FE013796DE0169
:100A2000119601900D928A95E1F78C819D81892B19
:100A300061F449815A816B817C818D819E810E9404
:100A4000980C2B96E2E00C94F12389819A818923FA
:100A50008F3F79F3CE0101960E94DE038111E9CF29
:100A6000F0CFFC01808191810E945E0A0895CF93AE
:100A7000C82F8823B9F08CEF8C0F813AA8F46C2F23
:100A800080910001909101010E94171A882329F09A
:100A90008C2F0E942F0D0E94900D8C2F0E94270DED
:100AA0000E94900DCF91089580E28C0F883048F419
:100AB000C77081E001C0880FCA95EAF70E94520D05
:100AC000EFCFEBE5EC0FE33040F4F0E0EB5BFE4FF3
:100AD000808190E00E94D719E5CFE8E5EC0FE7317F
:100AE00050F4F0E0EE0FFF1FE95EFE4F8081918130
:100AF0000E94ED19D7CFCD3EA8F28C2F0E942E1464
:100B00000E940115CFCF882379F19CEF980F913A7D
:100B100028F40E942F0D0E94900D089590E2980FE6
:100B2000983050F4877091E001C0990F8A95EAF7E8
:100B3000892F0E94580DEFCF9BE5980F933028F432
:100B400090E080E00E94D719089598E5980F9731BA
:100B500028F490E080E00E94ED1908958D3E20F089
:100B60000E9488140E94011508951F93CF93DF936C
:100B7000182FEB010E943705209739F4812F0E942E
:100B80008305DF91CF911F9108958FE99FE0019731
:100B9000F1F700C000002197EFCF70E060E08933EB
:100BA00011F460E570E00E94B5050895882321F0F6
:100BB0000E94520D0E94900D0895882321F00E94FA
:100BC000580D0E94900D0895B0E0A0E0EAEEF5E027
:100BD0000C94CE236C01D62FC72FFC011281F58017
:100BE000F2949FE0F9220E94480DE82E8823B9F084
:100BF000E12E1123A1F08C2F807F803421F080E240
:100C00008D0F8830D0F08091C60282FF16C082E03E
:100C10000E94F30D0E94480D91E0E82EE926BC2EBB
:100C2000B2948FE0B822FBE0FB1508F468C0EB2D0E
:100C3000F0E0EF59FB4D0C94BF23E12CF0CF0C2FCB
:100C40000F70C07F11F00295007F112399F00023EF
:100C500059F080E28D0F883010F0D11107C0802F3D
:100C60000E94520D0E94900D8D2F41C0802F0E9436
:100C7000620DF8CF8D2F0E948305002309F43FC039
:100C800080E28D0F883010F0D11104C0802F0E94B7
:100C9000580D03C0802F0E94680D0E94900D2FC038
:100CA0000C2F0F70C07FC03211F00295007FDD2342
:100CB00081F0D13009F463C0112309F46DC0FF2025
:100CC00009F463C0F601858180FFCECF8F708583E4
:100CD0005CC08091C60282FD33C0112359F000230D
:100CE00029F0802F0E94520D0E94900D80E00E94FA
:100CF000370505C080E00E9483050111C7CFEB2DA9
:100D0000E850FF0B349720F40E9469190E94B9043F
:100D1000EE2089F00E94440D80FD0DC0F601128284
:100D20000E943E0D0E940809C6010E940F080E9401
:100D30003E0D0E942A09CDB7DEB7E9E00C94EA2304
:100D4000112389F0F11006C00E94720D802B0E94C1
:100D5000D605D5CF21E0F212F7CF0E94720D802B7D
:100D60000E94790DCCCFF11006C00E94860D802F15
:100D70000E94DD05C4CF31E0F31609F2F6CF11234E
:100D800031F085E08F1508F4BACF802FE0CF94E0E2
:100D90009F1508F4B4CFEBCFFF2049F3D93349F4C2
:100DA000FFEF27EE33E0F15020403040E1F700C084
:100DB00000008D2F0E948305A2CF8C2F86958695EB
:100DC000837069F0813009F09ACF8D2F9C2F93703A
:100DD000111102C090E080E00E94ED1990CF8D2F9C
:100DE0009C2F9370111102C090E080E00E94D719EF
:100DF00086CF8D2F112329F00E942E140E940115F9
:100E00007ECF0E948814FACF8C2F837009F041C0E6
:100E1000111175CF4D2F429546954770440F440FE1
:100E20000D2F0F7010E030E020E0042E04C0000F02
:100E3000111F221F331F0A94D2F760E070E0CB012C
:100E4000D4FF0FC06FE070E080E090E004C0660F58
:100E5000771F881F991F4A95D2F7609570958095E6
:100E60009095C695C695C370602B712B822B932BE2
:100E7000C23049F058F4C13019F00E94B3083FCF96
:100E80000E94A0083CCF0E94C60839CF0E949D084E
:100E900036CF8695112311F08C2F8170882309F4A9
:100EA0002ECF4D2F429546954770440F440F0D2F7E
:100EB0000F7010E030E020E0042E04C0000F111F7E
:100EC000221F331F0A94D2F760E070E0CB01D4FFF9
:100ED0000FC06FE070E080E090E004C0660F771F05
:100EE000881F991F4A95D2F76095709580959095C7
:100EF000C695C695C370602B712B822B932BC23085
:100F000049F058F4C13019F00E948309F8CE0E94CC
:100F10007009F5CE0E949609F2CE0E94DF08EFCE4E
:100F2000CF70112329F08C2F0E9408098D2F0FCF2D
:100F30008D2F0E94DD058C2F0E942A09E0CED23F22
:100F400051F160F4D03FB9F0D13F81F0112309F4A1
:100F500049C0F11089CE8C2F8F7121C0D33F11F180
:100F6000D43FA1F78091C60282FD26C08C2F8F71DD
:100F7000112311F314C0112349F084E08F1508F4F4
:100F8000BECE8C2F8F710E944E09B9CE95E09F1571
:100F900008F4B5CEF6CF8C2F8F711111CDCF0E94F2
:100FA0000809ADCE112329F08C2F8F710E94F20811
:100FB000A6CE0E94EC08A3CE112349F0CF718C2F4E
:100FC0000E94080963E08C2F0E94D50D98CE81E025
:100FD0000E94F30DE1E0EF1508F091CE82E00E944F
:100FE000F30D8DCEF110DACE8C2F8F71A5CF0F932C
:100FF0001F93CF93DF93EC01688179818A810E94EE
:10100000690A8C010E94A9090E949C08B801CE01BE
:101010000E94E405DF91CF911F910F910895CF9326
:10102000DF93EC018B819C81892B29F08881998148
:1010300089238F3F51F4DF91CF910895CE010E9413
:10104000F707CE010E94E003F6CFCE010E940B0409
:101050008111F4CF0E94480D882369F38A81882387
:1010600051F38091C60282FFE6CF82E00E94F30D29
:10107000E2CF90E080E00E94D71990E080E00E94EB
:10108000ED190E946F0D0E94900D0E949F150E9405
:10109000011508950E94370D0E94390808950E9495
:1010A0005F0D0E944A08089592959F70963091F0C6
:1010B00058F4925F9F70923058F4803F19F030F4EA
:1010C000883E30F481E008959A5FF4CF843FD1F3F5
:1010D00080E00895883EB0F3813FD1F7F3CFFC0163
:1010E000808191810E945E0A0E9454080895A5E0C3
:1010F000B0E0EDE7F8E00C94D5232596E2E00C94FF
:10110000F123A6E0B0E0E7E8F8E00C94D5232696BA
:10111000E2E00C94F12308950E948B0808950E9448
:101120008C086093E6017093E7018093E801909347
:10113000E9010E943908089508950E948F080895D2
:101140000F931F930091E6011091E7012091E801B0
:101150003091E901602B712B822B932B0E948F0819
:101160001F910F9108950F931F930091E601109125
:10117000E7012091E8013091E90160237123822386
:1011800093230E948F081F910F9108950F931F932F
:101190000091E6011091E7012091E8013091E90109
:1011A00060277127822793270E948F081F910F9134
:1011B00008950E948B0808950E94D90808950E94FE
:1011C000DC086093E2017093E3018093E401909363
:1011D000E5010E943908089560E070E0CB010E94AB
:1011E000DF0808950F931F9341E050E060E070E046
:1011F0008A019B0104C0000F111F221F331F8A9513
:10120000D2F7C901B8010E94DF081F910F9108951C
:101210000F931F9341E050E060E070E004C0440F82
:10122000551F661F771F8A95D2F78091E201909132
:10123000E301A091E401B091E5018A019B01082B33
:10124000192B2A2B3B2BC901B8010E94DF081F91E3
:101250000F9108950F931F9341E050E060E070E01C
:1012600004C0440F551F661F771F8A95D2F7CB0124
:10127000BA0160957095809590950091E20110916A
:10128000E3012091E4013091E50160237123822381
:1012900093230E94DF081F910F9108950F931F93CE
:1012A00041E050E060E070E004C0440F551F661F4D
:1012B000771F8A95D2F78091E2019091E301A09186
:1012C000E401B091E5018A019B01082719272A272B
:1012D0003B27C901B8010E94DF081F910F910895B3
:1012E0000F931F930091E2011091E3012091E4011B
:1012F0003091E501602B712B822B932B0E94DF082C
:101300001F910F9108950F931F930091E201109187
:10131000E3012091E4013091E501602371238223F0
:1013200093230E94DF081F910F9108950F931F933D
:101330000091E2011091E3012091E4013091E50177
:1013400060277127822793270E94DF081F910F9142
:1013500008950895262F277091E001C0990F2A95CE
:10136000EAF723E0769567952A95E1F725E0269F31
:10137000F001279FF00D1124E40FF51F50E040E02D
:10138000682F70E08191DF0111979B01042E02C04C
:10139000369527950A94E2F721702195282729236D
:1013A00028272C934F5F5F4F4530510559F708951B
:1013B000A82FA77023E0969587952A95E1F725E059
:1013C000289FF001299FF00D1124E60FF71F50E030
:1013D00040E080E0219130E00A2E02C0369527954A
:1013E0000A94E2F721703327042E01C0220F0A94D9
:1013F000EAF7822B4F5F5F4F4530510559F708954B
:10140000262F953070F48F3060F4682F70E08FE0F5
:10141000989F600D711D112440EB51E0822F0E94B6
:10142000AA090895292F953068F48F3058F490E078
:1014300060EB71E03FE0239F800D911D11240E941D
:10144000D809089580E00895B0E0A0E0EAE2FAE06B
:101450000C94CE238C01C090E201D090E301E09087
:10146000E401F090E5018091E6019091E701A091FF
:10147000E801B091E901C82AD92AEA2AFB2ACFE17A
:10148000D0E0BC2ED701C6010C2E04C0B695A7959E
:10149000979587950A94D2F780FD09C0219788F720
:1014A000B12C8B2DCDB7DEB7E9E00C94EA23B8015F
:1014B0008C2F0E94F210019789F3F3CFCF93DF9323
:1014C000EC010E94240ABE010E94F210DF91CF912C
:1014D00008951F93CF93DF93EB019091AF01992370
:1014E00039F0CB010E945E0ADF91CF911F910895E0
:1014F000882369F0CB010E94240A182F682FCE019F
:101500000E94000ABE01812F0E94F210EDCFCB0194
:101510000E94120A182FF6CF1F93CF93DF93C0912A
:10152000EA0116E08091EB018C1304C0DF91CF91AA
:101530001F910895D0E01C9FF0011D9FF00D112414
:10154000E451FE4F40815181628173818481958194
:101550000E9481082196C770E5CF40911C025091EE
:101560001D0260911E0270911F02809120029091D5
:1015700021020E94810808951F93CF93DF938091E9
:101580002102807F09F049C080911E02882309F45E
:1015900044C08091EA01C091EB0160911C027091FE
:1015A0001D02A0911F02B0912002D62FD72316E072
:1015B000C81799F190E0109711F0DF3F19F40196E8
:1015C0008770F6CF189F9001199F300D1124F901F3
:1015D000E451FE4F41814713F2CF40814613EFCFD4
:1015E00042814111ECCF438154814A1B5B0B483C43
:1015F000510528F7809121028F708061809321022C
:10160000F901EF50FE4F80818F70806180838CE103
:1016100092E00E940F080E948C0ADF91CF911F91E7
:101620000895A1E1B0E0E7E1FBE00C94CD238C014B
:1016300085E0F801DE011D9601900D928A95E1F793
:10164000F801E2808CE1C82E82E0D82E60911F0262
:10165000709120026115710509F44EC190911C0230
:1016600020911D02892F82238F3F09F445C14081BB
:101670005181A380B480F0901E02F501E61BF70BA8
:10168000FF2009F4EAC080912102382F307FE83C26
:10169000F10508F0A3C031116DC0FE2C251316C052
:1016A000941314C0E11012C08F70806180932102E6
:1016B0000E94AD0AC6010E940F0880912102F80124
:1016C00085838F2D6196EAE00C94E923A114B1047F
:1016D00029F0842F85238F3F09F027C180E0F82F60
:1016E000F170DF2E80FF3CC08091EA012091EB0178
:1016F00036E0821315C04D875E878D859E850E94DA
:101700005E0A292F22952F702230F0F0243018F530
:101710009F70F1F0F8019581907FD1F4D12C1EC01B
:1017200090E0389FF001399FF00D1124E451FE4FF5
:101730006181651306C06081641303C06281E61293
:101740000FC001968770D5CF9F7011F0882331F3B9
:10175000805E883018F3C8010E940F08FD2CB1CFBD
:10176000EE2009F4AECF80912102816080932102A6
:10177000F12CA7CF251306C0941304C0F801EE2066
:1017800009F487C0C8010E946F08882319F1EE2070
:1017900009F180912102803270F020911C02309179
:1017A0001D0238872F831986BB86AA868C87CE01B7
:1017B00007960E940F0886E0F801ACE1B2E00190C4
:1017C0000D928A95E1F70E94BC0A0E94AD0AFF249F
:1017D000F39477CFC8010E940F08F9CF311113C0DD
:1017E0007A2DB98AA88A6E2D89890E9477088CE1A2
:1017F00092E00E940F0886E0F60111928A95E9F7BF
:101800000E94AD0AB5CF25130FC094130DC0E1108F
:101810000BC0F8018583C8010E940F0886E0F6011D
:1018200011928A95E9F74DCFC8010E946F0888236D
:1018300089F2EE2079F280912102803208F4BBCF48
:1018400020911C0230911D023A8329831B82BD82A4
:10185000AC828E83CE010196ACCFE83CF10508F056
:101860003EC0FE2CEE2009F4B5CF25132AC09413F8
:1018700028C08091210280FD1BC0982F907FC1F06D
:10188000F8018583903F31F0982F907F905F8F70A3
:10189000892B8583C8010E940F0886E0F801ACE11E
:1018A000B2E001900D928A95E1F70E94AD0A09CF4E
:1018B00086E0F801ACE1B2E001900D928A95E1F783
:1018C00000CFC8010E946F08811175CF809121025D
:1018D000816080932102C8010E940F08F2CE7A2D08
:1018E000B98AA88A6E2D89890E94770886E0F60158
:1018F00011928A95E9F7D9CFEE2009F46BCFC80190
:101900000E946F08F82E882309F464CF86E0F8015E
:10191000ACE1B2E001900D928A95E1F78CE192E0A2
:101920000E9431050E94BC0AC0CF81E08E25D7CE2F
:10193000ACE0B0E0EEE9FCE00C94D4234F83588790
:1019400069877A878B879C87CE0107960E94110B47
:10195000882369F08A859B85892B39F04F815885CA
:10196000842F85238F3F09F06BC016E05FC086E0AF
:10197000FE013796DE01119601900D928A95E1F7EE
:101980008A859B85892B89F388859F8189238F3F51
:1019900061F32091EB0130E0C9010196877099272E
:1019A0004091EA014817190671F40E944F081092FD
:1019B000EB011092EA0186E0ECE1F2E0DF011D921A
:1019C0008A95E9F7D2CF96E0929FD001939FB00D10
:1019D0001124A451BE4FFE01319601900D929A95AB
:1019E000E1F78093EB010E948C0ABFCF819FC00179
:1019F000112484519E4F0E94110B8823E9F0E0913D
:101A0000EA011E9FF0011124E451FE4F40815181F3
:101A100062817381848195810E9481088091EA01AD
:101A200090E00196877099278093EA018091EA01FE
:101A30009091EB018913DACF2C96E3E00C94F0231C
:101A400069857A858B859C850E9481088ECF682F59
:101A500080910001909101010E94B91A0895682FA8
:101A600080910001909101010E94C71A0895809110
:101A70000001909101010E94D51A089580914202BF
:101A80008595859585950895809142028770089582
:101A900090914202977081E009F480E0089580916E
:101AA0006502089590916502892B809365020895DF
:101AB0008095909165029823909365020895109205
:101AC0006502089590916402892B809364020895C1
:101AD00080959091640298239093640208951092E7
:101AE0006402089580914302089508950E94750D3F
:101AF00008959091C60292FF08C0909143029817F2
:101B000021F0809343020E94760D08958091430254
:101B1000882329F01092430280E00E94760D0895F8
:101B2000CF93DF93E0910001F09101018091650274
:101B30008083E0910001F091010180819091640225
:101B4000892B808390914302992381F0E0910001D9
:101B5000F09101018081892B808380910001909117
:101B600001010E94031A81110E94860DC09100019B
:101B7000D091010140E250E062E272E0CE010E94A9
:101B80001024892B59F080E2FE01A2E2B2E001901C
:101B90000D928A95E1F7CE010E947619DF91CF91DF
:101BA000089508950E94D10D08959091C60292FF64
:101BB00011C098E0899F90011124622B609342022A
:101BC0000E940809809142028595859585950E941D
:101BD000D20D08950E94080908951092420280E0F3
:101BE0000E94D20D0895909142028095892380939E
:101BF0004202282F277091F4282F082E000C330B57
:101C00009217130659F09091C60292FF07C085956E
:101C1000859585950E942A090E94ED0D0895CF9320
:101C2000C82F8091C60282FB992790F99C17E9F092
:101C3000C0FB82F98093C6028091C5029091C602D2
:101C40000E94730E82E00E94F30D80917C0280FF5F
:101C50000CC01F92CF9383EA92E09F938F930E94D0
:101C600081030F900F900F900F90CF910895809166
:101C7000C60282FB882780F991E089270E940F0E17
:101C8000089581E00E940F0E089580E00E940F0EDB
:101C900008956FEF7FEF90E080E00E94492408955F
:101CA00090E080E00E94252421E0883E9E4F09F0CC
:101CB00020E0822F089582E090E00E941D24089584
:101CC00083E090E00E941D240895CF9384E090E08B
:101CD0000E941D24C82F82E290E00E941D24982FAC
:101CE0008C2FCF910895CF93C92F682F84E090E077
:101CF0000E942B246C2F82E290E00E942B24CF9133
:101D00000895AB01BC018FE090E00E943D2408954E
:101D1000AB01BC0183E190E00E943D24089560E0A6
:101D200070E0CB010E94880E089560E070E0CB0166
:101D30000E94810E0E948F0E089568EE7EEF90E063
:101D400080E00E94492460E082E090E00E942B2421
:101D500060E083E090E00E942B241092E601109254
:101D6000E7011092E8011092E90160E084E090E060
:101D70000E942B2464E082E290E00E942B2460E029
:101D800085E090E00E942B2460E086E090E00E94D5
:101D90002B246FEF87E090E00E942B2440E050E07E
:101DA000BA0188E090E00E943D2460E08DE090E080
:101DB0000E942B2440E050E0BA0188E190E00E94AC
:101DC0003D2460E087E190E00E942B2440E050E059
:101DD000BA018CE190E00E943D2470E060E080E276
:101DE00090E00E94492440E050E0BA0188E190E090
:101DF0000E943D240E94950E08950E949D0E089514
:101E0000682F8EE090E00E942B2408950E94A31B6F
:101E1000609378027093790280937A0290937B02A8
:101E200060937402709375028093760290937702A8
:101E300008950E94A31B60937802709379028093A7
:101E40007A0290937B026093700270937102809388
:101E50007202909373020895089508950E942D0FC1
:101E6000089508950E94310F08958CEF9DE10E941E
:101E70005F190E942C0F0E942E0F089581E0089593
:101E80000E943E0F0895089508950E94430F0E94F6
:101E9000440F08950E94EB110E94B60408950E9419
:101EA0008E1B0E9411130E944A0F0E9403180E9469
:101EB000320F0895AAE0B0E0E0E6FFE00C94C823FA
:101EC0000E942713A82E81110E94060F36E6832E4A
:101ED00032E0932E10E000E0502E802F0E94181266
:101EE0006C01F401619071904F016816790609F454
:101EF00043C080917C0281FD0E942112B12CEE240E
:101F0000E394F12C6C247D24C3018E219F21892B25
:101F100069F10E94400F8823B1F0BE825F82CE201B
:101F2000DF2081E0C114D10409F480E088870E9499
:101F3000971B8160782F9A8789874E815F8168859A
:101F40008A850E94FC04000F111FF801EA59FD4F19
:101F500080819181E826F926F182E08281E0A1105A
:101F600001C080E02A96EFE00C94E423B394EE0CD9
:101F7000FF1CFFE0BF12C8CF0F5F1F4F05301105D8
:101F800009F0AACF8FEF89838A831B820E94971B57
:101F90008160782F9D838C8349815A816B818D81EB
:101FA0000E94FC04DBCF0E945A0F0E94211881116D
:101FB0000E94190F0E94C1150E94CB040895CF936F
:101FC000DF930E94F710EC01811521E5920708F0DC
:101FD00042C0811530E5930708F09DC0883E910509
:101FE00030F5803E910508F092C0883A910588F45A
:101FF000853A910508F084C08130910509F487C0C5
:10200000009709F484C0049708F081C0D0E0C0E0D4
:102010007EC08F3B9105D0F7C85AD0E0CC0FDD1FB2
:10202000C85BDE4F0990D881C02DD46470C0811583
:10203000904250F4C11581E0D80708F068C0CD3E49
:10204000D10520F3D06563C0C11590E4D907F0F243
:10205000DF70D06A5CC0811525E5920700F5811517
:1020600034E5930708F08BC0811543E5940708F029
:1020700073C0C11582E5D80708F469C0CE0183702A
:10208000992721E030E002C0220F331F8A95E2F742
:10209000C695C69580E2C89FE001112454C0C115C1
:1020A00099E5D907A8F4C11528E5D20708F06CC056
:1020B000C11536E5D30708F0A9CF8C2F0E948E11E9
:1020C000C82FD0E0DC2FCC27CC27DF71D0621FC017
:1020D000C1154AE5D40708F45CC0CE0190568115BD
:1020E000904208F093CF8D2F8F710E948E1190E057
:1020F000982F882788279F719C012C2BE901E6CF18
:10210000C55AD0E0CA58DE4FC881D0E0D064CE01B5
:10211000DF91CF910895E4E096958795EA95E1F7F0
:1021200083702C2F26952695237040E2249F9001E2
:102130001124382B8C2F8370C1E0D0E002C0CC0F6B
:10214000DD1F8A95E2F7C22BD32BDC68E0CFDC2FB2
:10215000CC27C16FD06ADBCF8370992721E030E0B4
:1021600002C0220F331F8A95E2F7C695C69590E20A
:10217000C99FE0011124C22BD32BDA68C8CFD82F16
:10218000CC27C46FD06AC3CFDC2FCC27C06FD06AF6
:10219000BECF8C2F8F700E948E1134E0D695C795DC
:1021A0003A95E1F7CF709C2FEC01D069B0CF972F13
:1021B0007530A8F46F3098F470E02FE0929F600DB6
:1021C000711D1124FB019BE4899FE00DF11D112479
:1021D000EE0FFF1FE455FF4F85919491089580E025
:1021E00090E008950E94D7100E94DF0F0895823872
:1021F0009105B1F1B0F48133910509F475C048F44B
:102200008932910509F469C08A32910509F473C0D5
:1022100008958533910509F459C08933910501F179
:102220000895833E9105A9F138F4803E9105F9F0B7
:10223000823E910549F10895863E9105A9F1873EB8
:102240009105C9F1843E910519F52091C60221FF3F
:102250001FC08091C50284FD14C087EE90E00895F0
:102260002091C5022370A1F080EE90E008952091A6
:10227000C50220FD47C03091C60230FF09C024FFCF
:1022800044C090E080E004C02091C50222FDF7CF59
:1022900008952091C50222FD3BC03091C60230FD59
:1022A000E3CF24FFF5CFEDCF2091C50223FFF0CF80
:1022B00024FDE7CFD2CF2091C50223FD2CC0309161
:1022C000C60231FFEECF84EE90E008952091C50262
:1022D00025FFDECF89E290E008952091C50225FF19
:1022E000D7CF85E390E008952091C50226FFD0CF97
:1022F0008AE290E008952091C50226FFC9CF81E3CC
:1023000090E0089589E390E0089583EE90E00895C9
:1023100082EE90E0089586EE90E008959091C502D7
:1023200092FF06C0282F28712830F9F4877F846037
:1023300093FF06C0282F28712831F1F4877E84612D
:102340002091C60220FF06C0382F38713830D9F4EA
:10235000877F816021FF06C0282F28712831D1F4A2
:10236000877E816194FD877E0895282F2471243013
:10237000F9F68B7F8860DCCF282F2471243101F798
:102380008B7E8861DDCF382F3171313019F78E7F28
:102390008860E0CF282F2171213121F78E7E88615E
:1023A000E1CF0E94490E08950E9427138FE39CE914
:1023B0000197F1F700C000000E94271380E00E94FF
:1023C000181280FF04C00E94D1110E94E21B0895E0
:1023D0000E94D41108950E94500E811102C00E94E3
:1023E000FD0E0E945B0E80937C020E94650E90930E
:1023F000C6028093C5020E94E8110E94600E682FF9
:1024000070E090E080E00E949D086091E201709190
:10241000E3018091E4019091E5010E94DC080895B8
:1024200008950E941012089508950E9414120895AC
:10243000E82FF0E0EE0FFF1FEF52FD4F80819181FA
:102440000895B0E0A0E0E7E2F2E10C94CF2388EC3D
:1024500092E00E94E80281EDE82E82E0F82ED0E0C2
:10246000C0E093ECC92E92E0D92E0AEB12E0DF9384
:10247000CF93DF92CF920E94810380EC92E00E9482
:10248000E802F701819191917F010E9496049F9348
:102490008F931F930F930E94810388EB92E00E9419
:1024A000E80221968DB79EB708960FB6F8949EBFA6
:1024B0000FBE8DBFC530D105D1F6CDB7DEB7E8E090
:1024C0000C94EB2380EA8A95F1F7089500C00895F3
:1024D0000E9462120895F894E82FE295EF70F0E000
:1024E00031A1282F2F7081E090E001C0880F2A953C
:1024F000EAF7982F9095932391A392A1892B82A319
:10250000789408950F931F93CF93DF93C8E8D1E099
:1025100089918F3F11F00E946B1281E0CD38D8076E
:10252000B9F7C9E7D1E008E811E089918F3F11F0D0
:102530000E946B120C171D07C1F7DF91CF911F91FD
:102540000F910895AF92BF92DF92EF92FF920F9397
:102550001F93CF93DF938C01D62EC62FD0E0CE01F0
:1025600088579E4F7C01FC0120812F3F09F44CC00D
:10257000F894E22FE295EF70F0E031A12F7081E046
:1025800090E001C0880F2A95EAF7932F982B91A32A
:1025900092A18095892382A378940E946612E9E72C
:1025A000F1E041E050E0B12CA12C21912F3FB1F19D
:1025B000A22FA295AF70B0E090968C9190E02F7012
:1025C00002C0959587952A95E2F780FD27C0CA013C
:1025D000A82AB92A440F551F81E0E838F80729F7DF
:1025E000F70180818F3F11F00E946B1261E0A1140E
:1025F000B10409F460E08D2D0E946812CC0FDD1F3C
:10260000C00FD11FB982A882DF91CF911F910F9186
:10261000FF90EF90DF90BF90AF90089590E080E042
:10262000D7CF0E9482128AE0E1EDF2E0DF01982F1D
:102630001D929A95E9F7E7ECF2E0DF011D928A9589
:10264000E9F785E00E9463130E94EC030895AAE075
:10265000B0E0EDE2F3E10C94D2238E010F5F1F4F47
:102660008AE0F80111928A95E9F7F12C6F2DC801E3
:102670000E94A212F394F5E0FF12F8CF4AE050E076
:10268000B80187EC92E00E941024FF24F394009795
:1026900009F4F12C892B41F08AE0F801A7ECB2E0B3
:1026A00001900D928A95E1F72F2D45E061ED72E0E2
:1026B00087EC92E00E9464130E94EF038F2D2A960C
:1026C000E5E00C94EE230895FF920F931F93CF93B0
:1026D000DF93F82E092F162FD72FC42F222349F06E
:1026E00081E080937F020E94971B90937E028093EB
:1026F0007D0280917F028823A1F080917D029091DC
:102700007E020E94AF1B059760F0EF2DF02FA12FE6
:10271000BD2F90E080E0D0E08C179D073CF0109238
:102720007F02CDB7DEB7E5E00C94EE232191319125
:102730002D933D930196F0CF0E94781E0E944F0F7B
:102740000E94851E08950E948A1E0E94D30F0E9437
:10275000A81E08950E94301B0E945E1E0E94350F25
:102760000E949C130E94A3130E94450FFBCF8091EF
:10277000860280FF0DC06091070170E0660F771F31
:102780006038710570F56115710569F1862F08953E
:1027900081FF07C06091070184E0689FB0011124A8
:1027A000EFCF6091070182FD0AC0809185028823E6
:1027B000A9F02091060160910701821710F088E0CE
:1027C000ECCF869FC001112433E0880F991F3A9502
:1027D000E1F7622F70E00E94AB23D2CF68E070E097
:1027E000D5CF8FE7089581E008958091860280FF1C
:1027F0000CC06091030170E07595679575956795BC
:102800006115710549F1862F089581FF06C0609119
:10281000030170E075956795F3CF6091030182FD28
:102820000BC0909184029923A1F0609102018091E4
:102830000301961738F0682F70E06038710500F3D7
:102840008FE70895899FC001112470E00E94AB2397
:10285000F4CF61E070E0D7CF81E008958D3E31F490
:102860000E94B713819580938A0208958E3E19F4D1
:102870000E94B713F8CF8F3E31F40E94B7138195B1
:10288000809389020895803F19F40E94B713F8CF0E
:10289000893F29F40E94F51380938B0208958A3FA3
:1028A00021F40E94F5138195F7CF8B3F31F40E94FC
:1028B000F513819580938C0208958C3F19F40E9442
:1028C000F513F8CF9FE0980F983070F4815F990B63
:1028D00021E030E001C0220F8A95EAF7809188025A
:1028E000822B8093880208958D3F31F48091860277
:1028F00081608093860208958E3F21F48091860244
:102900008260F7CF8F3FB9F7809186028460F1CF64
:10291000409189028D3E59F480918A0287FF0DC053
:1029200010928A0241110BC01092850208C08E3E9F
:1029300081F480918A0218169CF3442381F08091DF
:102940008B0290918C02892B09F05AC0109284025C
:1029500008958F3E49F447FFF0CF1092890280918D
:102960008A028111ECCFE0CF803F19F41416ACF34A
:10297000E4CF90918B02893F29F41916F4F6109256
:102980008B02DBCF8A3F19F497FFD7CFF8CF909116
:102990008C028B3F29F497FFD0CF10928C02CDCFC1
:1029A0008C3F19F41916CCF3C8CF9FE0980F9830DC
:1029B00090F4815F990B21E030E0B90102C0660F0D
:1029C000771F8A95E2F7CB01809590918802892341
:1029D00080938802B2CF8D3F31F4809186028E7F42
:1029E00080938602AACF8E3F21F4809186028D7F4C
:1029F000F7CF8F3F09F0A1CF809186028B7FF0CF78
:102A0000089580917C0283FF7EC086E093E00E945F
:102A1000E802809188021F928F9381E093E09F9358
:102A20008F930E9481038FEF92E00E94E8028091D1
:102A30008902282F082E000C330B3F938F938CEFC5
:102A400092E09F938F930E9481038AEF92E00E940D
:102A5000E80280918A02282F082E000C330B3F9346
:102A60008F9387EF92E09F938F930E94810385EF6E
:102A700092E00E94E80280918B02282F082E000C21
:102A8000330B3F938F9382EF92E09F938F930E943B
:102A9000810380EF92E00E94E80280918C02282F4F
:102AA000082E000C330B3F938F938DEE92E09F9393
:102AB0008F930E9481038AEE92E00E94E802809147
:102AC00085021F928F9387EE92E09F938F930E94CF
:102AD000810385EE92E00E94E802809186021F92B7
:102AE0008F9382EE92E09F938F930E9481038FEDEC
:102AF00092E00E94E8028DB79EB74C960FB6F8940C
:102B00009EBF0FBE8DBF0E94971B9C0190918902B2
:102B100080918A02982B21F03093830220938202C5
:102B200090918B0280918C02982B21F0309381023E
:102B30002093800287E892E00E94C919089586E0F8
:102B4000E7E8F2E0DF011D928A95E9F7109285022D
:102B500010928402109286020895FC0182818111F4
:102B60000EC0838181110BC08481811108C091E066
:102B70008581811101C090E0892F8170089581E0E5
:102B8000FCCFA6E0B0E0E7ECF5E10C94D42386E0BE
:102B9000E7E8F2E0DE01119601900D928A95E1F7E7
:102BA0001092890210928A0210928B0210928C026B
:102BB0008B819C81892B89F0809182029091830284
:102BC0000E94AF1BAC01909185029923C9F18091BD
:102BD00008018417150608F440C08D819E81892B59
:102BE00091F080918002909181020E94AF1BAC0114
:102BF00090918402992309F471C080910401841793
:102C0000150608F479C0BE016F5F7F4F87E892E038
:102C10000E94E71A811105C087E892E00E94AD1575
:102C200081110E94011586E0FE013196A7E8B2E00D
:102C300001900D928A95E1F72696E3E00C94F0233B
:102C4000209109018AE0289F90011124241735075B
:102C500020F69F5F9093850202C09F3FD1F71B81B2
:102C6000112359F00E94B7139FEF11160CF491E055
:102C7000899F802D1124809389021C81112359F092
:102C80000E94B7139FEF11160CF491E0899F802DDD
:102C9000112480938A0230918902332309F49DCF55
:102CA00020918A02222309F498CF45EB3403C00116
:102CB0001124992359F09093890245EB2403900144
:102CC0001124332339F030938A0287CF81E0809337
:102CD0008902F3CF81E080938A027FCF20910501A2
:102CE0008AE0289F900111242417350708F08BCF24
:102CF0009F5F9093840202C09F3FD1F71D811123F3
:102D000059F00E94F5139FEF11160CF491E0899F82
:102D1000802D112480938B021E81112359F00E9473
:102D2000F5139FEF11160CF491E0899F802D11246B
:102D300080938C0230918B02332309F464CF20916D
:102D40008C02222309F45FCF45EB3403C001112428
:102D5000992359F090938B0245EB240390011124A1
:102D6000332339F030938C024ECF81E080938B0275
:102D7000F3CF81E080938C0246CFCF93DF93EC01B9
:102D8000FB018281882309F433C1C430FDE5DF07EC
:102D9000C0F5CB3F9CE5D90730F49E0122503C455D
:102DA00024313105B0F50E94650E9093C6028093E0
:102DB000C502C1318CE5D80709F4EEC008F069C03E
:102DC000C930ECE5DE0709F4D5C0C8F5C5308CE59F
:102DD000D80709F4C7C000F5C330ECE5DE0709F4F5
:102DE000B9C008F0BBC0C230DC4509F4ADC0809169
:102DF000C5029091C6020E94730E0E944F0880E0A7
:102E000008C0C236EDE5DE0771F2C63AFDE5DF0720
:102E100051F2DF91CF9108958091C5028062C73051
:102E20009CE5D90709F493C08091C5028061C83040
:102E3000DC4508F48CC08091C502806488C0809114
:102E4000C5028B7FCD30FCE5DF0709F480C098F424
:102E50008091C5028E7FCB309CE5D90709F477C0FD
:102E60008091C5028C60CC30DC4508F470C0809144
:102E7000C5028D7F6CC08091C5028F7ECF30FCE58E
:102E8000DF0709F464C008F47BC08091C5028F7D20
:102E90005EC0CE3F9CE5D90709F47AC050F5C53134
:102EA000FCE5DF0709F486C098F48091C502837FB2
:102EB000C3319CE5D90709F44AC008F471C00E94E7
:102EC0004F089091C502892F97FB87F980583FC022
:102ED000CC3FFCE5DF0709F449C008F055C08091FC
:102EE000C6028160CB3FDC4509F081CF8093C602EA
:102EF0007ECFC230EDE5DE0709F468C0A8F4C11545
:102F00008DE5D80709F452C08091C6028360C130B4
:102F1000DD4560F38091C602982F909591708E7F69
:102F2000892B90FB81F9E2CFC236EDE5DE0709F48B
:102F300051C0C63AFDE5DF0709F453C0C330DD4593
:102F400009F055CF80E043C08091C5028160809335
:102F5000C5024DCF8091C5028260F9CF8091C50234
:102F60008460F5CF8091C5028860F1CF8091C60260
:102F70008260BCCF0E944F088091C5028068E7CF75
:102F80008091C502877FE3CF8091C6028E7FAECF4E
:102F90008091C6028D7FAACF8091C5028F7BD7CF4B
:102FA0000E944F088091C5028F77D1CF8091C602D1
:102FB0008C7F9CCF8091C50282FB992790F921E0FC
:102FC000922790FB82F990FB83F9C1CF81E00E94A8
:102FD000000F0DCF9091C502892F8F7E94FF8061E5
:102FE000B6CF9091C502892F8E7F90FF8160AFCFC1
:102FF00081E00FCF8FE891E00197F1F700C000006A
:10300000089581E0089581E080938E022198299AA5
:103010002098289A0E94FA1720918E0240E952E0E7
:10302000FA018E2F841B821708F0089583B18695CC
:103030008170189904C090E0892B8193F2CF92E0BF
:10304000FBCFB0E0A0E0E7E2F8E10C94CF23F12C55
:10305000E12C82E0C82ED12C80918E02F81630F03F
:103060008E2DCDB7DEB7E8E00C94EB230F2D10E0EA
:10307000E3B1E695E170189940C080E08E2BD8014D
:10308000A057BD4FEC919E2F93709817A1F1EE0FB2
:10309000EE0FE82BEC93EF70F0E0E357FE4FE80102
:1030A000C157DD4F80819881890F888320E082306D
:1030B0005CF0F801E357FD4F80818F5F808360E013
:1030C0008F2D0E948A0321E088818F3F5CF4F801F4
:1030D000E357FD4F80818150808361E08F2D0E94F6
:1030E0008A0321E08881082E000C990BB6010E940A
:1030F000AB238883E22AF394AFCF82E0BFCFCF9394
:10310000DF93EB0186319C4511F50E944F0D9A81AA
:10311000992399F08A7A91E009F490E090939102D2
:10312000811109C089E20E94270D0E94900D80E064
:10313000DF91CF91089585E3F6CF809191028111BF
:1031400004C089E20E942F0DF0CF85E3FBCF81E020
:10315000EFCF0F931F93CF93DF93C42FD22FFC0198
:1031600082818823C9F0409394020E94971B909318
:1031700093028093920280E28C0F883040F4C770F3
:1031800081E001C0880FCA95EAF70E94D605DF9159
:10319000CF911F910F91089510919402141332C092
:1031A00080919202909193020E94AF1B883C9105FE
:1031B00048F5C0E2CD0F1D17B9F080E2810F8830CD
:1031C00040F4177081E001C0880F1A95EAF70E9459
:1031D000DD05C83048F481E09D2F977001C0880F4D
:1031E0009A95EAF70E94D605802F0E94CD05C83037
:1031F00070F6D77081E001C0880FDA95EAF70E9477
:10320000DD05C5CF80E28C0F883008F6C77081E0FD
:1032100001C0880FCA95EAF7F2CF0F939C01CB014A
:10322000243F4CE5340759F1A8F4293DFCE53F075C
:1032300001F12A3D4CE53407D1F1283D3C4591F49C
:1032400006E221EE41EE68ED7CE50E94A91880E0DF
:103250000F910895263FFCE53F07E9F0B0F0273FC6
:103260003C45F9F0FC018281882339F110929402E7
:10327000EFCF07E225EE45EE69ED7CE5E6CF06E20D
:1032800021EE40EE64EF7CE5E0CF07E225EE44EE70
:1032900065EF7CE5DACF06E221EE42EE66EF7CE5F3
:1032A000D4CF07E225EE46EE67EF7CE5CECF08E20D
:1032B00021E045EE6AED7CE5C8CF81E0C9CF90936F
:1032C000AD018093AC01089590939A028093990286
:1032D0000895E0919902F0919A02309729F00190B7
:1032E000F081E02D0995089580E00895EF92FF9216
:1032F0000F931F93CF93DF93EC01E0919902F0912C
:103300009A02309709F440C080911601882341F059
:103310008091C50287FF04C08881898386E0888305
:103320000280F381E02DCE01099580917C0282FF1D
:103330002BC080FF04C081E393E00E94E80210E00C
:1033400000E08BE2E82E83E0F82E80917C0280FF83
:103350000EC0FE01E00FF11F80811F928F93FF923C
:10336000EF920E9481030F900F900F900F900F5FCC
:103370001F4F0830110549F780917C0280FF04C07F
:1033800089E293E00E94E802CDB7DEB7E6E00C9454
:10339000ED23E0919902F0919A02309739F022E002
:1033A000DC012C930480F581E02D0995089520918E
:1033B0009702309198022817390771F0909398027C
:1033C00080939702E0919902F0919A02309721F050
:1033D0000680F781E02D099508952091950230919E
:1033E00096022817390771F0909396028093950200
:1033F000E0919902F0919A02309721F00084F185D2
:10340000E02D09950895FC013296809116018823DC
:1034100021F08091C5029EE187FF96E080E0915007
:1034200008F4089521912223D1F38F5FF8CF66230A
:1034300001F1209116012223F1F02091C50227FF0E
:103440001AC0462F4695469546954E3190F46770C2
:1034500021E030E002C0220F331F6A95E2F7840FAB
:10346000911DFC01828190E02823392381E0232BE8
:1034700069F480E00895FC013296089621912617A0
:1034800021F0E817F907D1F7F4CF81E008959C0106
:10349000FC0132969FEF80E04191461751F09F3F2B
:1034A00019F4411101C0982F8F5F8630A9F79F3F13
:1034B00009F40895290F311D97FD3A95F9016283AA
:1034C0000895FC01329608962191261303C0DF016E
:1034D00011971C92E817F907B9F70895E62FE695BA
:1034E000E695E695EE3170F4E80FF92FF11D67705F
:1034F00021E030E001C0220F6A95EAF78281822B39
:103500008283089580917C0280FF0CC01F926F938C
:1035100081E693E09F938F930E9481030F900F9019
:103520000F900F900895E62FE695E695E695EE311B
:1035300078F4E80FF92FF11D677021E030E001C049
:10354000220F6A95EAF72095828128232283089525
:1035500080917C0280FF0CC01F926F9383E493E004
:103560009F938F930E9481030F900F900F900F9065
:10357000089520911601222339F02091C50227FFDA
:1035800003C00E946E1A08950E94471A0895209160
:103590001601222339F02091C50227FF03C00E94A3
:1035A000931A08950E94611A0895FC013296809141
:1035B0001601882351F08091C50287FF06C08EE175
:1035C000DF011D928A95E9F7089586E0F9CF46E07C
:1035D00050E00E94102421E0892B09F420E0822F82
:1035E000089508950E94F11A0895811106C081E09E
:1035F00080939B020E94F21A089582E0F9CF83E043
:1036000080939B020E94F21A08950E94F51A089571
:1036100081E080939B020E94F21A08950E94081B89
:103620000895089508950E94121B0895089508951D
:103630000E94111B0895CF930E94161B0E9427130E
:103640000E94171BC0E08C2F0E941812892B31F4A6
:10365000CF5FC530C1F780E0CF91089581E0FCCF06
:1036600085B7806885BF85B7806885BF08951F923C
:103670001FB61F9211248F939F93AF93BF93809196
:103680009C02811113C08091DB029091DC02A09119
:10369000DD02B091DE024196A11DB11D8093DB02D7
:1036A0009093DC02A093DD02B093DE02BF91AF9154
:1036B0009F918F911F901FBE1F9018958091E302DC
:1036C000843031F10E94740410929C0288E190E0F1
:1036D00020E40FB6F894A895809360000FBE209365
:1036E000600083B7817F846083BF83B7816083BFBD
:1036F0007894889583B78E7F83BF0FB6F894A8958A
:1037000080916000886180936000109260000FBE1D
:1037100008950E944F080E947904089582E084BDB4
:1037200093E095BD9AEF97BD80936E0008952FB7F3
:10373000F8948091DB029091DC02A091DD02B091BF
:10374000DE022FBF08952FB7F8946091DB027091CD
:10375000DC028091DD029091DE022FBF08959C0172
:103760004FB7F8948091DB029091DC02A091DD02CA
:10377000B091DE024FBF821B930B089578941F9285
:103780001FB61F9211248F939F93AF93BF93809185
:10379000DB029091DC02A091DD02B091DE02019685
:1037A000A11DB11D8093DB029093DC02A093DD028A
:1037B000B093DE02BF91AF919F918F911F901FBE7A
:1037C0001F90189581E08093E00080E28093D800FC
:1037D0001092C9008FE19EE40197F1F700C000004C
:1037E00087E090EBDC018093EC029093ED02A093D4
:1037F000EE02B093EF0288E19CE00FB6F894A89532
:10380000809360000FBE90936000FFCF88E19CE042
:103810000FB6F894A895809360000FBE9093600057
:10382000FFCF8091C302089508959C0182E08093A8
:10383000E9009FEF8091E800915085FD06C085ED7D
:103840008A95F1F700009111F5CF8091E80085FF8E
:103850000CC050E040E066E070E0C9010E94191F12
:103860008091E8008E778093E8000895CF93DF93EE
:10387000EC01809116018823B1F18091C50287FF88
:1038800032C060E282E08093E9008FEF9091E8001F
:10389000815095FD06C095ED9A95F1F700008111D4
:1038A000F5CF8091E80085FF1BC08091160170E084
:1038B00050E040E0811104C050E040E068E070E07A
:1038C000CE010E94191F8091E8008E778093E80056
:1038D00080E2FE01A3EAB2E001900D928A95E1F741
:1038E000DF91CF91089568E081E0CDCF80939F0272
:1038F0007093A1026093A0028091E302843001F5ED
:1039000082E08093E9008FEF9091E800815095FD6F
:1039100006C095ED9A95F1F700008111F5CF8091E1
:10392000E80085FF0DC050E040E063E070E08FE903
:1039300092E00E94191F8091E8008E778093E80042
:103940000895BC0184E00E94761C0895BC0183E0C8
:103950000E94761C089583E993E00E94E80280911A
:10396000E202811109C00E94A9200E9406218091D3
:10397000E20084608093E20008958FE893E00E9463
:10398000E8021092E20208958BE893E00E94E802B8
:103990000E94081B089587E893E00E94E802609166
:1039A000DF0281E0611101C080E00E94FF1A0895EA
:1039B00083E893E00E94E8029091E30281E0943072
:1039C00009F080E06091DF020E94051B08952091BC
:1039D0009E022F5F822F62E30E949F23992319F09A
:1039E00020939E02089510929E028091A202882345
:1039F000F1F08091E3028430C1F49091E9009F706E
:103A00002091EC00822F817020FD80E8892B93E0CB
:103A10009093E9009091EB0090FF04C09091EE002C
:103A200097FD08C08F708093E9001092A20208955C
:103A30001092F1009091E80095FDFACF9091E80086
:103A400090FFF0CF9091E8009E779093E800EACF46
:103A500042E061EC81E00E94252042E261EC82E0DC
:103A60000E94252042E261EC83E00E942520909193
:103A7000E30281E0943009F080E06091DF020E946F
:103A8000F51A08958091E502833009F461C030F49D
:103A90008130D1F1823009F49EC008958A3009F452
:103AA0008AC08B3009F46FC0893009F050C0809112
:103AB000E402813209F04BC08091E8029091E90262
:103AC000029708F044C08091E800877F8093E80067
:103AD0008091E80082FF37C09091F3008091F2005E
:103AE000029731F48091F100813011F0863021F499
:103AF0008091F1008093C3028091E8008B778093DE
:103B0000E8000E94592023C08091E402813AF9F430
:103B10008091E800877F8093E8008091E80290918F
:103B2000E902892B61F460E283EA92E070E00E948E
:103B3000681F8091E8008B778093E800089560E02B
:103B400090E080E0F3CF8091E3028111C1CF08952E
:103B50008091E402813AD9F78091E8029091E902DC
:103B6000892BA9F78091E800877F8093E8008091F6
:103B7000E80080FFFCCF809116018093F1008091D6
:103B8000E8008E77BCCF8091E402813201F780910A
:103B9000E8029091E902892BD1F68091E800877FB5
:103BA0008093E8000E9459208091E60280931601DC
:103BB0000E944F0808958091E402813241F680917D
:103BC000E800877F8093E8000E9459208091E702F7
:103BD0008093C40208958091E402813A09F0B7CF3E
:103BE0008091E800877F8093E8008091E80080FF63
:103BF000FCCF8091C402C1CF9FB7F8941092A2026B
:103C00009FBF9091E302943009F048C02091E900F1
:103C10002F703091EC00932F917030FD90E8922B33
:103C200023E02093E9002091EB0020FF34C0209195
:103C3000EE0027FF30C020919D02222321F0209129
:103C4000E80025FF28C010929D0226E03091E80090
:103C500035FF14C08093F1008091E80085FD27C0F6
:103C60008091E80080FFFCCF8091E8008E77809300
:103C7000E8009F709093E90080E008953091E3029E
:103C8000343049F43091EB0035FD05C0215041F44A
:103C900081E080939D029F709093E9008FEF0895DB
:103CA000EFE9FFE03197F1F700C00000CFCF8FB709
:103CB000F89421E02093A2028FBFDBCF84B7877FE7
:103CC00084BF0FB6F894A8958091600088618093B6
:103CD0006000109260000FBE80E890E00FB6F8948C
:103CE00080936100909361000FBE0E940E1B0895A7
:103CF0000E94A9200E940621E2EEF0E0808184600B
:103D0000808378940E94842308958AE091E00E9441
:103D1000641908958091E302853051F48FE793E0B0
:103D20000E94E8028091E302853019F00E94891B0D
:103D300008950E945E1B8091E102882399F30E94FE
:103D40001B1B882379F30E94031F0E944F08EACFB0
:103D500008950E94AC1E0895292F33272330310582
:103D600021F168F42130310509F443C022303105D6
:103D700009F444C090E080E030E020E026C0213229
:103D8000310551F122323105A9F76330710590F701
:103D9000FB01EE0FFF1FE056FE4F2081318163567D
:103DA0007E4FFB01808190E010C099278130910502
:103DB00081F0009729F00297E9F6E7E9F3E002C005
:103DC000EBEBF3E0849190E09F01FA0131832083D3
:103DD0000895E7EAF3E0F6CF6330710558F6660F11
:103DE000771FFB01EA55FE4F2081318189E090E089
:103DF000ECCF82E190E02AE134E0E7CF8BE590E080
:103E00002FEB33E0E2CF80E189BD82E189BD09B4C7
:103E100000FEFDCF8091D8008F7D8093D8008091E7
:103E2000E00082608093E0008091E00081FDFCCFA3
:103E30000895AF92BF92CF92DF92FF920F931F939C
:103E4000CF93DF936C01EB018A010E947820F82E5A
:103E5000811123C00115110539F0F801808191818C
:103E6000C81BD90BC80ED91EB12CA12C2097A9F0C4
:103E70008091E80085FD22C08091E8008E778093D4
:103E8000E80001151105A1F0F80180819181A80ECB
:103E9000B91EB182A08285E0F82E8F2DDF91CF91DF
:103EA0001F910F91FF90DF90CF90BF90AF9008953A
:103EB0000E9478208823D1F2F82EEFCFF60181916D
:103EC0006F018093F1002197FFEFAF1ABF0ACECFA9
:103ED000FC018091EA029091EB0286179707A0F00F
:103EE0006115710529F49091E8009E779093E800A0
:103EF00090E06115710551F4911108C08091E800BE
:103F000082FF34C080E00895BC01F2CF8091E302CB
:103F10008823C1F18530C1F18091E80083FD30C074
:103F20008091E80082FDEACF8091E80080FFE1CF38
:103F30008091F3002091F200382F6115710519F07E
:103F40002830310558F091E02830310509F090E033
:103F50002091E8002E772093E800CBCF81918093C9
:103F6000F100615071092F5F3F4FE7CF8091E3026D
:103F7000882341F0853041F08091E80083FFBECF77
:103F800081E0089582E0089583E00895FC01809126
:103F9000EA029091EB0286179707A0F06115710570
:103FA00029F48091E8008E778093E80090E0611515
:103FB000710551F4911108C08091E80082FF35C06D
:103FC00080E00895BC01F2CF8091E3028823C9F11B
:103FD0008530C9F18091E80083FD31C08091E8000F
:103FE00082FDEACF8091E80080FFE1CF8091F3006D
:103FF0002091F200382F6115710519F02830310534
:1040000058F091E02830310509F090E08091E80007
:104010008E778093E800CBCF84918093F100319626
:10402000615071092F5F3F4FE6CF8091E3028823F3
:1040300041F0853041F08091E80083FFBDCF81E001
:10404000089582E0089583E00895982F973028F02E
:104050008F708093E90081E008959093E900242F08
:10406000762F50E0981731F07091EC002091ED0020
:104070005091F00021FD02C09F5FE8CF3091EB002E
:104080003E7F3093EB003091ED003D7F3093ED00AB
:104090003091EB0031603093EB007093EC00209393
:1040A000ED005093F0002091EE0027FDE5CF80E079
:1040B00008958091E40287FF13C08091E80082FF99
:1040C00006C08091E8008B778093E80004C080915F
:1040D000E3028111F2CF08958091E3028823D9F39E
:1040E0008091E80080FFF8CF8091E8008E77ECCFD8
:1040F0002091E4003091E50095E6A9012091EC00C3
:10410000822F817020FF06C08091E80080FF06C0EA
:1041100080E008952091E80022FD1AC08091E3021A
:10412000882389F0853089F08091EB0085FD0FC0F0
:104130002091E4003091E50042175307F9F29150C5
:10414000E1F684E0089582E0089583E0089581E037
:1041500008950E9418210E942021E0EEF0E0808165
:1041600081608083E8EDF0E080818F77808319BCE7
:10417000A7EDB0E08C918E7F8C9380818F7E8083C1
:104180001092E20208950F931F93CF93DF930E9442
:1041900018210E942021C8EDD0E088818F77888384
:1041A00088818068888388818F7D888319BC10927C
:1041B000E3021092DF021092E1021092E00200EEA0
:1041C00010E0F80180818B7F808388818160888303
:1041D00042E060E080E00E942520E1EEF0E0808196
:1041E0008E7F8083E2EEF0E0808181608083808139
:1041F00088608083F80180818E7F808388818061E0
:104200008883DF91CF911F910F910895E8EDF0E041
:1042100080818F7E8083E7EDF0E080818160808304
:1042200084E082BF81E08093E2020E94C32008956F
:10423000E8EDF0E080818E7F80831092E2000895A7
:104240001092DA001092E10008951F920F920FB6BB
:104250000F9211242F933F934F935F936F937F930C
:104260008F939F93AF93BF93EF93FF938091E10060
:1042700082FF0BC08091E20082FF07C08091E100C5
:104280008B7F8093E1000E94E71C8091DA0080FF21
:1042900019C08091D80080FF15C08091DA008E7F10
:1042A0008093DA008091D90080FF96C080E189BDBB
:1042B00082E189BD09B400FEFDCF81E08093E30275
:1042C0000E94AB1C8091E10080FF19C08091E20048
:1042D00080FF15C08091E2008E7F8093E200809184
:1042E000E20080618093E2008091D8008062809338
:1042F000D80019BC85E08093E3020E94CB1C80911A
:10430000E10084FF2BC08091E20084FF27C080E1A0
:1043100089BD82E189BD89B5982F917080FFFBCF5F
:104320008091D8008F7D8093D8008091E1008F7EAE
:104330008093E1008091E2008F7E8093E200809183
:10434000E20081608093E2008091DF02882309F41B
:1043500049C084E08093E3020E94D81C8091E10070
:1043600083FF29C08091E20083FF25C08091E10096
:10437000877F8093E10082E08093E3021092DF0266
:104380008091E1008E7F8093E1008091E2008E7F3A
:104390008093E2008091E20080618093E20042E03D
:1043A00060E080E00E9425208091F000886080938A
:1043B000F0000E94C41CFF91EF91BF91AF919F91BB
:1043C0008F917F916F915F914F913F912F910F90BE
:1043D0000FBE0F901F90189519BC1092E3020E9417
:1043E000BD1C70CF8091E30087FD93E09093E302C2
:1043F000B3CF1F920F920FB60F9211242F933F93BA
:104400004F935F936F937F938F939F93AF93BF93DC
:10441000CF93DF93EF93FF93D091E900DF7080910A
:10442000EC00C82FC17080FDC0E81092E9008091B7
:10443000F000877F8093F00078940E943D221092D4
:10444000E9008091F00088608093F000CD2BCF7060
:10445000C093E900FF91EF91DF91CF91BF91AF91B0
:104460009F918F917F916F915F914F913F912F918C
:104470000F900FBE0F901F901895AAE2B0E0E3E4F2
:10448000F2E20C94D42384EE92E02091F100FC013E
:104490002193CF01F2E08C3E9F07B9F70E94421DA5
:1044A0008091E80083FF1EC18091E4029091E502B3
:1044B0009A3008F017C1E92FF0E0E359FB4D0C9456
:1044C000BF23803899F0823809F00CC18091E8024E
:1044D0008F70873008F006C18093E9008091EB006F
:1044E00085FB882780F91092E90006C08091E002E0
:1044F0009091E102911182609091E800977F9093F2
:10450000E8008093F1001092F1008091E8008E772E
:10451000E5C0882309F4D3C0823009F0E3C080915C
:10452000E6028111D6C08091E8028F702FEF280F2C
:10453000263008F0D7C08093E9002091EB0020FFDF
:10454000C8C0933031F48091EB0080628093EB001F
:10455000C0C09091EB0090619093EB0021E030E0BF
:1045600001C0220F8A95EAF72093EA001092EA0030
:104570008091EB008860EACF8111B4C01091E6020F
:104580001F778091E3008078812B8093E3008091F6
:10459000E800877F8093E8000E9459208091E8001E
:1045A00080FFFCCF8091E30080688093E30082E08D
:1045B000111183E08093E30295C08058823008F0A7
:1045C00091C08091E6029091E7028C3D23E0920732
:1045D000A1F583E08A838AE289834FB7F894DE01EC
:1045E000139620E03EE051E2E32FF0E050935700B5
:1045F000E49120FF03C0E295EF703F5FEF708E2FD4
:1046000090E0EA30C0F0C7968D939D932F5F2431E0
:1046100059F74FBF8091E800877F8093E8006AE2F6
:1046200070E0CE0101960E94681F8091E8008B77B0
:104630008093E80057C0C096E7CF6091E802709180
:10464000E902AE014F5F5F4F0E94A91EBC01892B9A
:1046500009F448C09091E800977F9093E800898121
:104660009A810E94C61FE1CF8038E1F58091E80071
:10467000877F8093E8008091DF028093F10045CF2F
:10468000811130C09091E602923060F58091E8008F
:10469000877F8093E8009093DF020E9459208091E9
:1046A000DF02882311F084E005C08091E30087FDDC
:1046B000FACF81E08093E3020E94281D13C080910D
:1046C000E602813079F481E0933009F080E0809354
:1046D000E1021092E9008091E800877F8093E80072
:1046E0000E9459208091E80083FF0AC08091E80071
:1046F000877F8093E8008091EB0080628093EB00DD
:10470000AA96E3E00C94F023CF938091E3028823F0
:10471000A1F0C091E900CF709091EC00892F8170D9
:1047200090FD80E8C82B1092E9008091E80083FD9D
:104730000E943D22CF70C093E900CF910895991B4C
:1047400079E004C0991F961708F0961B881F7A9588
:10475000C9F78095089597FB072E16F4009407D0AB
:1047600077FD09D00E94FC2307FC05D03EF490950C
:1047700081959F4F0895709561957F4F0895EE0F35
:10478000FF1F0590F491E02D09942F923F924F92D4
:104790005F926F927F928F929F92AF92BF92CF92D1
:1047A000DF92EF92FF920F931F93CF93DF93CDB7DA
:1047B000DEB7CA1BDB0B0FB6F894DEBF0FBECDBF52
:1047C00009942A88398848885F846E847D848C8423
:1047D0009B84AA84B984C884DF80EE80FD800C812C
:1047E0001B81AA81B981CE0FD11D0FB6F894DEBF0F
:1047F0000FBECDBFED010895AA1BBB1B51E107C041
:10480000AA1FBB1FA617B70710F0A61BB70B881F60
:10481000991F5A95A9F780959095BC01CD010895EF
:10482000FB01DC0104C08D910190801921F44150FD
:104830005040C8F7881B990B0895F999FECF92BD97
:1048400081BDF89A992780B50895A8E1B0E042E0CB
:1048500050E00C945124262FF999FECF92BD81BDD2
:10486000F89A019700B4021639F01FBA20BD0FB6AE
:10487000F894FA9AF99A0FBE08950396272F0E948A
:104880002C240E942B24252F0E942C24242F0C94AE
:104890002C240196272F0E942C240C942B24DC011D
:1048A000CB01FC01F999FECF06C0F2BDE1BDF89A3B
:1048B000319600B40D9241505040B8F70895F894E5
:1048C000FFCF1F061F0650065006DD06F9067F06BD
:1048D0007F06040790079F079F07612289227223A2
:0E48E00089227223BC22DD227223342340235E
:1048EE004402280850011E0A1401111C361C151C06
:1048FE00A61CA11C141C01E200E900EA00B500B6DA
:10490E0000B700CD008301CC008A019201940121F1
:10491E0002230224022502260227022A02B300B431
:10492E00006F007000818283E200E900EA00B500AA
:10493E00B600B700CD008301CC008A01920194012C
:10494E002102230224022502260227022A02B30094
:10495E00B4006F0070008182836793929190373319
:10496E003266363534979694F0C695F1F400FF0111
:10497E0000010000FFFF0000010001FF0040B62211
:0C498E0004054E042C04D103EA030304CA
:00000001FF
